{"src/contracts/MedalsOfHonor.sol":{"MedalsOfHonor":{"abi":[{"inputs":[{"internalType":"address payable","name":"_xdripsbuybackWallet","type":"address"}],"stateMutability":"nonpayable","type":"constructor"},{"anonymous":false,"inputs":[{"indexed":true,"internalType":"address","name":"owner","type":"address"},{"indexed":true,"internalType":"address","name":"approved","type":"address"},{"indexed":true,"internalType":"uint256","name":"tokenId","type":"uint256"}],"name":"Approval","type":"event"},{"anonymous":false,"inputs":[{"indexed":true,"internalType":"address","name":"owner","type":"address"},{"indexed":true,"internalType":"address","name":"operator","type":"address"},{"indexed":false,"internalType":"bool","name":"approved","type":"bool"}],"name":"ApprovalForAll","type":"event"},{"anonymous":false,"inputs":[{"indexed":true,"internalType":"address","name":"owner","type":"address"},{"indexed":false,"internalType":"uint256","name":"tokenId","type":"uint256"},{"indexed":false,"internalType":"string","name":"ipfsHash","type":"string"}],"name":"CommonMinted","type":"event"},{"anonymous":false,"inputs":[{"indexed":true,"internalType":"address","name":"owner","type":"address"},{"indexed":false,"internalType":"uint256","name":"tokenId","type":"uint256"},{"indexed":false,"internalType":"string","name":"ipfsHash","type":"string"}],"name":"EpicMinted","type":"event"},{"anonymous":false,"inputs":[{"indexed":true,"internalType":"address","name":"owner","type":"address"},{"indexed":false,"internalType":"uint256","name":"tokenId","type":"uint256"},{"indexed":false,"internalType":"string","name":"ipfsHash","type":"string"}],"name":"LegendaryMinted","type":"event"},{"anonymous":false,"inputs":[{"indexed":true,"internalType":"address","name":"previousOwner","type":"address"},{"indexed":true,"internalType":"address","name":"newOwner","type":"address"}],"name":"OwnershipTransferred","type":"event"},{"anonymous":false,"inputs":[{"indexed":true,"internalType":"address","name":"owner","type":"address"},{"indexed":false,"internalType":"uint256","name":"tokenId","type":"uint256"},{"indexed":false,"internalType":"string","name":"ipfsHash","type":"string"}],"name":"RareMinted","type":"event"},{"anonymous":false,"inputs":[{"indexed":true,"internalType":"address","name":"from","type":"address"},{"indexed":true,"internalType":"address","name":"to","type":"address"},{"indexed":true,"internalType":"uint256","name":"tokenId","type":"uint256"}],"name":"Transfer","type":"event"},{"anonymous":false,"inputs":[{"indexed":true,"internalType":"address","name":"owner","type":"address"},{"indexed":false,"internalType":"uint256","name":"tokenId","type":"uint256"},{"indexed":false,"internalType":"string","name":"ipfsHash","type":"string"}],"name":"UncommonMinted","type":"event"},{"inputs":[],"name":"COMMON_SUPPLY","outputs":[{"internalType":"uint256","name":"","type":"uint256"}],"stateMutability":"view","type":"function"},{"inputs":[],"name":"EPIC_SUPPLY","outputs":[{"internalType":"uint256","name":"","type":"uint256"}],"stateMutability":"view","type":"function"},{"inputs":[],"name":"LEGENDARY_SUPPLY","outputs":[{"internalType":"uint256","name":"","type":"uint256"}],"stateMutability":"view","type":"function"},{"inputs":[],"name":"MINT_COOLDOWN","outputs":[{"internalType":"uint256","name":"","type":"uint256"}],"stateMutability":"view","type":"function"},{"inputs":[],"name":"RARE_SUPPLY","outputs":[{"internalType":"uint256","name":"","type":"uint256"}],"stateMutability":"view","type":"function"},{"inputs":[],"name":"UNCOMMON_SUPPLY","outputs":[{"internalType":"uint256","name":"","type":"uint256"}],"stateMutability":"view","type":"function"},{"inputs":[{"internalType":"address","name":"to","type":"address"},{"internalType":"uint256","name":"tokenId","type":"uint256"}],"name":"approve","outputs":[],"stateMutability":"nonpayable","type":"function"},{"inputs":[{"internalType":"address","name":"owner","type":"address"}],"name":"balanceOf","outputs":[{"internalType":"uint256","name":"","type":"uint256"}],"stateMutability":"view","type":"function"},{"inputs":[],"name":"commonPrice","outputs":[{"internalType":"uint256","name":"","type":"uint256"}],"stateMutability":"view","type":"function"},{"inputs":[{"internalType":"uint256","name":"","type":"uint256"}],"name":"cooldownTimes","outputs":[{"internalType":"uint256","name":"","type":"uint256"}],"stateMutability":"view","type":"function"},{"inputs":[],"name":"epicPrice","outputs":[{"internalType":"uint256","name":"","type":"uint256"}],"stateMutability":"view","type":"function"},{"inputs":[{"internalType":"uint256","name":"tokenId","type":"uint256"}],"name":"getApproved","outputs":[{"internalType":"address","name":"","type":"address"}],"stateMutability":"view","type":"function"},{"inputs":[{"internalType":"address","name":"account","type":"address"},{"internalType":"uint256","name":"mintTier","type":"uint256"}],"name":"getCooldownDaysLeft","outputs":[{"internalType":"uint256","name":"","type":"uint256"}],"stateMutability":"view","type":"function"},{"inputs":[{"internalType":"address","name":"account","type":"address"}],"name":"getNextMintTier","outputs":[{"internalType":"string","name":"","type":"string"},{"internalType":"uint256","name":"","type":"uint256"}],"stateMutability":"view","type":"function"},{"inputs":[{"internalType":"uint256","name":"tokenId","type":"uint256"}],"name":"getTokenIPFSHash","outputs":[{"internalType":"string","name":"","type":"string"}],"stateMutability":"view","type":"function"},{"inputs":[],"name":"giveawaysWallet","outputs":[{"internalType":"address payable","name":"","type":"address"}],"stateMutability":"view","type":"function"},{"inputs":[{"internalType":"address","name":"owner","type":"address"},{"internalType":"address","name":"operator","type":"address"}],"name":"isApprovedForAll","outputs":[{"internalType":"bool","name":"","type":"bool"}],"stateMutability":"view","type":"function"},{"inputs":[],"name":"legendaryPrice","outputs":[{"internalType":"uint256","name":"","type":"uint256"}],"stateMutability":"view","type":"function"},{"inputs":[],"name":"marketingWallet","outputs":[{"internalType":"address payable","name":"","type":"address"}],"stateMutability":"view","type":"function"},{"inputs":[{"internalType":"string","name":"ipfsHash","type":"string"}],"name":"mintCommon","outputs":[],"stateMutability":"payable","type":"function"},{"inputs":[{"internalType":"string","name":"ipfsHash","type":"string"}],"name":"mintEpic","outputs":[],"stateMutability":"payable","type":"function"},{"inputs":[{"internalType":"string","name":"ipfsHash","type":"string"}],"name":"mintLegendary","outputs":[],"stateMutability":"payable","type":"function"},{"inputs":[{"internalType":"string","name":"ipfsHash","type":"string"}],"name":"mintRare","outputs":[],"stateMutability":"payable","type":"function"},{"inputs":[{"internalType":"string","name":"ipfsHash","type":"string"}],"name":"mintUncommon","outputs":[],"stateMutability":"payable","type":"function"},{"inputs":[],"name":"name","outputs":[{"internalType":"string","name":"","type":"string"}],"stateMutability":"view","type":"function"},{"inputs":[],"name":"owner","outputs":[{"internalType":"address","name":"","type":"address"}],"stateMutability":"view","type":"function"},{"inputs":[{"internalType":"uint256","name":"tokenId","type":"uint256"}],"name":"ownerOf","outputs":[{"internalType":"address","name":"","type":"address"}],"stateMutability":"view","type":"function"},{"inputs":[],"name":"percentages","outputs":[{"internalType":"uint256","name":"xDripBuybacksPercentage","type":"uint256"},{"internalType":"uint256","name":"stakingRewardsPercentage","type":"uint256"},{"internalType":"uint256","name":"marketingPercentage","type":"uint256"},{"internalType":"uint256","name":"giveawaysPercentage","type":"uint256"},{"internalType":"uint256","name":"teamPercentage","type":"uint256"}],"stateMutability":"view","type":"function"},{"inputs":[],"name":"rarePrice","outputs":[{"internalType":"uint256","name":"","type":"uint256"}],"stateMutability":"view","type":"function"},{"inputs":[],"name":"renounceOwnership","outputs":[],"stateMutability":"nonpayable","type":"function"},{"inputs":[{"internalType":"address","name":"from","type":"address"},{"internalType":"address","name":"to","type":"address"},{"internalType":"uint256","name":"tokenId","type":"uint256"}],"name":"safeTransferFrom","outputs":[],"stateMutability":"nonpayable","type":"function"},{"inputs":[{"internalType":"address","name":"from","type":"address"},{"internalType":"address","name":"to","type":"address"},{"internalType":"uint256","name":"tokenId","type":"uint256"},{"internalType":"bytes","name":"data","type":"bytes"}],"name":"safeTransferFrom","outputs":[],"stateMutability":"nonpayable","type":"function"},{"inputs":[{"internalType":"address","name":"operator","type":"address"},{"internalType":"bool","name":"approved","type":"bool"}],"name":"setApprovalForAll","outputs":[],"stateMutability":"nonpayable","type":"function"},{"inputs":[{"internalType":"uint256","name":"cooldown","type":"uint256"}],"name":"setCommonCooldown","outputs":[],"stateMutability":"nonpayable","type":"function"},{"inputs":[{"internalType":"uint256","name":"price","type":"uint256"}],"name":"setCommonPrice","outputs":[],"stateMutability":"nonpayable","type":"function"},{"inputs":[{"internalType":"uint256","name":"cooldown","type":"uint256"}],"name":"setEpicCooldown","outputs":[],"stateMutability":"nonpayable","type":"function"},{"inputs":[{"internalType":"uint256","name":"price","type":"uint256"}],"name":"setEpicPrice","outputs":[],"stateMutability":"nonpayable","type":"function"},{"inputs":[{"internalType":"uint256","name":"cooldown","type":"uint256"}],"name":"setLegendaryCooldown","outputs":[],"stateMutability":"nonpayable","type":"function"},{"inputs":[{"internalType":"uint256","name":"price","type":"uint256"}],"name":"setLegendaryPrice","outputs":[],"stateMutability":"nonpayable","type":"function"},{"inputs":[{"internalType":"uint256","name":"xDripBuybacksPercentage","type":"uint256"},{"internalType":"uint256","name":"stakingRewardsPercentage","type":"uint256"},{"internalType":"uint256","name":"marketingPercentage","type":"uint256"},{"internalType":"uint256","name":"giveawaysPercentage","type":"uint256"},{"internalType":"uint256","name":"teamPercentage","type":"uint256"}],"name":"setPercentages","outputs":[],"stateMutability":"nonpayable","type":"function"},{"inputs":[{"internalType":"uint256","name":"cooldown","type":"uint256"}],"name":"setRareCooldown","outputs":[],"stateMutability":"nonpayable","type":"function"},{"inputs":[{"internalType":"uint256","name":"price","type":"uint256"}],"name":"setRarePrice","outputs":[],"stateMutability":"nonpayable","type":"function"},{"inputs":[{"internalType":"uint256","name":"cooldown","type":"uint256"}],"name":"setUncommonCooldown","outputs":[],"stateMutability":"nonpayable","type":"function"},{"inputs":[{"internalType":"uint256","name":"price","type":"uint256"}],"name":"setUncommonPrice","outputs":[],"stateMutability":"nonpayable","type":"function"},{"inputs":[],"name":"stakingRewardsWallet","outputs":[{"internalType":"address payable","name":"","type":"address"}],"stateMutability":"view","type":"function"},{"inputs":[{"internalType":"bytes4","name":"interfaceId","type":"bytes4"}],"name":"supportsInterface","outputs":[{"internalType":"bool","name":"","type":"bool"}],"stateMutability":"view","type":"function"},{"inputs":[],"name":"symbol","outputs":[{"internalType":"string","name":"","type":"string"}],"stateMutability":"view","type":"function"},{"inputs":[],"name":"teamWallet","outputs":[{"internalType":"address payable","name":"","type":"address"}],"stateMutability":"view","type":"function"},{"inputs":[{"internalType":"uint256","name":"tokenId","type":"uint256"}],"name":"tokenURI","outputs":[{"internalType":"string","name":"","type":"string"}],"stateMutability":"view","type":"function"},{"inputs":[{"internalType":"address","name":"from","type":"address"},{"internalType":"address","name":"to","type":"address"},{"internalType":"uint256","name":"tokenId","type":"uint256"}],"name":"transferFrom","outputs":[],"stateMutability":"nonpayable","type":"function"},{"inputs":[{"internalType":"address","name":"newOwner","type":"address"}],"name":"transferOwnership","outputs":[],"stateMutability":"nonpayable","type":"function"},{"inputs":[],"name":"uncommonPrice","outputs":[{"internalType":"uint256","name":"","type":"uint256"}],"stateMutability":"view","type":"function"},{"inputs":[{"internalType":"address payable","name":"_xdripsbuybackWallet","type":"address"},{"internalType":"address payable","name":"_stakingRewardsWallet","type":"address"},{"internalType":"address payable","name":"_marketingWallet","type":"address"},{"internalType":"address payable","name":"_giveawaysWallet","type":"address"},{"internalType":"address payable","name":"_teamWallet","type":"address"}],"name":"updateDistributionWallets","outputs":[],"stateMutability":"nonpayable","type":"function"},{"inputs":[],"name":"xDripBuybacksWallet","outputs":[{"internalType":"address payable","name":"","type":"address"}],"stateMutability":"view","type":"function"}],"evm":{"bytecode":{"linkReferences":{},"object":"61012060405260006080908152601e60a081905260c081905260e08190526101005262000031906009906005620001e8565b506703782dace9d90000600f9081556706f05b59d3b20000601055670a688906bd8b0000601155670de0b6b3a7640000601255671158e460913d00006013556040805160a081018252601480825260286020830181905292820184905260608201849052600a6080909201829052601b55601c91909155601d829055601e91909155601f55348015620000c357600080fd5b5060405162003b9938038062003b99833981016040819052620000e69162000254565b6040518060400160405280600f81526020016e26b2b230b6399037b3102437b737b960891b8152506040518060400160405280600381526020016209a9e960eb1b81525081600090816200013b91906200032b565b5060016200014a82826200032b565b50505062000167620001616200019260201b60201c565b62000196565b6001600855600a80546001600160a01b0319166001600160a01b0392909216919091179055620003f7565b3390565b600780546001600160a01b038381166001600160a01b0319831681179093556040519116919082907f8be0079c531659141344cd1fd0a4f28419497f9722a3daafe3b4186f6b6457e090600090a35050565b8280548282559060005260206000209081019282156200022b579160200282015b828111156200022b578251829060ff1690559160200191906001019062000209565b50620002399291506200023d565b5090565b5b808211156200023957600081556001016200023e565b6000602082840312156200026757600080fd5b81516001600160a01b03811681146200027f57600080fd5b9392505050565b634e487b7160e01b600052604160045260246000fd5b600181811c90821680620002b157607f821691505b602082108103620002d257634e487b7160e01b600052602260045260246000fd5b50919050565b601f8211156200032657600081815260208120601f850160051c81016020861015620003015750805b601f850160051c820191505b8181101562000322578281556001016200030d565b5050505b505050565b81516001600160401b0381111562000347576200034762000286565b6200035f816200035884546200029c565b84620002d8565b602080601f8311600181146200039757600084156200037e5750858301515b600019600386901b1c1916600185901b17855562000322565b600085815260208120601f198616915b82811015620003c857888601518255948401946001909101908401620003a7565b5085821015620003e75787850151600019600388901b60f8161c191681555b5050505050600190811b01905550565b61379280620004076000396000f3fe6080604052600436106103355760003560e01c8063715018a6116101ab578063a22cb465116100f7578063c87b56dd11610095578063f2fde38b1161006f578063f2fde38b14610962578063f7ee7a4314610982578063fc293c9714610999578063fed478bc146109ac57600080fd5b8063c87b56dd146108e6578063d3043f5314610906578063e985e9c51461091957600080fd5b8063ada0c98f116100d1578063ada0c98f14610871578063b88d4fde14610886578063c1e2c21c146108a6578063c2f16818146108c657600080fd5b8063a22cb4651461081b578063a3f568c61461083b578063a69217061461085157600080fd5b806388be734711610164578063911d99ff1161013e578063911d99ff146107bb57806395d89b41146107db57806397d0f71f146107f05780639e9db57d1461080557600080fd5b806388be7347146107675780638d32895c146107875780638da5cb5b1461079d57600080fd5b8063715018a6146106bd57806375f0a874146106d25780637863e8bd146106f257806382cf91b11461071257806383a30da41461072757806383e06ead1461074757600080fd5b806335aa9fb9116102855780636352211e116102235780636ab65915116101fd5780636ab65915146105135780636bc15b9b1461062e57806370a082311461067d578063714916321461069d57600080fd5b80636352211e146105db578063651d64b7146105fb578063660e01e81461060e57600080fd5b80633f2ad2e31161025f5780633f2ad2e31461056857806342842e0e1461058857806346c414d6146105a857806359927044146105bb57600080fd5b806335aa9fb9146105135780633617d992146105285780633f104c7f1461054857600080fd5b80630a11a4ad116102f257806327182d69116102cc57806327182d691461049957806329048248146104b95780632b9c36f2146104d957806334d50bfc146104fd57600080fd5b80630a11a4ad1461042b578063229768371461044b57806323b872dd1461047957600080fd5b806301ffc9a71461033a5780630342f54b1461036f57806306fdde0314610391578063081812fc146103b357806308f6f82f146103eb578063095ea7b31461040b575b600080fd5b34801561034657600080fd5b5061035a610355366004612f84565b6109bf565b60405190151581526020015b60405180910390f35b34801561037b57600080fd5b5061038f61038a366004612fa1565b610a11565b005b34801561039d57600080fd5b506103a6610a3d565b604051610366919061300a565b3480156103bf57600080fd5b506103d36103ce366004612fa1565b610acf565b6040516001600160a01b039091168152602001610366565b3480156103f757600080fd5b5061038f610406366004612fa1565b610af6565b34801561041757600080fd5b5061038f610426366004613032565b610b03565b34801561043757600080fd5b5061038f610446366004612fa1565b610c1d565b34801561045757600080fd5b5061046b61046636600461305e565b610c3a565b60405161036692919061307b565b34801561048557600080fd5b5061038f61049436600461309d565b610e53565b3480156104a557600080fd5b5061038f6104b4366004612fa1565b610e84565b3480156104c557600080fd5b5061038f6104d43660046130de565b610e91565b3480156104e557600080fd5b506104ef60105481565b604051908152602001610366565b34801561050957600080fd5b506104ef60135481565b34801561051f57600080fd5b506104ef602881565b34801561053457600080fd5b5061038f610543366004612fa1565b610ef8565b34801561055457600080fd5b50600d546103d3906001600160a01b031681565b34801561057457600080fd5b506103a6610583366004612fa1565b610f15565b34801561059457600080fd5b5061038f6105a336600461309d565b611011565b61038f6105b63660046131db565b61102c565b3480156105c757600080fd5b50600e546103d3906001600160a01b031681565b3480156105e757600080fd5b506103d36105f6366004612fa1565b6112db565b61038f6106093660046131db565b61133b565b34801561061a57600080fd5b5061038f610629366004612fa1565b61166a565b34801561063a57600080fd5b50601b54601c54601d54601e54601f54610655949392919085565b604080519586526020860194909452928401919091526060830152608082015260a001610366565b34801561068957600080fd5b506104ef61069836600461305e565b611677565b3480156106a957600080fd5b50600a546103d3906001600160a01b031681565b3480156106c957600080fd5b5061038f6116fd565b3480156106de57600080fd5b50600c546103d3906001600160a01b031681565b3480156106fe57600080fd5b5061038f61070d366004612fa1565b611711565b34801561071e57600080fd5b506104ef606481565b34801561073357600080fd5b50600b546103d3906001600160a01b031681565b34801561075357600080fd5b5061038f610762366004613224565b61172e565b34801561077357600080fd5b5061038f610782366004612fa1565b6117f4565b34801561079357600080fd5b506104ef600f5481565b3480156107a957600080fd5b506007546001600160a01b03166103d3565b3480156107c757600080fd5b5061038f6107d6366004612fa1565b611801565b3480156107e757600080fd5b506103a661180e565b3480156107fc57600080fd5b506104ef605081565b34801561081157600080fd5b506104ef60125481565b34801561082757600080fd5b5061038f61083636600461325f565b61181d565b34801561084757600080fd5b506104ef60115481565b34801561085d57600080fd5b5061038f61086c366004612fa1565b611828565b34801561087d57600080fd5b506104ef603c81565b34801561089257600080fd5b5061038f6108a136600461329d565b611845565b3480156108b257600080fd5b506104ef6108c1366004612fa1565b611877565b3480156108d257600080fd5b506104ef6108e1366004613032565b611898565b3480156108f257600080fd5b506103a6610901366004612fa1565b6119d8565b61038f6109143660046131db565b611ae0565b34801561092557600080fd5b5061035a61093436600461331d565b6001600160a01b03918216600090815260056020908152604080832093909416825291909152205460ff1690565b34801561096e57600080fd5b5061038f61097d36600461305e565b611d58565b34801561098e57600080fd5b506104ef62278d0081565b61038f6109a73660046131db565b611dd1565b61038f6109ba3660046131db565b6120ca565b60006001600160e01b031982166380ac58cd60e01b14806109f057506001600160e01b03198216635b5e139f60e01b145b80610a0b57506301ffc9a760e01b6001600160e01b03198316145b92915050565b610a196123a0565b806009600381548110610a2e57610a2e61334b565b60009182526020909120015550565b606060008054610a4c90613361565b80601f0160208091040260200160405190810160405280929190818152602001828054610a7890613361565b8015610ac55780601f10610a9a57610100808354040283529160200191610ac5565b820191906000526020600020905b815481529060010190602001808311610aa857829003601f168201915b5050505050905090565b6000610ada826123fa565b506000908152600460205260409020546001600160a01b031690565b610afe6123a0565b601355565b6000610b0e826112db565b9050806001600160a01b0316836001600160a01b031603610b805760405162461bcd60e51b815260206004820152602160248201527f4552433732313a20617070726f76616c20746f2063757272656e74206f776e656044820152603960f91b60648201526084015b60405180910390fd5b336001600160a01b0382161480610b9c5750610b9c8133610934565b610c0e5760405162461bcd60e51b815260206004820152603d60248201527f4552433732313a20617070726f76652063616c6c6572206973206e6f7420746f60448201527f6b656e206f776e6572206f7220617070726f76656420666f7220616c6c0000006064820152608401610b77565b610c188383612459565b505050565b610c256123a0565b806009600281548110610a2e57610a2e61334b565b606060008060015b60058111610c9e576001600160a01b0385166000908152601a602090815260408083208484529091529020544290610c7e9062278d00906133b1565b1115610c8c57809150610c9e565b80610c96816133c4565b915050610c42565b5080600003610cd25750506040805180820190915260098152684c4547454e4441525960b81b602082015292600092509050565b80600103610d36576001600160a01b0384166000908152601a6020908152604080832060018452909152902054610d0d9062278d00906133b1565b6040805180820190915260088152672aa721a7a6a6a7a760c11b60208201529590945092505050565b80600203610d96576001600160a01b0384166000908152601a6020908152604080832060028452909152902054610d719062278d00906133b1565b6040805180820190915260048152635241524560e01b60208201529590945092505050565b80600303610df6576001600160a01b0384166000908152601a6020908152604080832060038452909152902054610dd19062278d00906133b1565b6040805180820190915260048152634550494360e01b60208201529590945092505050565b6001600160a01b0384166000908152601a6020908152604080832060048452909152902054610e299062278d00906133b1565b6040805180820190915260098152684c4547454e4441525960b81b60208201529590945092505050565b610e5d33826124c7565b610e795760405162461bcd60e51b8152600401610b77906133dd565b610c18838383612545565b610e8c6123a0565b601055565b610e996123a0565b600a80546001600160a01b03199081166001600160a01b0397881617909155600b8054821695871695909517909455600c8054851693861693909317909255600d80548416918516919091179055600e80549092169216919091179055565b610f006123a0565b806009600581548110610a2e57610a2e61334b565b6000818152600260205260409020546060906001600160a01b0316610f735760405162461bcd60e51b8152602060048201526014602482015273151bdad95b88191bd95cc81b9bdd08195e1a5cdd60621b6044820152606401610b77565b60008281526019602052604090208054610f8c90613361565b80601f0160208091040260200160405190810160405280929190818152602001828054610fb890613361565b80156110055780601f10610fda57610100808354040283529160200191611005565b820191906000526020600020905b815481529060010190602001808311610fe857829003601f168201915b50505050509050919050565b610c1883838360405180602001604052806000815250611845565b805160431461108e5760405162461bcd60e51b815260206004820152602860248201527f495046532068617368206c656e6774682073686f756c64206265203637206368604482015267617261637465727360c01b6064820152608401610b77565b6013543410156110ff5760405162461bcd60e51b815260206004820152603660248201527f4e6f7420656e6f75676820424e422073656e7420746f206d696e742061204c4560448201527523a2a72220a92c9026b2b230b61037b3102437b737b960511b6064820152608401610b77565b602861110a60185490565b106111805760405162461bcd60e51b815260206004820152604c602482015260008051602061373d83398151915260448201527f20486f6e6f72204c4547454e44415259204e46542068617320616c726561647960648201526b081899595b881b5a5b9d195960a21b608482015260a401610b77565b61118933611677565b6004146111fe5760405162461bcd60e51b815260206004820152603e60248201527f4d757374206f776e20616e2045504943204d6564616c206f6620486f6e6f722060448201527f6265666f7265206d696e74696e672061204c4547454e44415259204e465400006064820152608401610b77565b336000908152601a6020908152604080832060048452909152902054429061122a9062278d00906133b1565b11156112485760405162461bcd60e51b8152600401610b779061342a565b60006028603c6050606461125b60185490565b61126591906133b1565b61126f91906133b1565b61127991906133b1565b61128391906133b1565b905061128f33826126a9565b60008181526019602052604090206112a783826134af565b506112b6601880546001019055565b6112be612834565b6112c88183612a4f565b60006112d5336004611898565b50505050565b6000818152600260205260408120546001600160a01b031680610a0b5760405162461bcd60e51b8152602060048201526018602482015277115490cdcc8c4e881a5b9d985b1a59081d1bdad95b88125160421b6044820152606401610b77565b805160421461139d5760405162461bcd60e51b815260206004820152602860248201527f495046532068617368206c656e6774682073686f756c64206265203636206368604482015267617261637465727360c01b6064820152608401610b77565b60105434101561140e5760405162461bcd60e51b815260206004820152603660248201527f4e6f7420656e6f75676820424e422073656e7420746f206d696e7420616e20556044820152752721a7a6a6a7a71026b2b230b61037b3102437b737b960511b6064820152608401610b77565b605061141960155490565b1061148e5760405162461bcd60e51b815260206004820152604b602482015260008051602061373d83398151915260448201527f20486f6e6f7220554e434f4d4d4f4e204e46542068617320616c72656164792060648201526a1899595b881b5a5b9d195960aa1b608482015260a401610b77565b61149733611677565b60011461150c5760405162461bcd60e51b815260206004820152603f60248201527f4d757374206f776e206120434f4d4d4f4e204d6564616c206f6620486f6e6f7260448201527f206265666f7265206d696e74696e6720616e20554e434f4d4d4f4e204e4654006064820152608401610b77565b6000611519336001611898565b905080156115395760405162461bcd60e51b8152600401610b779061342a565b336000908152601a602090815260408083206001845290915290205442906115659062278d00906133b1565b11156115835760405162461bcd60e51b8152600401610b779061342a565b600061158e60155490565b90506115ae33606461159f60155490565b6115a991906133b1565b6126a9565b826019600060646115be60155490565b6115c891906133b1565b815260200190815260200160002090816115e291906134af565b506115f1601580546001019055565b6115f9612834565b336000908152601a602090815260408083206002845290915290204290556116218184612a4f565b336001600160a01b03167f6b9423af11878f5bad583984d9c04c9477193fea938f13ffa02922a5d486b150828560405161165c92919061356f565b60405180910390a2505b5050565b6116726123a0565b601155565b60006001600160a01b0382166116e15760405162461bcd60e51b815260206004820152602960248201527f4552433732313a2061646472657373207a65726f206973206e6f7420612076616044820152683634b21037bbb732b960b91b6064820152608401610b77565b506001600160a01b031660009081526003602052604090205490565b6117056123a0565b61170f6000612ae2565b565b6117196123a0565b806009600181548110610a2e57610a2e61334b565b6117366123a0565b6000818385611745888a6133b1565b61174f91906133b1565b61175991906133b1565b61176391906133b1565b9050806064146117b55760405162461bcd60e51b815260206004820152601e60248201527f50657263656e7461676573206d7573742061646420757020746f2031303000006044820152606401610b77565b506040805160a0810182528681526020810186905290810184905260608101839052608001819052601b94909455601c92909255601d55601e55601f55565b6117fc6123a0565b600f55565b6118096123a0565b601255565b606060018054610a4c90613361565b611666338383612b34565b6118306123a0565b806009600481548110610a2e57610a2e61334b565b61184f33836124c7565b61186b5760405162461bcd60e51b8152600401610b77906133dd565b6112d584848484612c02565b6009818154811061188757600080fd5b600091825260209091200154905081565b600080821180156118aa575060058211155b6118ea5760405162461bcd60e51b815260206004820152601160248201527024b73b30b634b21036b4b73a103a34b2b960791b6044820152606401610b77565b6001600160a01b0383166000908152601a6020908152604080832085845290915290205461195a5760405162461bcd60e51b815260206004820152601f60248201527f4e6f2070726576696f7573206d696e747320666f7220746869732074696572006044820152606401610b77565b60006009838154811061196f5761196f61334b565b60009182526020808320909101546001600160a01b0387168352601a825260408084208785529092529120546119a591906133b1565b90508042106119b8576000915050610a0b565b620151806119c64283613588565b6119d0919061359b565b949350505050565b60606119e3826123fa565b600082815260066020526040812080546119fc90613361565b80601f0160208091040260200160405190810160405280929190818152602001828054611a2890613361565b8015611a755780601f10611a4a57610100808354040283529160200191611a75565b820191906000526020600020905b815481529060010190602001808311611a5857829003601f168201915b505050505090506000611a9360408051602081019091526000815290565b90508051600003611aa5575092915050565b815115611ad7578082604051602001611abf9291906135bd565b60405160208183030381529060405292505050919050565b6119d084612c35565b8051604014611b425760405162461bcd60e51b815260206004820152602860248201527f495046532068617368206c656e6774682073686f756c64206265203634206368604482015267617261637465727360c01b6064820152608401610b77565b600f54341015611bb05760405162461bcd60e51b815260206004820152603360248201527f4e6f7420656e6f75676820424e422073656e7420746f206d696e74206120434f60448201527226a6a7a71026b2b230b61037b3102437b737b960691b6064820152608401610b77565b6064611bbb60145490565b10611c2e5760405162461bcd60e51b8152602060048201526049602482015260008051602061373d83398151915260448201527f20486f6e6f7220434f4d4d4f4e204e46542068617320616c7265616479206265606482015268195b881b5a5b9d195960ba1b608482015260a401610b77565b611c3733611677565b15611c845760405162461bcd60e51b815260206004820152601d60248201527f416c7265616479206d696e746564206120434f4d4d4f4e20746f6b656e0000006044820152606401610b77565b6000611c8f60145490565b9050611c9e336115a960145490565b336000908152601a60209081526040808320600184528252808320429055601454835260199091529020611cd283826134af565b50611ce1601480546001019055565b611ce9612834565b336000908152601a60209081526040808320600184529091529020429055611d118183612a4f565b336001600160a01b03167fb2c6cdad531a8cb22602e8d009e4271e3c000b912740b8dcf2e406dc742965c68284604051611d4c92919061356f565b60405180910390a25050565b611d606123a0565b6001600160a01b038116611dc55760405162461bcd60e51b815260206004820152602660248201527f4f776e61626c653a206e6577206f776e657220697320746865207a65726f206160448201526564647265737360d01b6064820152608401610b77565b611dce81612ae2565b50565b8051603e14611df25760405162461bcd60e51b8152600401610b77906135ec565b601254341015611e5f5760405162461bcd60e51b815260206004820152603260248201527f4e6f7420656e6f75676820424e422073656e7420746f206d696e7420616e20456044820152712824a19026b2b230b61037b3102437b737b960711b6064820152608401610b77565b6028611e6a60175490565b10611edb5760405162461bcd60e51b8152602060048201526047602482015260008051602061373d83398151915260448201527f20486f6e6f722045504943204e46542068617320616c7265616479206265656e606482015266081b5a5b9d195960ca1b608482015260a401610b77565b611ee433611677565b600314611f595760405162461bcd60e51b815260206004820152603960248201527f4d757374206f776e20612052415245204d6564616c206f6620486f6e6f72206260448201527f65666f7265206d696e74696e6720616e2045504943204e4654000000000000006064820152608401610b77565b6000611f66336003611898565b90508015611f865760405162461bcd60e51b8152600401610b779061342a565b336000908152601a60209081526040808320600384529091529020544290611fb29062278d00906133b1565b1115611fd05760405162461bcd60e51b8152600401610b779061342a565b6000611fdb60175490565b905061200433603c60506064611ff060175490565b611ffa91906133b1565b61159f91906133b1565b8260196000603c6050606461201860175490565b61202291906133b1565b61202c91906133b1565b61203691906133b1565b8152602001908152602001600020908161205091906134af565b5061205f601780546001019055565b612067612834565b336000908152601a6020908152604080832060048452909152902042905561208f8184612a4f565b336001600160a01b03167f1e0650ef11ef51a101e0ee0d1917b08960452d6f25ee87087922446b41689bb3828560405161165c92919061356f565b8051603e146120eb5760405162461bcd60e51b8152600401610b77906135ec565b6011543410156121575760405162461bcd60e51b815260206004820152603160248201527f4e6f7420656e6f75676820424e422073656e7420746f206d696e74206120524160448201527029229026b2b230b61037b3102437b737b960791b6064820152608401610b77565b603c61216260165490565b106121d35760405162461bcd60e51b8152602060048201526047602482015260008051602061373d83398151915260448201527f20486f6e6f722052415245204e46542068617320616c7265616479206265656e606482015266081b5a5b9d195960ca1b608482015260a401610b77565b6121dc33611677565b6002146122515760405162461bcd60e51b815260206004820152603d60248201527f4d757374206f776e20616e20554e434f4d4d4f4e204d6564616c206f6620486f60448201527f6e6f72206265666f7265206d696e74696e6720612052415245204e46540000006064820152608401610b77565b600061225e336002611898565b9050801561227e5760405162461bcd60e51b8152600401610b779061342a565b336000908152601a602090815260408083206002845290915290205442906122aa9062278d00906133b1565b11156122c85760405162461bcd60e51b8152600401610b779061342a565b60006122d360165490565b90506122e63360506064611ffa60165490565b8260196000605060646122f860165490565b61230291906133b1565b61230c91906133b1565b8152602001908152602001600020908161232691906134af565b50612335601680546001019055565b61233d612834565b336000908152601a602090815260408083206003845290915290204290556123658184612a4f565b336001600160a01b03167fa82f39585356ef29ae711edaa0d315292d97bfb415c209239f553f121d3504f7828560405161165c92919061356f565b6007546001600160a01b0316331461170f5760405162461bcd60e51b815260206004820181905260248201527f4f776e61626c653a2063616c6c6572206973206e6f7420746865206f776e65726044820152606401610b77565b6000818152600260205260409020546001600160a01b0316611dce5760405162461bcd60e51b8152602060048201526018602482015277115490cdcc8c4e881a5b9d985b1a59081d1bdad95b88125160421b6044820152606401610b77565b600081815260046020526040902080546001600160a01b0319166001600160a01b038416908117909155819061248e826112db565b6001600160a01b03167f8c5be1e5ebec7d5bd14f71427d1e84f3dd0314c0f7b2291e5b200ac8c7c3b92560405160405180910390a45050565b6000806124d3836112db565b9050806001600160a01b0316846001600160a01b0316148061251a57506001600160a01b0380821660009081526005602090815260408083209388168352929052205460ff165b806119d05750836001600160a01b031661253384610acf565b6001600160a01b031614949350505050565b826001600160a01b0316612558826112db565b6001600160a01b03161461257e5760405162461bcd60e51b8152600401610b7790613634565b6001600160a01b0382166125e05760405162461bcd60e51b8152602060048201526024808201527f4552433732313a207472616e7366657220746f20746865207a65726f206164646044820152637265737360e01b6064820152608401610b77565b826001600160a01b03166125f3826112db565b6001600160a01b0316146126195760405162461bcd60e51b8152600401610b7790613634565b600081815260046020908152604080832080546001600160a01b03199081169091556001600160a01b0387811680865260038552838620805460001901905590871680865283862080546001019055868652600290945282852080549092168417909155905184937fddf252ad1be2c89b69c2b068fc378daa952ba7f163c4a11628f55a4df523b3ef91a4505050565b6001600160a01b0382166126ff5760405162461bcd60e51b815260206004820181905260248201527f4552433732313a206d696e7420746f20746865207a65726f20616464726573736044820152606401610b77565b6000818152600260205260409020546001600160a01b0316156127645760405162461bcd60e51b815260206004820152601c60248201527f4552433732313a20746f6b656e20616c7265616479206d696e746564000000006044820152606401610b77565b6000818152600260205260409020546001600160a01b0316156127c95760405162461bcd60e51b815260206004820152601c60248201527f4552433732313a20746f6b656e20616c7265616479206d696e746564000000006044820152606401610b77565b6001600160a01b038216600081815260036020908152604080832080546001019055848352600290915280822080546001600160a01b0319168417905551839291907fddf252ad1be2c89b69c2b068fc378daa952ba7f163c4a11628f55a4df523b3ef908290a45050565b61283c612ca9565b47806128965760405162461bcd60e51b815260206004820152602360248201527f4e6f2066756e647320617661696c61626c6520666f722064697374726962757460448201526234b7b760e91b6064820152608401610b77565b600a54601b546001600160a01b03909116906108fc906064906128b99085613679565b6128c3919061359b565b6040518115909202916000818181858888f193505050501580156128eb573d6000803e3d6000fd5b50600b54601c546001600160a01b03909116906108fc9060649061290f9085613679565b612919919061359b565b6040518115909202916000818181858888f19350505050158015612941573d6000803e3d6000fd5b50600c54601d546001600160a01b03909116906108fc906064906129659085613679565b61296f919061359b565b6040518115909202916000818181858888f19350505050158015612997573d6000803e3d6000fd5b50600d54601e546001600160a01b03909116906108fc906064906129bb9085613679565b6129c5919061359b565b6040518115909202916000818181858888f193505050501580156129ed573d6000803e3d6000fd5b50600e54601f546001600160a01b03909116906108fc90606490612a119085613679565b612a1b919061359b565b6040518115909202916000818181858888f19350505050158015612a43573d6000803e3d6000fd5b505061170f6001600855565b6000828152600260205260409020546001600160a01b0316612aca5760405162461bcd60e51b815260206004820152602e60248201527f45524337323155524953746f726167653a2055524920736574206f66206e6f6e60448201526d32bc34b9ba32b73a103a37b5b2b760911b6064820152608401610b77565b6000828152600660205260409020610c1882826134af565b600780546001600160a01b038381166001600160a01b0319831681179093556040519116919082907f8be0079c531659141344cd1fd0a4f28419497f9722a3daafe3b4186f6b6457e090600090a35050565b816001600160a01b0316836001600160a01b031603612b955760405162461bcd60e51b815260206004820152601960248201527f4552433732313a20617070726f766520746f2063616c6c6572000000000000006044820152606401610b77565b6001600160a01b03838116600081815260056020908152604080832094871680845294825291829020805460ff191686151590811790915591519182527f17307eab39ab6107e8899845ad3d59bd9653f200f220920489ca2b5937696c31910160405180910390a3505050565b612c0d848484612545565b612c1984848484612d02565b6112d55760405162461bcd60e51b8152600401610b7790613690565b6060612c40826123fa565b6000612c5760408051602081019091526000815290565b90506000815111612c775760405180602001604052806000815250612ca2565b80612c8184612e03565b604051602001612c929291906135bd565b6040516020818303038152906040525b9392505050565b600260085403612cfb5760405162461bcd60e51b815260206004820152601f60248201527f5265656e7472616e637947756172643a207265656e7472616e742063616c6c006044820152606401610b77565b6002600855565b60006001600160a01b0384163b15612df857604051630a85bd0160e11b81526001600160a01b0385169063150b7a0290612d469033908990889088906004016136e2565b6020604051808303816000875af1925050508015612d81575060408051601f3d908101601f19168201909252612d7e9181019061371f565b60015b612dde573d808015612daf576040519150601f19603f3d011682016040523d82523d6000602084013e612db4565b606091505b508051600003612dd65760405162461bcd60e51b8152600401610b7790613690565b805181602001fd5b6001600160e01b031916630a85bd0160e11b1490506119d0565b506001949350505050565b60606000612e1083612e96565b600101905060008167ffffffffffffffff811115612e3057612e3061314f565b6040519080825280601f01601f191660200182016040528015612e5a576020820181803683370190505b5090508181016020015b600019016f181899199a1a9b1b9c1cb0b131b232b360811b600a86061a8153600a8504945084612e6457509392505050565b60008072184f03e93ff9f4daa797ed6e38ed64bf6a1f0160401b8310612ed55772184f03e93ff9f4daa797ed6e38ed64bf6a1f0160401b830492506040015b6d04ee2d6d415b85acef81000000008310612f01576d04ee2d6d415b85acef8100000000830492506020015b662386f26fc100008310612f1f57662386f26fc10000830492506010015b6305f5e1008310612f37576305f5e100830492506008015b6127108310612f4b57612710830492506004015b60648310612f5d576064830492506002015b600a8310610a0b5760010192915050565b6001600160e01b031981168114611dce57600080fd5b600060208284031215612f9657600080fd5b8135612ca281612f6e565b600060208284031215612fb357600080fd5b5035919050565b60005b83811015612fd5578181015183820152602001612fbd565b50506000910152565b60008151808452612ff6816020860160208601612fba565b601f01601f19169290920160200192915050565b602081526000612ca26020830184612fde565b6001600160a01b0381168114611dce57600080fd5b6000806040838503121561304557600080fd5b82356130508161301d565b946020939093013593505050565b60006020828403121561307057600080fd5b8135612ca28161301d565b60408152600061308e6040830185612fde565b90508260208301529392505050565b6000806000606084860312156130b257600080fd5b83356130bd8161301d565b925060208401356130cd8161301d565b929592945050506040919091013590565b600080600080600060a086880312156130f657600080fd5b85356131018161301d565b945060208601356131118161301d565b935060408601356131218161301d565b925060608601356131318161301d565b915060808601356131418161301d565b809150509295509295909350565b634e487b7160e01b600052604160045260246000fd5b600067ffffffffffffffff808411156131805761318061314f565b604051601f8501601f19908116603f011681019082821181831017156131a8576131a861314f565b816040528093508581528686860111156131c157600080fd5b858560208301376000602087830101525050509392505050565b6000602082840312156131ed57600080fd5b813567ffffffffffffffff81111561320457600080fd5b8201601f8101841361321557600080fd5b6119d084823560208401613165565b600080600080600060a0868803121561323c57600080fd5b505083359560208501359550604085013594606081013594506080013592509050565b6000806040838503121561327257600080fd5b823561327d8161301d565b91506020830135801515811461329257600080fd5b809150509250929050565b600080600080608085870312156132b357600080fd5b84356132be8161301d565b935060208501356132ce8161301d565b925060408501359150606085013567ffffffffffffffff8111156132f157600080fd5b8501601f8101871361330257600080fd5b61331187823560208401613165565b91505092959194509250565b6000806040838503121561333057600080fd5b823561333b8161301d565b915060208301356132928161301d565b634e487b7160e01b600052603260045260246000fd5b600181811c9082168061337557607f821691505b60208210810361339557634e487b7160e01b600052602260045260246000fd5b50919050565b634e487b7160e01b600052601160045260246000fd5b80820180821115610a0b57610a0b61339b565b6000600182016133d6576133d661339b565b5060010190565b6020808252602d908201527f4552433732313a2063616c6c6572206973206e6f7420746f6b656e206f776e6560408201526c1c881bdc88185c1c1c9bdd9959609a1b606082015260800190565b6020808252601f908201527f4d696e7420636f6f6c646f776e20706572696f64206e6f742070617373656400604082015260600190565b601f821115610c1857600081815260208120601f850160051c810160208610156134885750805b601f850160051c820191505b818110156134a757828155600101613494565b505050505050565b815167ffffffffffffffff8111156134c9576134c961314f565b6134dd816134d78454613361565b84613461565b602080601f83116001811461351257600084156134fa5750858301515b600019600386901b1c1916600185901b1785556134a7565b600085815260208120601f198616915b8281101561354157888601518255948401946001909101908401613522565b508582101561355f5787850151600019600388901b60f8161c191681555b5050505050600190811b01905550565b8281526040602082015260006119d06040830184612fde565b81810381811115610a0b57610a0b61339b565b6000826135b857634e487b7160e01b600052601260045260246000fd5b500490565b600083516135cf818460208801612fba565b8351908301906135e3818360208801612fba565b01949350505050565b60208082526028908201527f495046532068617368206c656e6774682073686f756c64206265203632206368604082015267617261637465727360c01b606082015260800190565b60208082526025908201527f4552433732313a207472616e736665722066726f6d20696e636f72726563742060408201526437bbb732b960d91b606082015260800190565b8082028115828204841417610a0b57610a0b61339b565b60208082526032908201527f4552433732313a207472616e7366657220746f206e6f6e20455243373231526560408201527131b2b4bb32b91034b6b83632b6b2b73a32b960711b606082015260800190565b6001600160a01b038581168252841660208201526040810183905260806060820181905260009061371590830184612fde565b9695505050505050565b60006020828403121561373157600080fd5b8151612ca281612f6e56fe57652061726520736f7272792e20546865206c617374204d6564616c73206f66a2646970667358221220740398226069d043a0e8ac6605694f457a9d113adae287ccda03e86cc977e99b64736f6c63430008110033","opcodes":"PUSH2 0x120 PUSH1 0x40 MSTORE PUSH1 0x0 PUSH1 0x80 SWAP1 DUP2 MSTORE PUSH1 0x1E PUSH1 0xA0 DUP2 SWAP1 MSTORE PUSH1 0xC0 DUP2 SWAP1 MSTORE PUSH1 0xE0 DUP2 SWAP1 MSTORE PUSH2 0x100 MSTORE PUSH3 0x31 SWAP1 PUSH1 0x9 SWAP1 PUSH1 0x5 PUSH3 0x1E8 JUMP JUMPDEST POP PUSH8 0x3782DACE9D90000 PUSH1 0xF SWAP1 DUP2 SSTORE PUSH8 0x6F05B59D3B20000 PUSH1 0x10 SSTORE PUSH8 0xA688906BD8B0000 PUSH1 0x11 SSTORE PUSH8 0xDE0B6B3A7640000 PUSH1 0x12 SSTORE PUSH8 0x1158E460913D0000 PUSH1 0x13 SSTORE PUSH1 0x40 DUP1 MLOAD PUSH1 0xA0 DUP2 ADD DUP3 MSTORE PUSH1 0x14 DUP1 DUP3 MSTORE PUSH1 0x28 PUSH1 0x20 DUP4 ADD DUP2 SWAP1 MSTORE SWAP3 DUP3 ADD DUP5 SWAP1 MSTORE PUSH1 0x60 DUP3 ADD DUP5 SWAP1 MSTORE PUSH1 0xA PUSH1 0x80 SWAP1 SWAP3 ADD DUP3 SWAP1 MSTORE PUSH1 0x1B SSTORE PUSH1 0x1C SWAP2 SWAP1 SWAP2 SSTORE PUSH1 0x1D DUP3 SWAP1 SSTORE PUSH1 0x1E SWAP2 SWAP1 SWAP2 SSTORE PUSH1 0x1F SSTORE CALLVALUE DUP1 ISZERO PUSH3 0xC3 JUMPI PUSH1 0x0 DUP1 REVERT JUMPDEST POP PUSH1 0x40 MLOAD PUSH3 0x3B99 CODESIZE SUB DUP1 PUSH3 0x3B99 DUP4 CODECOPY DUP2 ADD PUSH1 0x40 DUP2 SWAP1 MSTORE PUSH3 0xE6 SWAP2 PUSH3 0x254 JUMP JUMPDEST PUSH1 0x40 MLOAD DUP1 PUSH1 0x40 ADD PUSH1 0x40 MSTORE DUP1 PUSH1 0xF DUP2 MSTORE PUSH1 0x20 ADD PUSH15 0x26B2B230B6399037B3102437B737B9 PUSH1 0x89 SHL DUP2 MSTORE POP PUSH1 0x40 MLOAD DUP1 PUSH1 0x40 ADD PUSH1 0x40 MSTORE DUP1 PUSH1 0x3 DUP2 MSTORE PUSH1 0x20 ADD PUSH3 0x9A9E9 PUSH1 0xEB SHL DUP2 MSTORE POP DUP2 PUSH1 0x0 SWAP1 DUP2 PUSH3 0x13B SWAP2 SWAP1 PUSH3 0x32B JUMP JUMPDEST POP PUSH1 0x1 PUSH3 0x14A DUP3 DUP3 PUSH3 0x32B JUMP JUMPDEST POP POP POP PUSH3 0x167 PUSH3 0x161 PUSH3 0x192 PUSH1 0x20 SHL PUSH1 0x20 SHR JUMP JUMPDEST PUSH3 0x196 JUMP JUMPDEST PUSH1 0x1 PUSH1 0x8 SSTORE PUSH1 0xA DUP1 SLOAD PUSH1 0x1 PUSH1 0x1 PUSH1 0xA0 SHL SUB NOT AND PUSH1 0x1 PUSH1 0x1 PUSH1 0xA0 SHL SUB SWAP3 SWAP1 SWAP3 AND SWAP2 SWAP1 SWAP2 OR SWAP1 SSTORE PUSH3 0x3F7 JUMP JUMPDEST CALLER SWAP1 JUMP JUMPDEST PUSH1 0x7 DUP1 SLOAD PUSH1 0x1 PUSH1 0x1 PUSH1 0xA0 SHL SUB DUP4 DUP2 AND PUSH1 0x1 PUSH1 0x1 PUSH1 0xA0 SHL SUB NOT DUP4 AND DUP2 OR SWAP1 SWAP4 SSTORE PUSH1 0x40 MLOAD SWAP2 AND SWAP2 SWAP1 DUP3 SWAP1 PUSH32 0x8BE0079C531659141344CD1FD0A4F28419497F9722A3DAAFE3B4186F6B6457E0 SWAP1 PUSH1 0x0 SWAP1 LOG3 POP POP JUMP JUMPDEST DUP3 DUP1 SLOAD DUP3 DUP3 SSTORE SWAP1 PUSH1 0x0 MSTORE PUSH1 0x20 PUSH1 0x0 KECCAK256 SWAP1 DUP2 ADD SWAP3 DUP3 ISZERO PUSH3 0x22B JUMPI SWAP2 PUSH1 0x20 MUL DUP3 ADD JUMPDEST DUP3 DUP2 GT ISZERO PUSH3 0x22B JUMPI DUP3 MLOAD DUP3 SWAP1 PUSH1 0xFF AND SWAP1 SSTORE SWAP2 PUSH1 0x20 ADD SWAP2 SWAP1 PUSH1 0x1 ADD SWAP1 PUSH3 0x209 JUMP JUMPDEST POP PUSH3 0x239 SWAP3 SWAP2 POP PUSH3 0x23D JUMP JUMPDEST POP SWAP1 JUMP JUMPDEST JUMPDEST DUP1 DUP3 GT ISZERO PUSH3 0x239 JUMPI PUSH1 0x0 DUP2 SSTORE PUSH1 0x1 ADD PUSH3 0x23E JUMP JUMPDEST PUSH1 0x0 PUSH1 0x20 DUP3 DUP5 SUB SLT ISZERO PUSH3 0x267 JUMPI PUSH1 0x0 DUP1 REVERT JUMPDEST DUP2 MLOAD PUSH1 0x1 PUSH1 0x1 PUSH1 0xA0 SHL SUB DUP2 AND DUP2 EQ PUSH3 0x27F JUMPI PUSH1 0x0 DUP1 REVERT JUMPDEST SWAP4 SWAP3 POP POP POP JUMP JUMPDEST PUSH4 0x4E487B71 PUSH1 0xE0 SHL PUSH1 0x0 MSTORE PUSH1 0x41 PUSH1 0x4 MSTORE PUSH1 0x24 PUSH1 0x0 REVERT JUMPDEST PUSH1 0x1 DUP2 DUP2 SHR SWAP1 DUP3 AND DUP1 PUSH3 0x2B1 JUMPI PUSH1 0x7F DUP3 AND SWAP2 POP JUMPDEST PUSH1 0x20 DUP3 LT DUP2 SUB PUSH3 0x2D2 JUMPI PUSH4 0x4E487B71 PUSH1 0xE0 SHL PUSH1 0x0 MSTORE PUSH1 0x22 PUSH1 0x4 MSTORE PUSH1 0x24 PUSH1 0x0 REVERT JUMPDEST POP SWAP2 SWAP1 POP JUMP JUMPDEST PUSH1 0x1F DUP3 GT ISZERO PUSH3 0x326 JUMPI PUSH1 0x0 DUP2 DUP2 MSTORE PUSH1 0x20 DUP2 KECCAK256 PUSH1 0x1F DUP6 ADD PUSH1 0x5 SHR DUP2 ADD PUSH1 0x20 DUP7 LT ISZERO PUSH3 0x301 JUMPI POP DUP1 JUMPDEST PUSH1 0x1F DUP6 ADD PUSH1 0x5 SHR DUP3 ADD SWAP2 POP JUMPDEST DUP2 DUP2 LT ISZERO PUSH3 0x322 JUMPI DUP3 DUP2 SSTORE PUSH1 0x1 ADD PUSH3 0x30D JUMP JUMPDEST POP POP POP JUMPDEST POP POP POP JUMP JUMPDEST DUP2 MLOAD PUSH1 0x1 PUSH1 0x1 PUSH1 0x40 SHL SUB DUP2 GT ISZERO PUSH3 0x347 JUMPI PUSH3 0x347 PUSH3 0x286 JUMP JUMPDEST PUSH3 0x35F DUP2 PUSH3 0x358 DUP5 SLOAD PUSH3 0x29C JUMP JUMPDEST DUP5 PUSH3 0x2D8 JUMP JUMPDEST PUSH1 0x20 DUP1 PUSH1 0x1F DUP4 GT PUSH1 0x1 DUP2 EQ PUSH3 0x397 JUMPI PUSH1 0x0 DUP5 ISZERO PUSH3 0x37E JUMPI POP DUP6 DUP4 ADD MLOAD JUMPDEST PUSH1 0x0 NOT PUSH1 0x3 DUP7 SWAP1 SHL SHR NOT AND PUSH1 0x1 DUP6 SWAP1 SHL OR DUP6 SSTORE PUSH3 0x322 JUMP JUMPDEST PUSH1 0x0 DUP6 DUP2 MSTORE PUSH1 0x20 DUP2 KECCAK256 PUSH1 0x1F NOT DUP7 AND SWAP2 JUMPDEST DUP3 DUP2 LT ISZERO PUSH3 0x3C8 JUMPI DUP9 DUP7 ADD MLOAD DUP3 SSTORE SWAP5 DUP5 ADD SWAP5 PUSH1 0x1 SWAP1 SWAP2 ADD SWAP1 DUP5 ADD PUSH3 0x3A7 JUMP JUMPDEST POP DUP6 DUP3 LT ISZERO PUSH3 0x3E7 JUMPI DUP8 DUP6 ADD MLOAD PUSH1 0x0 NOT PUSH1 0x3 DUP9 SWAP1 SHL PUSH1 0xF8 AND SHR NOT AND DUP2 SSTORE JUMPDEST POP POP POP POP POP PUSH1 0x1 SWAP1 DUP2 SHL ADD SWAP1 SSTORE POP JUMP JUMPDEST PUSH2 0x3792 DUP1 PUSH3 0x407 PUSH1 0x0 CODECOPY PUSH1 0x0 RETURN INVALID PUSH1 0x80 PUSH1 0x40 MSTORE PUSH1 0x4 CALLDATASIZE LT PUSH2 0x335 JUMPI PUSH1 0x0 CALLDATALOAD PUSH1 0xE0 SHR DUP1 PUSH4 0x715018A6 GT PUSH2 0x1AB JUMPI DUP1 PUSH4 0xA22CB465 GT PUSH2 0xF7 JUMPI DUP1 PUSH4 0xC87B56DD GT PUSH2 0x95 JUMPI DUP1 PUSH4 0xF2FDE38B GT PUSH2 0x6F JUMPI DUP1 PUSH4 0xF2FDE38B EQ PUSH2 0x962 JUMPI DUP1 PUSH4 0xF7EE7A43 EQ PUSH2 0x982 JUMPI DUP1 PUSH4 0xFC293C97 EQ PUSH2 0x999 JUMPI DUP1 PUSH4 0xFED478BC EQ PUSH2 0x9AC JUMPI PUSH1 0x0 DUP1 REVERT JUMPDEST DUP1 PUSH4 0xC87B56DD EQ PUSH2 0x8E6 JUMPI DUP1 PUSH4 0xD3043F53 EQ PUSH2 0x906 JUMPI DUP1 PUSH4 0xE985E9C5 EQ PUSH2 0x919 JUMPI PUSH1 0x0 DUP1 REVERT JUMPDEST DUP1 PUSH4 0xADA0C98F GT PUSH2 0xD1 JUMPI DUP1 PUSH4 0xADA0C98F EQ PUSH2 0x871 JUMPI DUP1 PUSH4 0xB88D4FDE EQ PUSH2 0x886 JUMPI DUP1 PUSH4 0xC1E2C21C EQ PUSH2 0x8A6 JUMPI DUP1 PUSH4 0xC2F16818 EQ PUSH2 0x8C6 JUMPI PUSH1 0x0 DUP1 REVERT JUMPDEST DUP1 PUSH4 0xA22CB465 EQ PUSH2 0x81B JUMPI DUP1 PUSH4 0xA3F568C6 EQ PUSH2 0x83B JUMPI DUP1 PUSH4 0xA6921706 EQ PUSH2 0x851 JUMPI PUSH1 0x0 DUP1 REVERT JUMPDEST DUP1 PUSH4 0x88BE7347 GT PUSH2 0x164 JUMPI DUP1 PUSH4 0x911D99FF GT PUSH2 0x13E JUMPI DUP1 PUSH4 0x911D99FF EQ PUSH2 0x7BB JUMPI DUP1 PUSH4 0x95D89B41 EQ PUSH2 0x7DB JUMPI DUP1 PUSH4 0x97D0F71F EQ PUSH2 0x7F0 JUMPI DUP1 PUSH4 0x9E9DB57D EQ PUSH2 0x805 JUMPI PUSH1 0x0 DUP1 REVERT JUMPDEST DUP1 PUSH4 0x88BE7347 EQ PUSH2 0x767 JUMPI DUP1 PUSH4 0x8D32895C EQ PUSH2 0x787 JUMPI DUP1 PUSH4 0x8DA5CB5B EQ PUSH2 0x79D JUMPI PUSH1 0x0 DUP1 REVERT JUMPDEST DUP1 PUSH4 0x715018A6 EQ PUSH2 0x6BD JUMPI DUP1 PUSH4 0x75F0A874 EQ PUSH2 0x6D2 JUMPI DUP1 PUSH4 0x7863E8BD EQ PUSH2 0x6F2 JUMPI DUP1 PUSH4 0x82CF91B1 EQ PUSH2 0x712 JUMPI DUP1 PUSH4 0x83A30DA4 EQ PUSH2 0x727 JUMPI DUP1 PUSH4 0x83E06EAD EQ PUSH2 0x747 JUMPI PUSH1 0x0 DUP1 REVERT JUMPDEST DUP1 PUSH4 0x35AA9FB9 GT PUSH2 0x285 JUMPI DUP1 PUSH4 0x6352211E GT PUSH2 0x223 JUMPI DUP1 PUSH4 0x6AB65915 GT PUSH2 0x1FD JUMPI DUP1 PUSH4 0x6AB65915 EQ PUSH2 0x513 JUMPI DUP1 PUSH4 0x6BC15B9B EQ PUSH2 0x62E JUMPI DUP1 PUSH4 0x70A08231 EQ PUSH2 0x67D JUMPI DUP1 PUSH4 0x71491632 EQ PUSH2 0x69D JUMPI PUSH1 0x0 DUP1 REVERT JUMPDEST DUP1 PUSH4 0x6352211E EQ PUSH2 0x5DB JUMPI DUP1 PUSH4 0x651D64B7 EQ PUSH2 0x5FB JUMPI DUP1 PUSH4 0x660E01E8 EQ PUSH2 0x60E JUMPI PUSH1 0x0 DUP1 REVERT JUMPDEST DUP1 PUSH4 0x3F2AD2E3 GT PUSH2 0x25F JUMPI DUP1 PUSH4 0x3F2AD2E3 EQ PUSH2 0x568 JUMPI DUP1 PUSH4 0x42842E0E EQ PUSH2 0x588 JUMPI DUP1 PUSH4 0x46C414D6 EQ PUSH2 0x5A8 JUMPI DUP1 PUSH4 0x59927044 EQ PUSH2 0x5BB JUMPI PUSH1 0x0 DUP1 REVERT JUMPDEST DUP1 PUSH4 0x35AA9FB9 EQ PUSH2 0x513 JUMPI DUP1 PUSH4 0x3617D992 EQ PUSH2 0x528 JUMPI DUP1 PUSH4 0x3F104C7F EQ PUSH2 0x548 JUMPI PUSH1 0x0 DUP1 REVERT JUMPDEST DUP1 PUSH4 0xA11A4AD GT PUSH2 0x2F2 JUMPI DUP1 PUSH4 0x27182D69 GT PUSH2 0x2CC JUMPI DUP1 PUSH4 0x27182D69 EQ PUSH2 0x499 JUMPI DUP1 PUSH4 0x29048248 EQ PUSH2 0x4B9 JUMPI DUP1 PUSH4 0x2B9C36F2 EQ PUSH2 0x4D9 JUMPI DUP1 PUSH4 0x34D50BFC EQ PUSH2 0x4FD JUMPI PUSH1 0x0 DUP1 REVERT JUMPDEST DUP1 PUSH4 0xA11A4AD EQ PUSH2 0x42B JUMPI DUP1 PUSH4 0x22976837 EQ PUSH2 0x44B JUMPI DUP1 PUSH4 0x23B872DD EQ PUSH2 0x479 JUMPI PUSH1 0x0 DUP1 REVERT JUMPDEST DUP1 PUSH4 0x1FFC9A7 EQ PUSH2 0x33A JUMPI DUP1 PUSH4 0x342F54B EQ PUSH2 0x36F JUMPI DUP1 PUSH4 0x6FDDE03 EQ PUSH2 0x391 JUMPI DUP1 PUSH4 0x81812FC EQ PUSH2 0x3B3 JUMPI DUP1 PUSH4 0x8F6F82F EQ PUSH2 0x3EB JUMPI DUP1 PUSH4 0x95EA7B3 EQ PUSH2 0x40B JUMPI JUMPDEST PUSH1 0x0 DUP1 REVERT JUMPDEST CALLVALUE DUP1 ISZERO PUSH2 0x346 JUMPI PUSH1 0x0 DUP1 REVERT JUMPDEST POP PUSH2 0x35A PUSH2 0x355 CALLDATASIZE PUSH1 0x4 PUSH2 0x2F84 JUMP JUMPDEST PUSH2 0x9BF JUMP JUMPDEST PUSH1 0x40 MLOAD SWAP1 ISZERO ISZERO DUP2 MSTORE PUSH1 0x20 ADD JUMPDEST PUSH1 0x40 MLOAD DUP1 SWAP2 SUB SWAP1 RETURN JUMPDEST CALLVALUE DUP1 ISZERO PUSH2 0x37B JUMPI PUSH1 0x0 DUP1 REVERT JUMPDEST POP PUSH2 0x38F PUSH2 0x38A CALLDATASIZE PUSH1 0x4 PUSH2 0x2FA1 JUMP JUMPDEST PUSH2 0xA11 JUMP JUMPDEST STOP JUMPDEST CALLVALUE DUP1 ISZERO PUSH2 0x39D JUMPI PUSH1 0x0 DUP1 REVERT JUMPDEST POP PUSH2 0x3A6 PUSH2 0xA3D JUMP JUMPDEST PUSH1 0x40 MLOAD PUSH2 0x366 SWAP2 SWAP1 PUSH2 0x300A JUMP JUMPDEST CALLVALUE DUP1 ISZERO PUSH2 0x3BF JUMPI PUSH1 0x0 DUP1 REVERT JUMPDEST POP PUSH2 0x3D3 PUSH2 0x3CE CALLDATASIZE PUSH1 0x4 PUSH2 0x2FA1 JUMP JUMPDEST PUSH2 0xACF JUMP JUMPDEST PUSH1 0x40 MLOAD PUSH1 0x1 PUSH1 0x1 PUSH1 0xA0 SHL SUB SWAP1 SWAP2 AND DUP2 MSTORE PUSH1 0x20 ADD PUSH2 0x366 JUMP JUMPDEST CALLVALUE DUP1 ISZERO PUSH2 0x3F7 JUMPI PUSH1 0x0 DUP1 REVERT JUMPDEST POP PUSH2 0x38F PUSH2 0x406 CALLDATASIZE PUSH1 0x4 PUSH2 0x2FA1 JUMP JUMPDEST PUSH2 0xAF6 JUMP JUMPDEST CALLVALUE DUP1 ISZERO PUSH2 0x417 JUMPI PUSH1 0x0 DUP1 REVERT JUMPDEST POP PUSH2 0x38F PUSH2 0x426 CALLDATASIZE PUSH1 0x4 PUSH2 0x3032 JUMP JUMPDEST PUSH2 0xB03 JUMP JUMPDEST CALLVALUE DUP1 ISZERO PUSH2 0x437 JUMPI PUSH1 0x0 DUP1 REVERT JUMPDEST POP PUSH2 0x38F PUSH2 0x446 CALLDATASIZE PUSH1 0x4 PUSH2 0x2FA1 JUMP JUMPDEST PUSH2 0xC1D JUMP JUMPDEST CALLVALUE DUP1 ISZERO PUSH2 0x457 JUMPI PUSH1 0x0 DUP1 REVERT JUMPDEST POP PUSH2 0x46B PUSH2 0x466 CALLDATASIZE PUSH1 0x4 PUSH2 0x305E JUMP JUMPDEST PUSH2 0xC3A JUMP JUMPDEST PUSH1 0x40 MLOAD PUSH2 0x366 SWAP3 SWAP2 SWAP1 PUSH2 0x307B JUMP JUMPDEST CALLVALUE DUP1 ISZERO PUSH2 0x485 JUMPI PUSH1 0x0 DUP1 REVERT JUMPDEST POP PUSH2 0x38F PUSH2 0x494 CALLDATASIZE PUSH1 0x4 PUSH2 0x309D JUMP JUMPDEST PUSH2 0xE53 JUMP JUMPDEST CALLVALUE DUP1 ISZERO PUSH2 0x4A5 JUMPI PUSH1 0x0 DUP1 REVERT JUMPDEST POP PUSH2 0x38F PUSH2 0x4B4 CALLDATASIZE PUSH1 0x4 PUSH2 0x2FA1 JUMP JUMPDEST PUSH2 0xE84 JUMP JUMPDEST CALLVALUE DUP1 ISZERO PUSH2 0x4C5 JUMPI PUSH1 0x0 DUP1 REVERT JUMPDEST POP PUSH2 0x38F PUSH2 0x4D4 CALLDATASIZE PUSH1 0x4 PUSH2 0x30DE JUMP JUMPDEST PUSH2 0xE91 JUMP JUMPDEST CALLVALUE DUP1 ISZERO PUSH2 0x4E5 JUMPI PUSH1 0x0 DUP1 REVERT JUMPDEST POP PUSH2 0x4EF PUSH1 0x10 SLOAD DUP2 JUMP JUMPDEST PUSH1 0x40 MLOAD SWAP1 DUP2 MSTORE PUSH1 0x20 ADD PUSH2 0x366 JUMP JUMPDEST CALLVALUE DUP1 ISZERO PUSH2 0x509 JUMPI PUSH1 0x0 DUP1 REVERT JUMPDEST POP PUSH2 0x4EF PUSH1 0x13 SLOAD DUP2 JUMP JUMPDEST CALLVALUE DUP1 ISZERO PUSH2 0x51F JUMPI PUSH1 0x0 DUP1 REVERT JUMPDEST POP PUSH2 0x4EF PUSH1 0x28 DUP2 JUMP JUMPDEST CALLVALUE DUP1 ISZERO PUSH2 0x534 JUMPI PUSH1 0x0 DUP1 REVERT JUMPDEST POP PUSH2 0x38F PUSH2 0x543 CALLDATASIZE PUSH1 0x4 PUSH2 0x2FA1 JUMP JUMPDEST PUSH2 0xEF8 JUMP JUMPDEST CALLVALUE DUP1 ISZERO PUSH2 0x554 JUMPI PUSH1 0x0 DUP1 REVERT JUMPDEST POP PUSH1 0xD SLOAD PUSH2 0x3D3 SWAP1 PUSH1 0x1 PUSH1 0x1 PUSH1 0xA0 SHL SUB AND DUP2 JUMP JUMPDEST CALLVALUE DUP1 ISZERO PUSH2 0x574 JUMPI PUSH1 0x0 DUP1 REVERT JUMPDEST POP PUSH2 0x3A6 PUSH2 0x583 CALLDATASIZE PUSH1 0x4 PUSH2 0x2FA1 JUMP JUMPDEST PUSH2 0xF15 JUMP JUMPDEST CALLVALUE DUP1 ISZERO PUSH2 0x594 JUMPI PUSH1 0x0 DUP1 REVERT JUMPDEST POP PUSH2 0x38F PUSH2 0x5A3 CALLDATASIZE PUSH1 0x4 PUSH2 0x309D JUMP JUMPDEST PUSH2 0x1011 JUMP JUMPDEST PUSH2 0x38F PUSH2 0x5B6 CALLDATASIZE PUSH1 0x4 PUSH2 0x31DB JUMP JUMPDEST PUSH2 0x102C JUMP JUMPDEST CALLVALUE DUP1 ISZERO PUSH2 0x5C7 JUMPI PUSH1 0x0 DUP1 REVERT JUMPDEST POP PUSH1 0xE SLOAD PUSH2 0x3D3 SWAP1 PUSH1 0x1 PUSH1 0x1 PUSH1 0xA0 SHL SUB AND DUP2 JUMP JUMPDEST CALLVALUE DUP1 ISZERO PUSH2 0x5E7 JUMPI PUSH1 0x0 DUP1 REVERT JUMPDEST POP PUSH2 0x3D3 PUSH2 0x5F6 CALLDATASIZE PUSH1 0x4 PUSH2 0x2FA1 JUMP JUMPDEST PUSH2 0x12DB JUMP JUMPDEST PUSH2 0x38F PUSH2 0x609 CALLDATASIZE PUSH1 0x4 PUSH2 0x31DB JUMP JUMPDEST PUSH2 0x133B JUMP JUMPDEST CALLVALUE DUP1 ISZERO PUSH2 0x61A JUMPI PUSH1 0x0 DUP1 REVERT JUMPDEST POP PUSH2 0x38F PUSH2 0x629 CALLDATASIZE PUSH1 0x4 PUSH2 0x2FA1 JUMP JUMPDEST PUSH2 0x166A JUMP JUMPDEST CALLVALUE DUP1 ISZERO PUSH2 0x63A JUMPI PUSH1 0x0 DUP1 REVERT JUMPDEST POP PUSH1 0x1B SLOAD PUSH1 0x1C SLOAD PUSH1 0x1D SLOAD PUSH1 0x1E SLOAD PUSH1 0x1F SLOAD PUSH2 0x655 SWAP5 SWAP4 SWAP3 SWAP2 SWAP1 DUP6 JUMP JUMPDEST PUSH1 0x40 DUP1 MLOAD SWAP6 DUP7 MSTORE PUSH1 0x20 DUP7 ADD SWAP5 SWAP1 SWAP5 MSTORE SWAP3 DUP5 ADD SWAP2 SWAP1 SWAP2 MSTORE PUSH1 0x60 DUP4 ADD MSTORE PUSH1 0x80 DUP3 ADD MSTORE PUSH1 0xA0 ADD PUSH2 0x366 JUMP JUMPDEST CALLVALUE DUP1 ISZERO PUSH2 0x689 JUMPI PUSH1 0x0 DUP1 REVERT JUMPDEST POP PUSH2 0x4EF PUSH2 0x698 CALLDATASIZE PUSH1 0x4 PUSH2 0x305E JUMP JUMPDEST PUSH2 0x1677 JUMP JUMPDEST CALLVALUE DUP1 ISZERO PUSH2 0x6A9 JUMPI PUSH1 0x0 DUP1 REVERT JUMPDEST POP PUSH1 0xA SLOAD PUSH2 0x3D3 SWAP1 PUSH1 0x1 PUSH1 0x1 PUSH1 0xA0 SHL SUB AND DUP2 JUMP JUMPDEST CALLVALUE DUP1 ISZERO PUSH2 0x6C9 JUMPI PUSH1 0x0 DUP1 REVERT JUMPDEST POP PUSH2 0x38F PUSH2 0x16FD JUMP JUMPDEST CALLVALUE DUP1 ISZERO PUSH2 0x6DE JUMPI PUSH1 0x0 DUP1 REVERT JUMPDEST POP PUSH1 0xC SLOAD PUSH2 0x3D3 SWAP1 PUSH1 0x1 PUSH1 0x1 PUSH1 0xA0 SHL SUB AND DUP2 JUMP JUMPDEST CALLVALUE DUP1 ISZERO PUSH2 0x6FE JUMPI PUSH1 0x0 DUP1 REVERT JUMPDEST POP PUSH2 0x38F PUSH2 0x70D CALLDATASIZE PUSH1 0x4 PUSH2 0x2FA1 JUMP JUMPDEST PUSH2 0x1711 JUMP JUMPDEST CALLVALUE DUP1 ISZERO PUSH2 0x71E JUMPI PUSH1 0x0 DUP1 REVERT JUMPDEST POP PUSH2 0x4EF PUSH1 0x64 DUP2 JUMP JUMPDEST CALLVALUE DUP1 ISZERO PUSH2 0x733 JUMPI PUSH1 0x0 DUP1 REVERT JUMPDEST POP PUSH1 0xB SLOAD PUSH2 0x3D3 SWAP1 PUSH1 0x1 PUSH1 0x1 PUSH1 0xA0 SHL SUB AND DUP2 JUMP JUMPDEST CALLVALUE DUP1 ISZERO PUSH2 0x753 JUMPI PUSH1 0x0 DUP1 REVERT JUMPDEST POP PUSH2 0x38F PUSH2 0x762 CALLDATASIZE PUSH1 0x4 PUSH2 0x3224 JUMP JUMPDEST PUSH2 0x172E JUMP JUMPDEST CALLVALUE DUP1 ISZERO PUSH2 0x773 JUMPI PUSH1 0x0 DUP1 REVERT JUMPDEST POP PUSH2 0x38F PUSH2 0x782 CALLDATASIZE PUSH1 0x4 PUSH2 0x2FA1 JUMP JUMPDEST PUSH2 0x17F4 JUMP JUMPDEST CALLVALUE DUP1 ISZERO PUSH2 0x793 JUMPI PUSH1 0x0 DUP1 REVERT JUMPDEST POP PUSH2 0x4EF PUSH1 0xF SLOAD DUP2 JUMP JUMPDEST CALLVALUE DUP1 ISZERO PUSH2 0x7A9 JUMPI PUSH1 0x0 DUP1 REVERT JUMPDEST POP PUSH1 0x7 SLOAD PUSH1 0x1 PUSH1 0x1 PUSH1 0xA0 SHL SUB AND PUSH2 0x3D3 JUMP JUMPDEST CALLVALUE DUP1 ISZERO PUSH2 0x7C7 JUMPI PUSH1 0x0 DUP1 REVERT JUMPDEST POP PUSH2 0x38F PUSH2 0x7D6 CALLDATASIZE PUSH1 0x4 PUSH2 0x2FA1 JUMP JUMPDEST PUSH2 0x1801 JUMP JUMPDEST CALLVALUE DUP1 ISZERO PUSH2 0x7E7 JUMPI PUSH1 0x0 DUP1 REVERT JUMPDEST POP PUSH2 0x3A6 PUSH2 0x180E JUMP JUMPDEST CALLVALUE DUP1 ISZERO PUSH2 0x7FC JUMPI PUSH1 0x0 DUP1 REVERT JUMPDEST POP PUSH2 0x4EF PUSH1 0x50 DUP2 JUMP JUMPDEST CALLVALUE DUP1 ISZERO PUSH2 0x811 JUMPI PUSH1 0x0 DUP1 REVERT JUMPDEST POP PUSH2 0x4EF PUSH1 0x12 SLOAD DUP2 JUMP JUMPDEST CALLVALUE DUP1 ISZERO PUSH2 0x827 JUMPI PUSH1 0x0 DUP1 REVERT JUMPDEST POP PUSH2 0x38F PUSH2 0x836 CALLDATASIZE PUSH1 0x4 PUSH2 0x325F JUMP JUMPDEST PUSH2 0x181D JUMP JUMPDEST CALLVALUE DUP1 ISZERO PUSH2 0x847 JUMPI PUSH1 0x0 DUP1 REVERT JUMPDEST POP PUSH2 0x4EF PUSH1 0x11 SLOAD DUP2 JUMP JUMPDEST CALLVALUE DUP1 ISZERO PUSH2 0x85D JUMPI PUSH1 0x0 DUP1 REVERT JUMPDEST POP PUSH2 0x38F PUSH2 0x86C CALLDATASIZE PUSH1 0x4 PUSH2 0x2FA1 JUMP JUMPDEST PUSH2 0x1828 JUMP JUMPDEST CALLVALUE DUP1 ISZERO PUSH2 0x87D JUMPI PUSH1 0x0 DUP1 REVERT JUMPDEST POP PUSH2 0x4EF PUSH1 0x3C DUP2 JUMP JUMPDEST CALLVALUE DUP1 ISZERO PUSH2 0x892 JUMPI PUSH1 0x0 DUP1 REVERT JUMPDEST POP PUSH2 0x38F PUSH2 0x8A1 CALLDATASIZE PUSH1 0x4 PUSH2 0x329D JUMP JUMPDEST PUSH2 0x1845 JUMP JUMPDEST CALLVALUE DUP1 ISZERO PUSH2 0x8B2 JUMPI PUSH1 0x0 DUP1 REVERT JUMPDEST POP PUSH2 0x4EF PUSH2 0x8C1 CALLDATASIZE PUSH1 0x4 PUSH2 0x2FA1 JUMP JUMPDEST PUSH2 0x1877 JUMP JUMPDEST CALLVALUE DUP1 ISZERO PUSH2 0x8D2 JUMPI PUSH1 0x0 DUP1 REVERT JUMPDEST POP PUSH2 0x4EF PUSH2 0x8E1 CALLDATASIZE PUSH1 0x4 PUSH2 0x3032 JUMP JUMPDEST PUSH2 0x1898 JUMP JUMPDEST CALLVALUE DUP1 ISZERO PUSH2 0x8F2 JUMPI PUSH1 0x0 DUP1 REVERT JUMPDEST POP PUSH2 0x3A6 PUSH2 0x901 CALLDATASIZE PUSH1 0x4 PUSH2 0x2FA1 JUMP JUMPDEST PUSH2 0x19D8 JUMP JUMPDEST PUSH2 0x38F PUSH2 0x914 CALLDATASIZE PUSH1 0x4 PUSH2 0x31DB JUMP JUMPDEST PUSH2 0x1AE0 JUMP JUMPDEST CALLVALUE DUP1 ISZERO PUSH2 0x925 JUMPI PUSH1 0x0 DUP1 REVERT JUMPDEST POP PUSH2 0x35A PUSH2 0x934 CALLDATASIZE PUSH1 0x4 PUSH2 0x331D JUMP JUMPDEST PUSH1 0x1 PUSH1 0x1 PUSH1 0xA0 SHL SUB SWAP2 DUP3 AND PUSH1 0x0 SWAP1 DUP2 MSTORE PUSH1 0x5 PUSH1 0x20 SWAP1 DUP2 MSTORE PUSH1 0x40 DUP1 DUP4 KECCAK256 SWAP4 SWAP1 SWAP5 AND DUP3 MSTORE SWAP2 SWAP1 SWAP2 MSTORE KECCAK256 SLOAD PUSH1 0xFF AND SWAP1 JUMP JUMPDEST CALLVALUE DUP1 ISZERO PUSH2 0x96E JUMPI PUSH1 0x0 DUP1 REVERT JUMPDEST POP PUSH2 0x38F PUSH2 0x97D CALLDATASIZE PUSH1 0x4 PUSH2 0x305E JUMP JUMPDEST PUSH2 0x1D58 JUMP JUMPDEST CALLVALUE DUP1 ISZERO PUSH2 0x98E JUMPI PUSH1 0x0 DUP1 REVERT JUMPDEST POP PUSH2 0x4EF PUSH3 0x278D00 DUP2 JUMP JUMPDEST PUSH2 0x38F PUSH2 0x9A7 CALLDATASIZE PUSH1 0x4 PUSH2 0x31DB JUMP JUMPDEST PUSH2 0x1DD1 JUMP JUMPDEST PUSH2 0x38F PUSH2 0x9BA CALLDATASIZE PUSH1 0x4 PUSH2 0x31DB JUMP JUMPDEST PUSH2 0x20CA JUMP JUMPDEST PUSH1 0x0 PUSH1 0x1 PUSH1 0x1 PUSH1 0xE0 SHL SUB NOT DUP3 AND PUSH4 0x80AC58CD PUSH1 0xE0 SHL EQ DUP1 PUSH2 0x9F0 JUMPI POP PUSH1 0x1 PUSH1 0x1 PUSH1 0xE0 SHL SUB NOT DUP3 AND PUSH4 0x5B5E139F PUSH1 0xE0 SHL EQ JUMPDEST DUP1 PUSH2 0xA0B JUMPI POP PUSH4 0x1FFC9A7 PUSH1 0xE0 SHL PUSH1 0x1 PUSH1 0x1 PUSH1 0xE0 SHL SUB NOT DUP4 AND EQ JUMPDEST SWAP3 SWAP2 POP POP JUMP JUMPDEST PUSH2 0xA19 PUSH2 0x23A0 JUMP JUMPDEST DUP1 PUSH1 0x9 PUSH1 0x3 DUP2 SLOAD DUP2 LT PUSH2 0xA2E JUMPI PUSH2 0xA2E PUSH2 0x334B JUMP JUMPDEST PUSH1 0x0 SWAP2 DUP3 MSTORE PUSH1 0x20 SWAP1 SWAP2 KECCAK256 ADD SSTORE POP JUMP JUMPDEST PUSH1 0x60 PUSH1 0x0 DUP1 SLOAD PUSH2 0xA4C SWAP1 PUSH2 0x3361 JUMP JUMPDEST DUP1 PUSH1 0x1F ADD PUSH1 0x20 DUP1 SWAP2 DIV MUL PUSH1 0x20 ADD PUSH1 0x40 MLOAD SWAP1 DUP2 ADD PUSH1 0x40 MSTORE DUP1 SWAP3 SWAP2 SWAP1 DUP2 DUP2 MSTORE PUSH1 0x20 ADD DUP3 DUP1 SLOAD PUSH2 0xA78 SWAP1 PUSH2 0x3361 JUMP JUMPDEST DUP1 ISZERO PUSH2 0xAC5 JUMPI DUP1 PUSH1 0x1F LT PUSH2 0xA9A JUMPI PUSH2 0x100 DUP1 DUP4 SLOAD DIV MUL DUP4 MSTORE SWAP2 PUSH1 0x20 ADD SWAP2 PUSH2 0xAC5 JUMP JUMPDEST DUP3 ADD SWAP2 SWAP1 PUSH1 0x0 MSTORE PUSH1 0x20 PUSH1 0x0 KECCAK256 SWAP1 JUMPDEST DUP2 SLOAD DUP2 MSTORE SWAP1 PUSH1 0x1 ADD SWAP1 PUSH1 0x20 ADD DUP1 DUP4 GT PUSH2 0xAA8 JUMPI DUP3 SWAP1 SUB PUSH1 0x1F AND DUP3 ADD SWAP2 JUMPDEST POP POP POP POP POP SWAP1 POP SWAP1 JUMP JUMPDEST PUSH1 0x0 PUSH2 0xADA DUP3 PUSH2 0x23FA JUMP JUMPDEST POP PUSH1 0x0 SWAP1 DUP2 MSTORE PUSH1 0x4 PUSH1 0x20 MSTORE PUSH1 0x40 SWAP1 KECCAK256 SLOAD PUSH1 0x1 PUSH1 0x1 PUSH1 0xA0 SHL SUB AND SWAP1 JUMP JUMPDEST PUSH2 0xAFE PUSH2 0x23A0 JUMP JUMPDEST PUSH1 0x13 SSTORE JUMP JUMPDEST PUSH1 0x0 PUSH2 0xB0E DUP3 PUSH2 0x12DB JUMP JUMPDEST SWAP1 POP DUP1 PUSH1 0x1 PUSH1 0x1 PUSH1 0xA0 SHL SUB AND DUP4 PUSH1 0x1 PUSH1 0x1 PUSH1 0xA0 SHL SUB AND SUB PUSH2 0xB80 JUMPI PUSH1 0x40 MLOAD PUSH3 0x461BCD PUSH1 0xE5 SHL DUP2 MSTORE PUSH1 0x20 PUSH1 0x4 DUP3 ADD MSTORE PUSH1 0x21 PUSH1 0x24 DUP3 ADD MSTORE PUSH32 0x4552433732313A20617070726F76616C20746F2063757272656E74206F776E65 PUSH1 0x44 DUP3 ADD MSTORE PUSH1 0x39 PUSH1 0xF9 SHL PUSH1 0x64 DUP3 ADD MSTORE PUSH1 0x84 ADD JUMPDEST PUSH1 0x40 MLOAD DUP1 SWAP2 SUB SWAP1 REVERT JUMPDEST CALLER PUSH1 0x1 PUSH1 0x1 PUSH1 0xA0 SHL SUB DUP3 AND EQ DUP1 PUSH2 0xB9C JUMPI POP PUSH2 0xB9C DUP2 CALLER PUSH2 0x934 JUMP JUMPDEST PUSH2 0xC0E JUMPI PUSH1 0x40 MLOAD PUSH3 0x461BCD PUSH1 0xE5 SHL DUP2 MSTORE PUSH1 0x20 PUSH1 0x4 DUP3 ADD MSTORE PUSH1 0x3D PUSH1 0x24 DUP3 ADD MSTORE PUSH32 0x4552433732313A20617070726F76652063616C6C6572206973206E6F7420746F PUSH1 0x44 DUP3 ADD MSTORE PUSH32 0x6B656E206F776E6572206F7220617070726F76656420666F7220616C6C000000 PUSH1 0x64 DUP3 ADD MSTORE PUSH1 0x84 ADD PUSH2 0xB77 JUMP JUMPDEST PUSH2 0xC18 DUP4 DUP4 PUSH2 0x2459 JUMP JUMPDEST POP POP POP JUMP JUMPDEST PUSH2 0xC25 PUSH2 0x23A0 JUMP JUMPDEST DUP1 PUSH1 0x9 PUSH1 0x2 DUP2 SLOAD DUP2 LT PUSH2 0xA2E JUMPI PUSH2 0xA2E PUSH2 0x334B JUMP JUMPDEST PUSH1 0x60 PUSH1 0x0 DUP1 PUSH1 0x1 JUMPDEST PUSH1 0x5 DUP2 GT PUSH2 0xC9E JUMPI PUSH1 0x1 PUSH1 0x1 PUSH1 0xA0 SHL SUB DUP6 AND PUSH1 0x0 SWAP1 DUP2 MSTORE PUSH1 0x1A PUSH1 0x20 SWAP1 DUP2 MSTORE PUSH1 0x40 DUP1 DUP4 KECCAK256 DUP5 DUP5 MSTORE SWAP1 SWAP2 MSTORE SWAP1 KECCAK256 SLOAD TIMESTAMP SWAP1 PUSH2 0xC7E SWAP1 PUSH3 0x278D00 SWAP1 PUSH2 0x33B1 JUMP JUMPDEST GT ISZERO PUSH2 0xC8C JUMPI DUP1 SWAP2 POP PUSH2 0xC9E JUMP JUMPDEST DUP1 PUSH2 0xC96 DUP2 PUSH2 0x33C4 JUMP JUMPDEST SWAP2 POP POP PUSH2 0xC42 JUMP JUMPDEST POP DUP1 PUSH1 0x0 SUB PUSH2 0xCD2 JUMPI POP POP PUSH1 0x40 DUP1 MLOAD DUP1 DUP3 ADD SWAP1 SWAP2 MSTORE PUSH1 0x9 DUP2 MSTORE PUSH9 0x4C4547454E44415259 PUSH1 0xB8 SHL PUSH1 0x20 DUP3 ADD MSTORE SWAP3 PUSH1 0x0 SWAP3 POP SWAP1 POP JUMP JUMPDEST DUP1 PUSH1 0x1 SUB PUSH2 0xD36 JUMPI PUSH1 0x1 PUSH1 0x1 PUSH1 0xA0 SHL SUB DUP5 AND PUSH1 0x0 SWAP1 DUP2 MSTORE PUSH1 0x1A PUSH1 0x20 SWAP1 DUP2 MSTORE PUSH1 0x40 DUP1 DUP4 KECCAK256 PUSH1 0x1 DUP5 MSTORE SWAP1 SWAP2 MSTORE SWAP1 KECCAK256 SLOAD PUSH2 0xD0D SWAP1 PUSH3 0x278D00 SWAP1 PUSH2 0x33B1 JUMP JUMPDEST PUSH1 0x40 DUP1 MLOAD DUP1 DUP3 ADD SWAP1 SWAP2 MSTORE PUSH1 0x8 DUP2 MSTORE PUSH8 0x2AA721A7A6A6A7A7 PUSH1 0xC1 SHL PUSH1 0x20 DUP3 ADD MSTORE SWAP6 SWAP1 SWAP5 POP SWAP3 POP POP POP JUMP JUMPDEST DUP1 PUSH1 0x2 SUB PUSH2 0xD96 JUMPI PUSH1 0x1 PUSH1 0x1 PUSH1 0xA0 SHL SUB DUP5 AND PUSH1 0x0 SWAP1 DUP2 MSTORE PUSH1 0x1A PUSH1 0x20 SWAP1 DUP2 MSTORE PUSH1 0x40 DUP1 DUP4 KECCAK256 PUSH1 0x2 DUP5 MSTORE SWAP1 SWAP2 MSTORE SWAP1 KECCAK256 SLOAD PUSH2 0xD71 SWAP1 PUSH3 0x278D00 SWAP1 PUSH2 0x33B1 JUMP JUMPDEST PUSH1 0x40 DUP1 MLOAD DUP1 DUP3 ADD SWAP1 SWAP2 MSTORE PUSH1 0x4 DUP2 MSTORE PUSH4 0x52415245 PUSH1 0xE0 SHL PUSH1 0x20 DUP3 ADD MSTORE SWAP6 SWAP1 SWAP5 POP SWAP3 POP POP POP JUMP JUMPDEST DUP1 PUSH1 0x3 SUB PUSH2 0xDF6 JUMPI PUSH1 0x1 PUSH1 0x1 PUSH1 0xA0 SHL SUB DUP5 AND PUSH1 0x0 SWAP1 DUP2 MSTORE PUSH1 0x1A PUSH1 0x20 SWAP1 DUP2 MSTORE PUSH1 0x40 DUP1 DUP4 KECCAK256 PUSH1 0x3 DUP5 MSTORE SWAP1 SWAP2 MSTORE SWAP1 KECCAK256 SLOAD PUSH2 0xDD1 SWAP1 PUSH3 0x278D00 SWAP1 PUSH2 0x33B1 JUMP JUMPDEST PUSH1 0x40 DUP1 MLOAD DUP1 DUP3 ADD SWAP1 SWAP2 MSTORE PUSH1 0x4 DUP2 MSTORE PUSH4 0x45504943 PUSH1 0xE0 SHL PUSH1 0x20 DUP3 ADD MSTORE SWAP6 SWAP1 SWAP5 POP SWAP3 POP POP POP JUMP JUMPDEST PUSH1 0x1 PUSH1 0x1 PUSH1 0xA0 SHL SUB DUP5 AND PUSH1 0x0 SWAP1 DUP2 MSTORE PUSH1 0x1A PUSH1 0x20 SWAP1 DUP2 MSTORE PUSH1 0x40 DUP1 DUP4 KECCAK256 PUSH1 0x4 DUP5 MSTORE SWAP1 SWAP2 MSTORE SWAP1 KECCAK256 SLOAD PUSH2 0xE29 SWAP1 PUSH3 0x278D00 SWAP1 PUSH2 0x33B1 JUMP JUMPDEST PUSH1 0x40 DUP1 MLOAD DUP1 DUP3 ADD SWAP1 SWAP2 MSTORE PUSH1 0x9 DUP2 MSTORE PUSH9 0x4C4547454E44415259 PUSH1 0xB8 SHL PUSH1 0x20 DUP3 ADD MSTORE SWAP6 SWAP1 SWAP5 POP SWAP3 POP POP POP JUMP JUMPDEST PUSH2 0xE5D CALLER DUP3 PUSH2 0x24C7 JUMP JUMPDEST PUSH2 0xE79 JUMPI PUSH1 0x40 MLOAD PUSH3 0x461BCD PUSH1 0xE5 SHL DUP2 MSTORE PUSH1 0x4 ADD PUSH2 0xB77 SWAP1 PUSH2 0x33DD JUMP JUMPDEST PUSH2 0xC18 DUP4 DUP4 DUP4 PUSH2 0x2545 JUMP JUMPDEST PUSH2 0xE8C PUSH2 0x23A0 JUMP JUMPDEST PUSH1 0x10 SSTORE JUMP JUMPDEST PUSH2 0xE99 PUSH2 0x23A0 JUMP JUMPDEST PUSH1 0xA DUP1 SLOAD PUSH1 0x1 PUSH1 0x1 PUSH1 0xA0 SHL SUB NOT SWAP1 DUP2 AND PUSH1 0x1 PUSH1 0x1 PUSH1 0xA0 SHL SUB SWAP8 DUP9 AND OR SWAP1 SWAP2 SSTORE PUSH1 0xB DUP1 SLOAD DUP3 AND SWAP6 DUP8 AND SWAP6 SWAP1 SWAP6 OR SWAP1 SWAP5 SSTORE PUSH1 0xC DUP1 SLOAD DUP6 AND SWAP4 DUP7 AND SWAP4 SWAP1 SWAP4 OR SWAP1 SWAP3 SSTORE PUSH1 0xD DUP1 SLOAD DUP5 AND SWAP2 DUP6 AND SWAP2 SWAP1 SWAP2 OR SWAP1 SSTORE PUSH1 0xE DUP1 SLOAD SWAP1 SWAP3 AND SWAP3 AND SWAP2 SWAP1 SWAP2 OR SWAP1 SSTORE JUMP JUMPDEST PUSH2 0xF00 PUSH2 0x23A0 JUMP JUMPDEST DUP1 PUSH1 0x9 PUSH1 0x5 DUP2 SLOAD DUP2 LT PUSH2 0xA2E JUMPI PUSH2 0xA2E PUSH2 0x334B JUMP JUMPDEST PUSH1 0x0 DUP2 DUP2 MSTORE PUSH1 0x2 PUSH1 0x20 MSTORE PUSH1 0x40 SWAP1 KECCAK256 SLOAD PUSH1 0x60 SWAP1 PUSH1 0x1 PUSH1 0x1 PUSH1 0xA0 SHL SUB AND PUSH2 0xF73 JUMPI PUSH1 0x40 MLOAD PUSH3 0x461BCD PUSH1 0xE5 SHL DUP2 MSTORE PUSH1 0x20 PUSH1 0x4 DUP3 ADD MSTORE PUSH1 0x14 PUSH1 0x24 DUP3 ADD MSTORE PUSH20 0x151BDAD95B88191BD95CC81B9BDD08195E1A5CDD PUSH1 0x62 SHL PUSH1 0x44 DUP3 ADD MSTORE PUSH1 0x64 ADD PUSH2 0xB77 JUMP JUMPDEST PUSH1 0x0 DUP3 DUP2 MSTORE PUSH1 0x19 PUSH1 0x20 MSTORE PUSH1 0x40 SWAP1 KECCAK256 DUP1 SLOAD PUSH2 0xF8C SWAP1 PUSH2 0x3361 JUMP JUMPDEST DUP1 PUSH1 0x1F ADD PUSH1 0x20 DUP1 SWAP2 DIV MUL PUSH1 0x20 ADD PUSH1 0x40 MLOAD SWAP1 DUP2 ADD PUSH1 0x40 MSTORE DUP1 SWAP3 SWAP2 SWAP1 DUP2 DUP2 MSTORE PUSH1 0x20 ADD DUP3 DUP1 SLOAD PUSH2 0xFB8 SWAP1 PUSH2 0x3361 JUMP JUMPDEST DUP1 ISZERO PUSH2 0x1005 JUMPI DUP1 PUSH1 0x1F LT PUSH2 0xFDA JUMPI PUSH2 0x100 DUP1 DUP4 SLOAD DIV MUL DUP4 MSTORE SWAP2 PUSH1 0x20 ADD SWAP2 PUSH2 0x1005 JUMP JUMPDEST DUP3 ADD SWAP2 SWAP1 PUSH1 0x0 MSTORE PUSH1 0x20 PUSH1 0x0 KECCAK256 SWAP1 JUMPDEST DUP2 SLOAD DUP2 MSTORE SWAP1 PUSH1 0x1 ADD SWAP1 PUSH1 0x20 ADD DUP1 DUP4 GT PUSH2 0xFE8 JUMPI DUP3 SWAP1 SUB PUSH1 0x1F AND DUP3 ADD SWAP2 JUMPDEST POP POP POP POP POP SWAP1 POP SWAP2 SWAP1 POP JUMP JUMPDEST PUSH2 0xC18 DUP4 DUP4 DUP4 PUSH1 0x40 MLOAD DUP1 PUSH1 0x20 ADD PUSH1 0x40 MSTORE DUP1 PUSH1 0x0 DUP2 MSTORE POP PUSH2 0x1845 JUMP JUMPDEST DUP1 MLOAD PUSH1 0x43 EQ PUSH2 0x108E JUMPI PUSH1 0x40 MLOAD PUSH3 0x461BCD PUSH1 0xE5 SHL DUP2 MSTORE PUSH1 0x20 PUSH1 0x4 DUP3 ADD MSTORE PUSH1 0x28 PUSH1 0x24 DUP3 ADD MSTORE PUSH32 0x495046532068617368206C656E6774682073686F756C64206265203637206368 PUSH1 0x44 DUP3 ADD MSTORE PUSH8 0x6172616374657273 PUSH1 0xC0 SHL PUSH1 0x64 DUP3 ADD MSTORE PUSH1 0x84 ADD PUSH2 0xB77 JUMP JUMPDEST PUSH1 0x13 SLOAD CALLVALUE LT ISZERO PUSH2 0x10FF JUMPI PUSH1 0x40 MLOAD PUSH3 0x461BCD PUSH1 0xE5 SHL DUP2 MSTORE PUSH1 0x20 PUSH1 0x4 DUP3 ADD MSTORE PUSH1 0x36 PUSH1 0x24 DUP3 ADD MSTORE PUSH32 0x4E6F7420656E6F75676820424E422073656E7420746F206D696E742061204C45 PUSH1 0x44 DUP3 ADD MSTORE PUSH22 0x23A2A72220A92C9026B2B230B61037B3102437B737B9 PUSH1 0x51 SHL PUSH1 0x64 DUP3 ADD MSTORE PUSH1 0x84 ADD PUSH2 0xB77 JUMP JUMPDEST PUSH1 0x28 PUSH2 0x110A PUSH1 0x18 SLOAD SWAP1 JUMP JUMPDEST LT PUSH2 0x1180 JUMPI PUSH1 0x40 MLOAD PUSH3 0x461BCD PUSH1 0xE5 SHL DUP2 MSTORE PUSH1 0x20 PUSH1 0x4 DUP3 ADD MSTORE PUSH1 0x4C PUSH1 0x24 DUP3 ADD MSTORE PUSH1 0x0 DUP1 MLOAD PUSH1 0x20 PUSH2 0x373D DUP4 CODECOPY DUP2 MLOAD SWAP2 MSTORE PUSH1 0x44 DUP3 ADD MSTORE PUSH32 0x20486F6E6F72204C4547454E44415259204E46542068617320616C7265616479 PUSH1 0x64 DUP3 ADD MSTORE PUSH12 0x81899595B881B5A5B9D1959 PUSH1 0xA2 SHL PUSH1 0x84 DUP3 ADD MSTORE PUSH1 0xA4 ADD PUSH2 0xB77 JUMP JUMPDEST PUSH2 0x1189 CALLER PUSH2 0x1677 JUMP JUMPDEST PUSH1 0x4 EQ PUSH2 0x11FE JUMPI PUSH1 0x40 MLOAD PUSH3 0x461BCD PUSH1 0xE5 SHL DUP2 MSTORE PUSH1 0x20 PUSH1 0x4 DUP3 ADD MSTORE PUSH1 0x3E PUSH1 0x24 DUP3 ADD MSTORE PUSH32 0x4D757374206F776E20616E2045504943204D6564616C206F6620486F6E6F7220 PUSH1 0x44 DUP3 ADD MSTORE PUSH32 0x6265666F7265206D696E74696E672061204C4547454E44415259204E46540000 PUSH1 0x64 DUP3 ADD MSTORE PUSH1 0x84 ADD PUSH2 0xB77 JUMP JUMPDEST CALLER PUSH1 0x0 SWAP1 DUP2 MSTORE PUSH1 0x1A PUSH1 0x20 SWAP1 DUP2 MSTORE PUSH1 0x40 DUP1 DUP4 KECCAK256 PUSH1 0x4 DUP5 MSTORE SWAP1 SWAP2 MSTORE SWAP1 KECCAK256 SLOAD TIMESTAMP SWAP1 PUSH2 0x122A SWAP1 PUSH3 0x278D00 SWAP1 PUSH2 0x33B1 JUMP JUMPDEST GT ISZERO PUSH2 0x1248 JUMPI PUSH1 0x40 MLOAD PUSH3 0x461BCD PUSH1 0xE5 SHL DUP2 MSTORE PUSH1 0x4 ADD PUSH2 0xB77 SWAP1 PUSH2 0x342A JUMP JUMPDEST PUSH1 0x0 PUSH1 0x28 PUSH1 0x3C PUSH1 0x50 PUSH1 0x64 PUSH2 0x125B PUSH1 0x18 SLOAD SWAP1 JUMP JUMPDEST PUSH2 0x1265 SWAP2 SWAP1 PUSH2 0x33B1 JUMP JUMPDEST PUSH2 0x126F SWAP2 SWAP1 PUSH2 0x33B1 JUMP JUMPDEST PUSH2 0x1279 SWAP2 SWAP1 PUSH2 0x33B1 JUMP JUMPDEST PUSH2 0x1283 SWAP2 SWAP1 PUSH2 0x33B1 JUMP JUMPDEST SWAP1 POP PUSH2 0x128F CALLER DUP3 PUSH2 0x26A9 JUMP JUMPDEST PUSH1 0x0 DUP2 DUP2 MSTORE PUSH1 0x19 PUSH1 0x20 MSTORE PUSH1 0x40 SWAP1 KECCAK256 PUSH2 0x12A7 DUP4 DUP3 PUSH2 0x34AF JUMP JUMPDEST POP PUSH2 0x12B6 PUSH1 0x18 DUP1 SLOAD PUSH1 0x1 ADD SWAP1 SSTORE JUMP JUMPDEST PUSH2 0x12BE PUSH2 0x2834 JUMP JUMPDEST PUSH2 0x12C8 DUP2 DUP4 PUSH2 0x2A4F JUMP JUMPDEST PUSH1 0x0 PUSH2 0x12D5 CALLER PUSH1 0x4 PUSH2 0x1898 JUMP JUMPDEST POP POP POP POP JUMP JUMPDEST PUSH1 0x0 DUP2 DUP2 MSTORE PUSH1 0x2 PUSH1 0x20 MSTORE PUSH1 0x40 DUP2 KECCAK256 SLOAD PUSH1 0x1 PUSH1 0x1 PUSH1 0xA0 SHL SUB AND DUP1 PUSH2 0xA0B JUMPI PUSH1 0x40 MLOAD PUSH3 0x461BCD PUSH1 0xE5 SHL DUP2 MSTORE PUSH1 0x20 PUSH1 0x4 DUP3 ADD MSTORE PUSH1 0x18 PUSH1 0x24 DUP3 ADD MSTORE PUSH24 0x115490CDCC8C4E881A5B9D985B1A59081D1BDAD95B881251 PUSH1 0x42 SHL PUSH1 0x44 DUP3 ADD MSTORE PUSH1 0x64 ADD PUSH2 0xB77 JUMP JUMPDEST DUP1 MLOAD PUSH1 0x42 EQ PUSH2 0x139D JUMPI PUSH1 0x40 MLOAD PUSH3 0x461BCD PUSH1 0xE5 SHL DUP2 MSTORE PUSH1 0x20 PUSH1 0x4 DUP3 ADD MSTORE PUSH1 0x28 PUSH1 0x24 DUP3 ADD MSTORE PUSH32 0x495046532068617368206C656E6774682073686F756C64206265203636206368 PUSH1 0x44 DUP3 ADD MSTORE PUSH8 0x6172616374657273 PUSH1 0xC0 SHL PUSH1 0x64 DUP3 ADD MSTORE PUSH1 0x84 ADD PUSH2 0xB77 JUMP JUMPDEST PUSH1 0x10 SLOAD CALLVALUE LT ISZERO PUSH2 0x140E JUMPI PUSH1 0x40 MLOAD PUSH3 0x461BCD PUSH1 0xE5 SHL DUP2 MSTORE PUSH1 0x20 PUSH1 0x4 DUP3 ADD MSTORE PUSH1 0x36 PUSH1 0x24 DUP3 ADD MSTORE PUSH32 0x4E6F7420656E6F75676820424E422073656E7420746F206D696E7420616E2055 PUSH1 0x44 DUP3 ADD MSTORE PUSH22 0x2721A7A6A6A7A71026B2B230B61037B3102437B737B9 PUSH1 0x51 SHL PUSH1 0x64 DUP3 ADD MSTORE PUSH1 0x84 ADD PUSH2 0xB77 JUMP JUMPDEST PUSH1 0x50 PUSH2 0x1419 PUSH1 0x15 SLOAD SWAP1 JUMP JUMPDEST LT PUSH2 0x148E JUMPI PUSH1 0x40 MLOAD PUSH3 0x461BCD PUSH1 0xE5 SHL DUP2 MSTORE PUSH1 0x20 PUSH1 0x4 DUP3 ADD MSTORE PUSH1 0x4B PUSH1 0x24 DUP3 ADD MSTORE PUSH1 0x0 DUP1 MLOAD PUSH1 0x20 PUSH2 0x373D DUP4 CODECOPY DUP2 MLOAD SWAP2 MSTORE PUSH1 0x44 DUP3 ADD MSTORE PUSH32 0x20486F6E6F7220554E434F4D4D4F4E204E46542068617320616C726561647920 PUSH1 0x64 DUP3 ADD MSTORE PUSH11 0x1899595B881B5A5B9D1959 PUSH1 0xAA SHL PUSH1 0x84 DUP3 ADD MSTORE PUSH1 0xA4 ADD PUSH2 0xB77 JUMP JUMPDEST PUSH2 0x1497 CALLER PUSH2 0x1677 JUMP JUMPDEST PUSH1 0x1 EQ PUSH2 0x150C JUMPI PUSH1 0x40 MLOAD PUSH3 0x461BCD PUSH1 0xE5 SHL DUP2 MSTORE PUSH1 0x20 PUSH1 0x4 DUP3 ADD MSTORE PUSH1 0x3F PUSH1 0x24 DUP3 ADD MSTORE PUSH32 0x4D757374206F776E206120434F4D4D4F4E204D6564616C206F6620486F6E6F72 PUSH1 0x44 DUP3 ADD MSTORE PUSH32 0x206265666F7265206D696E74696E6720616E20554E434F4D4D4F4E204E465400 PUSH1 0x64 DUP3 ADD MSTORE PUSH1 0x84 ADD PUSH2 0xB77 JUMP JUMPDEST PUSH1 0x0 PUSH2 0x1519 CALLER PUSH1 0x1 PUSH2 0x1898 JUMP JUMPDEST SWAP1 POP DUP1 ISZERO PUSH2 0x1539 JUMPI PUSH1 0x40 MLOAD PUSH3 0x461BCD PUSH1 0xE5 SHL DUP2 MSTORE PUSH1 0x4 ADD PUSH2 0xB77 SWAP1 PUSH2 0x342A JUMP JUMPDEST CALLER PUSH1 0x0 SWAP1 DUP2 MSTORE PUSH1 0x1A PUSH1 0x20 SWAP1 DUP2 MSTORE PUSH1 0x40 DUP1 DUP4 KECCAK256 PUSH1 0x1 DUP5 MSTORE SWAP1 SWAP2 MSTORE SWAP1 KECCAK256 SLOAD TIMESTAMP SWAP1 PUSH2 0x1565 SWAP1 PUSH3 0x278D00 SWAP1 PUSH2 0x33B1 JUMP JUMPDEST GT ISZERO PUSH2 0x1583 JUMPI PUSH1 0x40 MLOAD PUSH3 0x461BCD PUSH1 0xE5 SHL DUP2 MSTORE PUSH1 0x4 ADD PUSH2 0xB77 SWAP1 PUSH2 0x342A JUMP JUMPDEST PUSH1 0x0 PUSH2 0x158E PUSH1 0x15 SLOAD SWAP1 JUMP JUMPDEST SWAP1 POP PUSH2 0x15AE CALLER PUSH1 0x64 PUSH2 0x159F PUSH1 0x15 SLOAD SWAP1 JUMP JUMPDEST PUSH2 0x15A9 SWAP2 SWAP1 PUSH2 0x33B1 JUMP JUMPDEST PUSH2 0x26A9 JUMP JUMPDEST DUP3 PUSH1 0x19 PUSH1 0x0 PUSH1 0x64 PUSH2 0x15BE PUSH1 0x15 SLOAD SWAP1 JUMP JUMPDEST PUSH2 0x15C8 SWAP2 SWAP1 PUSH2 0x33B1 JUMP JUMPDEST DUP2 MSTORE PUSH1 0x20 ADD SWAP1 DUP2 MSTORE PUSH1 0x20 ADD PUSH1 0x0 KECCAK256 SWAP1 DUP2 PUSH2 0x15E2 SWAP2 SWAP1 PUSH2 0x34AF JUMP JUMPDEST POP PUSH2 0x15F1 PUSH1 0x15 DUP1 SLOAD PUSH1 0x1 ADD SWAP1 SSTORE JUMP JUMPDEST PUSH2 0x15F9 PUSH2 0x2834 JUMP JUMPDEST CALLER PUSH1 0x0 SWAP1 DUP2 MSTORE PUSH1 0x1A PUSH1 0x20 SWAP1 DUP2 MSTORE PUSH1 0x40 DUP1 DUP4 KECCAK256 PUSH1 0x2 DUP5 MSTORE SWAP1 SWAP2 MSTORE SWAP1 KECCAK256 TIMESTAMP SWAP1 SSTORE PUSH2 0x1621 DUP2 DUP5 PUSH2 0x2A4F JUMP JUMPDEST CALLER PUSH1 0x1 PUSH1 0x1 PUSH1 0xA0 SHL SUB AND PUSH32 0x6B9423AF11878F5BAD583984D9C04C9477193FEA938F13FFA02922A5D486B150 DUP3 DUP6 PUSH1 0x40 MLOAD PUSH2 0x165C SWAP3 SWAP2 SWAP1 PUSH2 0x356F JUMP JUMPDEST PUSH1 0x40 MLOAD DUP1 SWAP2 SUB SWAP1 LOG2 POP JUMPDEST POP POP JUMP JUMPDEST PUSH2 0x1672 PUSH2 0x23A0 JUMP JUMPDEST PUSH1 0x11 SSTORE JUMP JUMPDEST PUSH1 0x0 PUSH1 0x1 PUSH1 0x1 PUSH1 0xA0 SHL SUB DUP3 AND PUSH2 0x16E1 JUMPI PUSH1 0x40 MLOAD PUSH3 0x461BCD PUSH1 0xE5 SHL DUP2 MSTORE PUSH1 0x20 PUSH1 0x4 DUP3 ADD MSTORE PUSH1 0x29 PUSH1 0x24 DUP3 ADD MSTORE PUSH32 0x4552433732313A2061646472657373207A65726F206973206E6F742061207661 PUSH1 0x44 DUP3 ADD MSTORE PUSH9 0x3634B21037BBB732B9 PUSH1 0xB9 SHL PUSH1 0x64 DUP3 ADD MSTORE PUSH1 0x84 ADD PUSH2 0xB77 JUMP JUMPDEST POP PUSH1 0x1 PUSH1 0x1 PUSH1 0xA0 SHL SUB AND PUSH1 0x0 SWAP1 DUP2 MSTORE PUSH1 0x3 PUSH1 0x20 MSTORE PUSH1 0x40 SWAP1 KECCAK256 SLOAD SWAP1 JUMP JUMPDEST PUSH2 0x1705 PUSH2 0x23A0 JUMP JUMPDEST PUSH2 0x170F PUSH1 0x0 PUSH2 0x2AE2 JUMP JUMPDEST JUMP JUMPDEST PUSH2 0x1719 PUSH2 0x23A0 JUMP JUMPDEST DUP1 PUSH1 0x9 PUSH1 0x1 DUP2 SLOAD DUP2 LT PUSH2 0xA2E JUMPI PUSH2 0xA2E PUSH2 0x334B JUMP JUMPDEST PUSH2 0x1736 PUSH2 0x23A0 JUMP JUMPDEST PUSH1 0x0 DUP2 DUP4 DUP6 PUSH2 0x1745 DUP9 DUP11 PUSH2 0x33B1 JUMP JUMPDEST PUSH2 0x174F SWAP2 SWAP1 PUSH2 0x33B1 JUMP JUMPDEST PUSH2 0x1759 SWAP2 SWAP1 PUSH2 0x33B1 JUMP JUMPDEST PUSH2 0x1763 SWAP2 SWAP1 PUSH2 0x33B1 JUMP JUMPDEST SWAP1 POP DUP1 PUSH1 0x64 EQ PUSH2 0x17B5 JUMPI PUSH1 0x40 MLOAD PUSH3 0x461BCD PUSH1 0xE5 SHL DUP2 MSTORE PUSH1 0x20 PUSH1 0x4 DUP3 ADD MSTORE PUSH1 0x1E PUSH1 0x24 DUP3 ADD MSTORE PUSH32 0x50657263656E7461676573206D7573742061646420757020746F203130300000 PUSH1 0x44 DUP3 ADD MSTORE PUSH1 0x64 ADD PUSH2 0xB77 JUMP JUMPDEST POP PUSH1 0x40 DUP1 MLOAD PUSH1 0xA0 DUP2 ADD DUP3 MSTORE DUP7 DUP2 MSTORE PUSH1 0x20 DUP2 ADD DUP7 SWAP1 MSTORE SWAP1 DUP2 ADD DUP5 SWAP1 MSTORE PUSH1 0x60 DUP2 ADD DUP4 SWAP1 MSTORE PUSH1 0x80 ADD DUP2 SWAP1 MSTORE PUSH1 0x1B SWAP5 SWAP1 SWAP5 SSTORE PUSH1 0x1C SWAP3 SWAP1 SWAP3 SSTORE PUSH1 0x1D SSTORE PUSH1 0x1E SSTORE PUSH1 0x1F SSTORE JUMP JUMPDEST PUSH2 0x17FC PUSH2 0x23A0 JUMP JUMPDEST PUSH1 0xF SSTORE JUMP JUMPDEST PUSH2 0x1809 PUSH2 0x23A0 JUMP JUMPDEST PUSH1 0x12 SSTORE JUMP JUMPDEST PUSH1 0x60 PUSH1 0x1 DUP1 SLOAD PUSH2 0xA4C SWAP1 PUSH2 0x3361 JUMP JUMPDEST PUSH2 0x1666 CALLER DUP4 DUP4 PUSH2 0x2B34 JUMP JUMPDEST PUSH2 0x1830 PUSH2 0x23A0 JUMP JUMPDEST DUP1 PUSH1 0x9 PUSH1 0x4 DUP2 SLOAD DUP2 LT PUSH2 0xA2E JUMPI PUSH2 0xA2E PUSH2 0x334B JUMP JUMPDEST PUSH2 0x184F CALLER DUP4 PUSH2 0x24C7 JUMP JUMPDEST PUSH2 0x186B JUMPI PUSH1 0x40 MLOAD PUSH3 0x461BCD PUSH1 0xE5 SHL DUP2 MSTORE PUSH1 0x4 ADD PUSH2 0xB77 SWAP1 PUSH2 0x33DD JUMP JUMPDEST PUSH2 0x12D5 DUP5 DUP5 DUP5 DUP5 PUSH2 0x2C02 JUMP JUMPDEST PUSH1 0x9 DUP2 DUP2 SLOAD DUP2 LT PUSH2 0x1887 JUMPI PUSH1 0x0 DUP1 REVERT JUMPDEST PUSH1 0x0 SWAP2 DUP3 MSTORE PUSH1 0x20 SWAP1 SWAP2 KECCAK256 ADD SLOAD SWAP1 POP DUP2 JUMP JUMPDEST PUSH1 0x0 DUP1 DUP3 GT DUP1 ISZERO PUSH2 0x18AA JUMPI POP PUSH1 0x5 DUP3 GT ISZERO JUMPDEST PUSH2 0x18EA JUMPI PUSH1 0x40 MLOAD PUSH3 0x461BCD PUSH1 0xE5 SHL DUP2 MSTORE PUSH1 0x20 PUSH1 0x4 DUP3 ADD MSTORE PUSH1 0x11 PUSH1 0x24 DUP3 ADD MSTORE PUSH17 0x24B73B30B634B21036B4B73A103A34B2B9 PUSH1 0x79 SHL PUSH1 0x44 DUP3 ADD MSTORE PUSH1 0x64 ADD PUSH2 0xB77 JUMP JUMPDEST PUSH1 0x1 PUSH1 0x1 PUSH1 0xA0 SHL SUB DUP4 AND PUSH1 0x0 SWAP1 DUP2 MSTORE PUSH1 0x1A PUSH1 0x20 SWAP1 DUP2 MSTORE PUSH1 0x40 DUP1 DUP4 KECCAK256 DUP6 DUP5 MSTORE SWAP1 SWAP2 MSTORE SWAP1 KECCAK256 SLOAD PUSH2 0x195A JUMPI PUSH1 0x40 MLOAD PUSH3 0x461BCD PUSH1 0xE5 SHL DUP2 MSTORE PUSH1 0x20 PUSH1 0x4 DUP3 ADD MSTORE PUSH1 0x1F PUSH1 0x24 DUP3 ADD MSTORE PUSH32 0x4E6F2070726576696F7573206D696E747320666F722074686973207469657200 PUSH1 0x44 DUP3 ADD MSTORE PUSH1 0x64 ADD PUSH2 0xB77 JUMP JUMPDEST PUSH1 0x0 PUSH1 0x9 DUP4 DUP2 SLOAD DUP2 LT PUSH2 0x196F JUMPI PUSH2 0x196F PUSH2 0x334B JUMP JUMPDEST PUSH1 0x0 SWAP2 DUP3 MSTORE PUSH1 0x20 DUP1 DUP4 KECCAK256 SWAP1 SWAP2 ADD SLOAD PUSH1 0x1 PUSH1 0x1 PUSH1 0xA0 SHL SUB DUP8 AND DUP4 MSTORE PUSH1 0x1A DUP3 MSTORE PUSH1 0x40 DUP1 DUP5 KECCAK256 DUP8 DUP6 MSTORE SWAP1 SWAP3 MSTORE SWAP2 KECCAK256 SLOAD PUSH2 0x19A5 SWAP2 SWAP1 PUSH2 0x33B1 JUMP JUMPDEST SWAP1 POP DUP1 TIMESTAMP LT PUSH2 0x19B8 JUMPI PUSH1 0x0 SWAP2 POP POP PUSH2 0xA0B JUMP JUMPDEST PUSH3 0x15180 PUSH2 0x19C6 TIMESTAMP DUP4 PUSH2 0x3588 JUMP JUMPDEST PUSH2 0x19D0 SWAP2 SWAP1 PUSH2 0x359B JUMP JUMPDEST SWAP5 SWAP4 POP POP POP POP JUMP JUMPDEST PUSH1 0x60 PUSH2 0x19E3 DUP3 PUSH2 0x23FA JUMP JUMPDEST PUSH1 0x0 DUP3 DUP2 MSTORE PUSH1 0x6 PUSH1 0x20 MSTORE PUSH1 0x40 DUP2 KECCAK256 DUP1 SLOAD PUSH2 0x19FC SWAP1 PUSH2 0x3361 JUMP JUMPDEST DUP1 PUSH1 0x1F ADD PUSH1 0x20 DUP1 SWAP2 DIV MUL PUSH1 0x20 ADD PUSH1 0x40 MLOAD SWAP1 DUP2 ADD PUSH1 0x40 MSTORE DUP1 SWAP3 SWAP2 SWAP1 DUP2 DUP2 MSTORE PUSH1 0x20 ADD DUP3 DUP1 SLOAD PUSH2 0x1A28 SWAP1 PUSH2 0x3361 JUMP JUMPDEST DUP1 ISZERO PUSH2 0x1A75 JUMPI DUP1 PUSH1 0x1F LT PUSH2 0x1A4A JUMPI PUSH2 0x100 DUP1 DUP4 SLOAD DIV MUL DUP4 MSTORE SWAP2 PUSH1 0x20 ADD SWAP2 PUSH2 0x1A75 JUMP JUMPDEST DUP3 ADD SWAP2 SWAP1 PUSH1 0x0 MSTORE PUSH1 0x20 PUSH1 0x0 KECCAK256 SWAP1 JUMPDEST DUP2 SLOAD DUP2 MSTORE SWAP1 PUSH1 0x1 ADD SWAP1 PUSH1 0x20 ADD DUP1 DUP4 GT PUSH2 0x1A58 JUMPI DUP3 SWAP1 SUB PUSH1 0x1F AND DUP3 ADD SWAP2 JUMPDEST POP POP POP POP POP SWAP1 POP PUSH1 0x0 PUSH2 0x1A93 PUSH1 0x40 DUP1 MLOAD PUSH1 0x20 DUP2 ADD SWAP1 SWAP2 MSTORE PUSH1 0x0 DUP2 MSTORE SWAP1 JUMP JUMPDEST SWAP1 POP DUP1 MLOAD PUSH1 0x0 SUB PUSH2 0x1AA5 JUMPI POP SWAP3 SWAP2 POP POP JUMP JUMPDEST DUP2 MLOAD ISZERO PUSH2 0x1AD7 JUMPI DUP1 DUP3 PUSH1 0x40 MLOAD PUSH1 0x20 ADD PUSH2 0x1ABF SWAP3 SWAP2 SWAP1 PUSH2 0x35BD JUMP JUMPDEST PUSH1 0x40 MLOAD PUSH1 0x20 DUP2 DUP4 SUB SUB DUP2 MSTORE SWAP1 PUSH1 0x40 MSTORE SWAP3 POP POP POP SWAP2 SWAP1 POP JUMP JUMPDEST PUSH2 0x19D0 DUP5 PUSH2 0x2C35 JUMP JUMPDEST DUP1 MLOAD PUSH1 0x40 EQ PUSH2 0x1B42 JUMPI PUSH1 0x40 MLOAD PUSH3 0x461BCD PUSH1 0xE5 SHL DUP2 MSTORE PUSH1 0x20 PUSH1 0x4 DUP3 ADD MSTORE PUSH1 0x28 PUSH1 0x24 DUP3 ADD MSTORE PUSH32 0x495046532068617368206C656E6774682073686F756C64206265203634206368 PUSH1 0x44 DUP3 ADD MSTORE PUSH8 0x6172616374657273 PUSH1 0xC0 SHL PUSH1 0x64 DUP3 ADD MSTORE PUSH1 0x84 ADD PUSH2 0xB77 JUMP JUMPDEST PUSH1 0xF SLOAD CALLVALUE LT ISZERO PUSH2 0x1BB0 JUMPI PUSH1 0x40 MLOAD PUSH3 0x461BCD PUSH1 0xE5 SHL DUP2 MSTORE PUSH1 0x20 PUSH1 0x4 DUP3 ADD MSTORE PUSH1 0x33 PUSH1 0x24 DUP3 ADD MSTORE PUSH32 0x4E6F7420656E6F75676820424E422073656E7420746F206D696E74206120434F PUSH1 0x44 DUP3 ADD MSTORE PUSH19 0x26A6A7A71026B2B230B61037B3102437B737B9 PUSH1 0x69 SHL PUSH1 0x64 DUP3 ADD MSTORE PUSH1 0x84 ADD PUSH2 0xB77 JUMP JUMPDEST PUSH1 0x64 PUSH2 0x1BBB PUSH1 0x14 SLOAD SWAP1 JUMP JUMPDEST LT PUSH2 0x1C2E JUMPI PUSH1 0x40 MLOAD PUSH3 0x461BCD PUSH1 0xE5 SHL DUP2 MSTORE PUSH1 0x20 PUSH1 0x4 DUP3 ADD MSTORE PUSH1 0x49 PUSH1 0x24 DUP3 ADD MSTORE PUSH1 0x0 DUP1 MLOAD PUSH1 0x20 PUSH2 0x373D DUP4 CODECOPY DUP2 MLOAD SWAP2 MSTORE PUSH1 0x44 DUP3 ADD MSTORE PUSH32 0x20486F6E6F7220434F4D4D4F4E204E46542068617320616C7265616479206265 PUSH1 0x64 DUP3 ADD MSTORE PUSH9 0x195B881B5A5B9D1959 PUSH1 0xBA SHL PUSH1 0x84 DUP3 ADD MSTORE PUSH1 0xA4 ADD PUSH2 0xB77 JUMP JUMPDEST PUSH2 0x1C37 CALLER PUSH2 0x1677 JUMP JUMPDEST ISZERO PUSH2 0x1C84 JUMPI PUSH1 0x40 MLOAD PUSH3 0x461BCD PUSH1 0xE5 SHL DUP2 MSTORE PUSH1 0x20 PUSH1 0x4 DUP3 ADD MSTORE PUSH1 0x1D PUSH1 0x24 DUP3 ADD MSTORE PUSH32 0x416C7265616479206D696E746564206120434F4D4D4F4E20746F6B656E000000 PUSH1 0x44 DUP3 ADD MSTORE PUSH1 0x64 ADD PUSH2 0xB77 JUMP JUMPDEST PUSH1 0x0 PUSH2 0x1C8F PUSH1 0x14 SLOAD SWAP1 JUMP JUMPDEST SWAP1 POP PUSH2 0x1C9E CALLER PUSH2 0x15A9 PUSH1 0x14 SLOAD SWAP1 JUMP JUMPDEST CALLER PUSH1 0x0 SWAP1 DUP2 MSTORE PUSH1 0x1A PUSH1 0x20 SWAP1 DUP2 MSTORE PUSH1 0x40 DUP1 DUP4 KECCAK256 PUSH1 0x1 DUP5 MSTORE DUP3 MSTORE DUP1 DUP4 KECCAK256 TIMESTAMP SWAP1 SSTORE PUSH1 0x14 SLOAD DUP4 MSTORE PUSH1 0x19 SWAP1 SWAP2 MSTORE SWAP1 KECCAK256 PUSH2 0x1CD2 DUP4 DUP3 PUSH2 0x34AF JUMP JUMPDEST POP PUSH2 0x1CE1 PUSH1 0x14 DUP1 SLOAD PUSH1 0x1 ADD SWAP1 SSTORE JUMP JUMPDEST PUSH2 0x1CE9 PUSH2 0x2834 JUMP JUMPDEST CALLER PUSH1 0x0 SWAP1 DUP2 MSTORE PUSH1 0x1A PUSH1 0x20 SWAP1 DUP2 MSTORE PUSH1 0x40 DUP1 DUP4 KECCAK256 PUSH1 0x1 DUP5 MSTORE SWAP1 SWAP2 MSTORE SWAP1 KECCAK256 TIMESTAMP SWAP1 SSTORE PUSH2 0x1D11 DUP2 DUP4 PUSH2 0x2A4F JUMP JUMPDEST CALLER PUSH1 0x1 PUSH1 0x1 PUSH1 0xA0 SHL SUB AND PUSH32 0xB2C6CDAD531A8CB22602E8D009E4271E3C000B912740B8DCF2E406DC742965C6 DUP3 DUP5 PUSH1 0x40 MLOAD PUSH2 0x1D4C SWAP3 SWAP2 SWAP1 PUSH2 0x356F JUMP JUMPDEST PUSH1 0x40 MLOAD DUP1 SWAP2 SUB SWAP1 LOG2 POP POP JUMP JUMPDEST PUSH2 0x1D60 PUSH2 0x23A0 JUMP JUMPDEST PUSH1 0x1 PUSH1 0x1 PUSH1 0xA0 SHL SUB DUP2 AND PUSH2 0x1DC5 JUMPI PUSH1 0x40 MLOAD PUSH3 0x461BCD PUSH1 0xE5 SHL DUP2 MSTORE PUSH1 0x20 PUSH1 0x4 DUP3 ADD MSTORE PUSH1 0x26 PUSH1 0x24 DUP3 ADD MSTORE PUSH32 0x4F776E61626C653A206E6577206F776E657220697320746865207A65726F2061 PUSH1 0x44 DUP3 ADD MSTORE PUSH6 0x646472657373 PUSH1 0xD0 SHL PUSH1 0x64 DUP3 ADD MSTORE PUSH1 0x84 ADD PUSH2 0xB77 JUMP JUMPDEST PUSH2 0x1DCE DUP2 PUSH2 0x2AE2 JUMP JUMPDEST POP JUMP JUMPDEST DUP1 MLOAD PUSH1 0x3E EQ PUSH2 0x1DF2 JUMPI PUSH1 0x40 MLOAD PUSH3 0x461BCD PUSH1 0xE5 SHL DUP2 MSTORE PUSH1 0x4 ADD PUSH2 0xB77 SWAP1 PUSH2 0x35EC JUMP JUMPDEST PUSH1 0x12 SLOAD CALLVALUE LT ISZERO PUSH2 0x1E5F JUMPI PUSH1 0x40 MLOAD PUSH3 0x461BCD PUSH1 0xE5 SHL DUP2 MSTORE PUSH1 0x20 PUSH1 0x4 DUP3 ADD MSTORE PUSH1 0x32 PUSH1 0x24 DUP3 ADD MSTORE PUSH32 0x4E6F7420656E6F75676820424E422073656E7420746F206D696E7420616E2045 PUSH1 0x44 DUP3 ADD MSTORE PUSH18 0x2824A19026B2B230B61037B3102437B737B9 PUSH1 0x71 SHL PUSH1 0x64 DUP3 ADD MSTORE PUSH1 0x84 ADD PUSH2 0xB77 JUMP JUMPDEST PUSH1 0x28 PUSH2 0x1E6A PUSH1 0x17 SLOAD SWAP1 JUMP JUMPDEST LT PUSH2 0x1EDB JUMPI PUSH1 0x40 MLOAD PUSH3 0x461BCD PUSH1 0xE5 SHL DUP2 MSTORE PUSH1 0x20 PUSH1 0x4 DUP3 ADD MSTORE PUSH1 0x47 PUSH1 0x24 DUP3 ADD MSTORE PUSH1 0x0 DUP1 MLOAD PUSH1 0x20 PUSH2 0x373D DUP4 CODECOPY DUP2 MLOAD SWAP2 MSTORE PUSH1 0x44 DUP3 ADD MSTORE PUSH32 0x20486F6E6F722045504943204E46542068617320616C7265616479206265656E PUSH1 0x64 DUP3 ADD MSTORE PUSH7 0x81B5A5B9D1959 PUSH1 0xCA SHL PUSH1 0x84 DUP3 ADD MSTORE PUSH1 0xA4 ADD PUSH2 0xB77 JUMP JUMPDEST PUSH2 0x1EE4 CALLER PUSH2 0x1677 JUMP JUMPDEST PUSH1 0x3 EQ PUSH2 0x1F59 JUMPI PUSH1 0x40 MLOAD PUSH3 0x461BCD PUSH1 0xE5 SHL DUP2 MSTORE PUSH1 0x20 PUSH1 0x4 DUP3 ADD MSTORE PUSH1 0x39 PUSH1 0x24 DUP3 ADD MSTORE PUSH32 0x4D757374206F776E20612052415245204D6564616C206F6620486F6E6F722062 PUSH1 0x44 DUP3 ADD MSTORE PUSH32 0x65666F7265206D696E74696E6720616E2045504943204E465400000000000000 PUSH1 0x64 DUP3 ADD MSTORE PUSH1 0x84 ADD PUSH2 0xB77 JUMP JUMPDEST PUSH1 0x0 PUSH2 0x1F66 CALLER PUSH1 0x3 PUSH2 0x1898 JUMP JUMPDEST SWAP1 POP DUP1 ISZERO PUSH2 0x1F86 JUMPI PUSH1 0x40 MLOAD PUSH3 0x461BCD PUSH1 0xE5 SHL DUP2 MSTORE PUSH1 0x4 ADD PUSH2 0xB77 SWAP1 PUSH2 0x342A JUMP JUMPDEST CALLER PUSH1 0x0 SWAP1 DUP2 MSTORE PUSH1 0x1A PUSH1 0x20 SWAP1 DUP2 MSTORE PUSH1 0x40 DUP1 DUP4 KECCAK256 PUSH1 0x3 DUP5 MSTORE SWAP1 SWAP2 MSTORE SWAP1 KECCAK256 SLOAD TIMESTAMP SWAP1 PUSH2 0x1FB2 SWAP1 PUSH3 0x278D00 SWAP1 PUSH2 0x33B1 JUMP JUMPDEST GT ISZERO PUSH2 0x1FD0 JUMPI PUSH1 0x40 MLOAD PUSH3 0x461BCD PUSH1 0xE5 SHL DUP2 MSTORE PUSH1 0x4 ADD PUSH2 0xB77 SWAP1 PUSH2 0x342A JUMP JUMPDEST PUSH1 0x0 PUSH2 0x1FDB PUSH1 0x17 SLOAD SWAP1 JUMP JUMPDEST SWAP1 POP PUSH2 0x2004 CALLER PUSH1 0x3C PUSH1 0x50 PUSH1 0x64 PUSH2 0x1FF0 PUSH1 0x17 SLOAD SWAP1 JUMP JUMPDEST PUSH2 0x1FFA SWAP2 SWAP1 PUSH2 0x33B1 JUMP JUMPDEST PUSH2 0x159F SWAP2 SWAP1 PUSH2 0x33B1 JUMP JUMPDEST DUP3 PUSH1 0x19 PUSH1 0x0 PUSH1 0x3C PUSH1 0x50 PUSH1 0x64 PUSH2 0x2018 PUSH1 0x17 SLOAD SWAP1 JUMP JUMPDEST PUSH2 0x2022 SWAP2 SWAP1 PUSH2 0x33B1 JUMP JUMPDEST PUSH2 0x202C SWAP2 SWAP1 PUSH2 0x33B1 JUMP JUMPDEST PUSH2 0x2036 SWAP2 SWAP1 PUSH2 0x33B1 JUMP JUMPDEST DUP2 MSTORE PUSH1 0x20 ADD SWAP1 DUP2 MSTORE PUSH1 0x20 ADD PUSH1 0x0 KECCAK256 SWAP1 DUP2 PUSH2 0x2050 SWAP2 SWAP1 PUSH2 0x34AF JUMP JUMPDEST POP PUSH2 0x205F PUSH1 0x17 DUP1 SLOAD PUSH1 0x1 ADD SWAP1 SSTORE JUMP JUMPDEST PUSH2 0x2067 PUSH2 0x2834 JUMP JUMPDEST CALLER PUSH1 0x0 SWAP1 DUP2 MSTORE PUSH1 0x1A PUSH1 0x20 SWAP1 DUP2 MSTORE PUSH1 0x40 DUP1 DUP4 KECCAK256 PUSH1 0x4 DUP5 MSTORE SWAP1 SWAP2 MSTORE SWAP1 KECCAK256 TIMESTAMP SWAP1 SSTORE PUSH2 0x208F DUP2 DUP5 PUSH2 0x2A4F JUMP JUMPDEST CALLER PUSH1 0x1 PUSH1 0x1 PUSH1 0xA0 SHL SUB AND PUSH32 0x1E0650EF11EF51A101E0EE0D1917B08960452D6F25EE87087922446B41689BB3 DUP3 DUP6 PUSH1 0x40 MLOAD PUSH2 0x165C SWAP3 SWAP2 SWAP1 PUSH2 0x356F JUMP JUMPDEST DUP1 MLOAD PUSH1 0x3E EQ PUSH2 0x20EB JUMPI PUSH1 0x40 MLOAD PUSH3 0x461BCD PUSH1 0xE5 SHL DUP2 MSTORE PUSH1 0x4 ADD PUSH2 0xB77 SWAP1 PUSH2 0x35EC JUMP JUMPDEST PUSH1 0x11 SLOAD CALLVALUE LT ISZERO PUSH2 0x2157 JUMPI PUSH1 0x40 MLOAD PUSH3 0x461BCD PUSH1 0xE5 SHL DUP2 MSTORE PUSH1 0x20 PUSH1 0x4 DUP3 ADD MSTORE PUSH1 0x31 PUSH1 0x24 DUP3 ADD MSTORE PUSH32 0x4E6F7420656E6F75676820424E422073656E7420746F206D696E742061205241 PUSH1 0x44 DUP3 ADD MSTORE PUSH17 0x29229026B2B230B61037B3102437B737B9 PUSH1 0x79 SHL PUSH1 0x64 DUP3 ADD MSTORE PUSH1 0x84 ADD PUSH2 0xB77 JUMP JUMPDEST PUSH1 0x3C PUSH2 0x2162 PUSH1 0x16 SLOAD SWAP1 JUMP JUMPDEST LT PUSH2 0x21D3 JUMPI PUSH1 0x40 MLOAD PUSH3 0x461BCD PUSH1 0xE5 SHL DUP2 MSTORE PUSH1 0x20 PUSH1 0x4 DUP3 ADD MSTORE PUSH1 0x47 PUSH1 0x24 DUP3 ADD MSTORE PUSH1 0x0 DUP1 MLOAD PUSH1 0x20 PUSH2 0x373D DUP4 CODECOPY DUP2 MLOAD SWAP2 MSTORE PUSH1 0x44 DUP3 ADD MSTORE PUSH32 0x20486F6E6F722052415245204E46542068617320616C7265616479206265656E PUSH1 0x64 DUP3 ADD MSTORE PUSH7 0x81B5A5B9D1959 PUSH1 0xCA SHL PUSH1 0x84 DUP3 ADD MSTORE PUSH1 0xA4 ADD PUSH2 0xB77 JUMP JUMPDEST PUSH2 0x21DC CALLER PUSH2 0x1677 JUMP JUMPDEST PUSH1 0x2 EQ PUSH2 0x2251 JUMPI PUSH1 0x40 MLOAD PUSH3 0x461BCD PUSH1 0xE5 SHL DUP2 MSTORE PUSH1 0x20 PUSH1 0x4 DUP3 ADD MSTORE PUSH1 0x3D PUSH1 0x24 DUP3 ADD MSTORE PUSH32 0x4D757374206F776E20616E20554E434F4D4D4F4E204D6564616C206F6620486F PUSH1 0x44 DUP3 ADD MSTORE PUSH32 0x6E6F72206265666F7265206D696E74696E6720612052415245204E4654000000 PUSH1 0x64 DUP3 ADD MSTORE PUSH1 0x84 ADD PUSH2 0xB77 JUMP JUMPDEST PUSH1 0x0 PUSH2 0x225E CALLER PUSH1 0x2 PUSH2 0x1898 JUMP JUMPDEST SWAP1 POP DUP1 ISZERO PUSH2 0x227E JUMPI PUSH1 0x40 MLOAD PUSH3 0x461BCD PUSH1 0xE5 SHL DUP2 MSTORE PUSH1 0x4 ADD PUSH2 0xB77 SWAP1 PUSH2 0x342A JUMP JUMPDEST CALLER PUSH1 0x0 SWAP1 DUP2 MSTORE PUSH1 0x1A PUSH1 0x20 SWAP1 DUP2 MSTORE PUSH1 0x40 DUP1 DUP4 KECCAK256 PUSH1 0x2 DUP5 MSTORE SWAP1 SWAP2 MSTORE SWAP1 KECCAK256 SLOAD TIMESTAMP SWAP1 PUSH2 0x22AA SWAP1 PUSH3 0x278D00 SWAP1 PUSH2 0x33B1 JUMP JUMPDEST GT ISZERO PUSH2 0x22C8 JUMPI PUSH1 0x40 MLOAD PUSH3 0x461BCD PUSH1 0xE5 SHL DUP2 MSTORE PUSH1 0x4 ADD PUSH2 0xB77 SWAP1 PUSH2 0x342A JUMP JUMPDEST PUSH1 0x0 PUSH2 0x22D3 PUSH1 0x16 SLOAD SWAP1 JUMP JUMPDEST SWAP1 POP PUSH2 0x22E6 CALLER PUSH1 0x50 PUSH1 0x64 PUSH2 0x1FFA PUSH1 0x16 SLOAD SWAP1 JUMP JUMPDEST DUP3 PUSH1 0x19 PUSH1 0x0 PUSH1 0x50 PUSH1 0x64 PUSH2 0x22F8 PUSH1 0x16 SLOAD SWAP1 JUMP JUMPDEST PUSH2 0x2302 SWAP2 SWAP1 PUSH2 0x33B1 JUMP JUMPDEST PUSH2 0x230C SWAP2 SWAP1 PUSH2 0x33B1 JUMP JUMPDEST DUP2 MSTORE PUSH1 0x20 ADD SWAP1 DUP2 MSTORE PUSH1 0x20 ADD PUSH1 0x0 KECCAK256 SWAP1 DUP2 PUSH2 0x2326 SWAP2 SWAP1 PUSH2 0x34AF JUMP JUMPDEST POP PUSH2 0x2335 PUSH1 0x16 DUP1 SLOAD PUSH1 0x1 ADD SWAP1 SSTORE JUMP JUMPDEST PUSH2 0x233D PUSH2 0x2834 JUMP JUMPDEST CALLER PUSH1 0x0 SWAP1 DUP2 MSTORE PUSH1 0x1A PUSH1 0x20 SWAP1 DUP2 MSTORE PUSH1 0x40 DUP1 DUP4 KECCAK256 PUSH1 0x3 DUP5 MSTORE SWAP1 SWAP2 MSTORE SWAP1 KECCAK256 TIMESTAMP SWAP1 SSTORE PUSH2 0x2365 DUP2 DUP5 PUSH2 0x2A4F JUMP JUMPDEST CALLER PUSH1 0x1 PUSH1 0x1 PUSH1 0xA0 SHL SUB AND PUSH32 0xA82F39585356EF29AE711EDAA0D315292D97BFB415C209239F553F121D3504F7 DUP3 DUP6 PUSH1 0x40 MLOAD PUSH2 0x165C SWAP3 SWAP2 SWAP1 PUSH2 0x356F JUMP JUMPDEST PUSH1 0x7 SLOAD PUSH1 0x1 PUSH1 0x1 PUSH1 0xA0 SHL SUB AND CALLER EQ PUSH2 0x170F JUMPI PUSH1 0x40 MLOAD PUSH3 0x461BCD PUSH1 0xE5 SHL DUP2 MSTORE PUSH1 0x20 PUSH1 0x4 DUP3 ADD DUP2 SWAP1 MSTORE PUSH1 0x24 DUP3 ADD MSTORE PUSH32 0x4F776E61626C653A2063616C6C6572206973206E6F7420746865206F776E6572 PUSH1 0x44 DUP3 ADD MSTORE PUSH1 0x64 ADD PUSH2 0xB77 JUMP JUMPDEST PUSH1 0x0 DUP2 DUP2 MSTORE PUSH1 0x2 PUSH1 0x20 MSTORE PUSH1 0x40 SWAP1 KECCAK256 SLOAD PUSH1 0x1 PUSH1 0x1 PUSH1 0xA0 SHL SUB AND PUSH2 0x1DCE JUMPI PUSH1 0x40 MLOAD PUSH3 0x461BCD PUSH1 0xE5 SHL DUP2 MSTORE PUSH1 0x20 PUSH1 0x4 DUP3 ADD MSTORE PUSH1 0x18 PUSH1 0x24 DUP3 ADD MSTORE PUSH24 0x115490CDCC8C4E881A5B9D985B1A59081D1BDAD95B881251 PUSH1 0x42 SHL PUSH1 0x44 DUP3 ADD MSTORE PUSH1 0x64 ADD PUSH2 0xB77 JUMP JUMPDEST PUSH1 0x0 DUP2 DUP2 MSTORE PUSH1 0x4 PUSH1 0x20 MSTORE PUSH1 0x40 SWAP1 KECCAK256 DUP1 SLOAD PUSH1 0x1 PUSH1 0x1 PUSH1 0xA0 SHL SUB NOT AND PUSH1 0x1 PUSH1 0x1 PUSH1 0xA0 SHL SUB DUP5 AND SWAP1 DUP2 OR SWAP1 SWAP2 SSTORE DUP2 SWAP1 PUSH2 0x248E DUP3 PUSH2 0x12DB JUMP JUMPDEST PUSH1 0x1 PUSH1 0x1 PUSH1 0xA0 SHL SUB AND PUSH32 0x8C5BE1E5EBEC7D5BD14F71427D1E84F3DD0314C0F7B2291E5B200AC8C7C3B925 PUSH1 0x40 MLOAD PUSH1 0x40 MLOAD DUP1 SWAP2 SUB SWAP1 LOG4 POP POP JUMP JUMPDEST PUSH1 0x0 DUP1 PUSH2 0x24D3 DUP4 PUSH2 0x12DB JUMP JUMPDEST SWAP1 POP DUP1 PUSH1 0x1 PUSH1 0x1 PUSH1 0xA0 SHL SUB AND DUP5 PUSH1 0x1 PUSH1 0x1 PUSH1 0xA0 SHL SUB AND EQ DUP1 PUSH2 0x251A JUMPI POP PUSH1 0x1 PUSH1 0x1 PUSH1 0xA0 SHL SUB DUP1 DUP3 AND PUSH1 0x0 SWAP1 DUP2 MSTORE PUSH1 0x5 PUSH1 0x20 SWAP1 DUP2 MSTORE PUSH1 0x40 DUP1 DUP4 KECCAK256 SWAP4 DUP9 AND DUP4 MSTORE SWAP3 SWAP1 MSTORE KECCAK256 SLOAD PUSH1 0xFF AND JUMPDEST DUP1 PUSH2 0x19D0 JUMPI POP DUP4 PUSH1 0x1 PUSH1 0x1 PUSH1 0xA0 SHL SUB AND PUSH2 0x2533 DUP5 PUSH2 0xACF JUMP JUMPDEST PUSH1 0x1 PUSH1 0x1 PUSH1 0xA0 SHL SUB AND EQ SWAP5 SWAP4 POP POP POP POP JUMP JUMPDEST DUP3 PUSH1 0x1 PUSH1 0x1 PUSH1 0xA0 SHL SUB AND PUSH2 0x2558 DUP3 PUSH2 0x12DB JUMP JUMPDEST PUSH1 0x1 PUSH1 0x1 PUSH1 0xA0 SHL SUB AND EQ PUSH2 0x257E JUMPI PUSH1 0x40 MLOAD PUSH3 0x461BCD PUSH1 0xE5 SHL DUP2 MSTORE PUSH1 0x4 ADD PUSH2 0xB77 SWAP1 PUSH2 0x3634 JUMP JUMPDEST PUSH1 0x1 PUSH1 0x1 PUSH1 0xA0 SHL SUB DUP3 AND PUSH2 0x25E0 JUMPI PUSH1 0x40 MLOAD PUSH3 0x461BCD PUSH1 0xE5 SHL DUP2 MSTORE PUSH1 0x20 PUSH1 0x4 DUP3 ADD MSTORE PUSH1 0x24 DUP1 DUP3 ADD MSTORE PUSH32 0x4552433732313A207472616E7366657220746F20746865207A65726F20616464 PUSH1 0x44 DUP3 ADD MSTORE PUSH4 0x72657373 PUSH1 0xE0 SHL PUSH1 0x64 DUP3 ADD MSTORE PUSH1 0x84 ADD PUSH2 0xB77 JUMP JUMPDEST DUP3 PUSH1 0x1 PUSH1 0x1 PUSH1 0xA0 SHL SUB AND PUSH2 0x25F3 DUP3 PUSH2 0x12DB JUMP JUMPDEST PUSH1 0x1 PUSH1 0x1 PUSH1 0xA0 SHL SUB AND EQ PUSH2 0x2619 JUMPI PUSH1 0x40 MLOAD PUSH3 0x461BCD PUSH1 0xE5 SHL DUP2 MSTORE PUSH1 0x4 ADD PUSH2 0xB77 SWAP1 PUSH2 0x3634 JUMP JUMPDEST PUSH1 0x0 DUP2 DUP2 MSTORE PUSH1 0x4 PUSH1 0x20 SWAP1 DUP2 MSTORE PUSH1 0x40 DUP1 DUP4 KECCAK256 DUP1 SLOAD PUSH1 0x1 PUSH1 0x1 PUSH1 0xA0 SHL SUB NOT SWAP1 DUP2 AND SWAP1 SWAP2 SSTORE PUSH1 0x1 PUSH1 0x1 PUSH1 0xA0 SHL SUB DUP8 DUP2 AND DUP1 DUP7 MSTORE PUSH1 0x3 DUP6 MSTORE DUP4 DUP7 KECCAK256 DUP1 SLOAD PUSH1 0x0 NOT ADD SWAP1 SSTORE SWAP1 DUP8 AND DUP1 DUP7 MSTORE DUP4 DUP7 KECCAK256 DUP1 SLOAD PUSH1 0x1 ADD SWAP1 SSTORE DUP7 DUP7 MSTORE PUSH1 0x2 SWAP1 SWAP5 MSTORE DUP3 DUP6 KECCAK256 DUP1 SLOAD SWAP1 SWAP3 AND DUP5 OR SWAP1 SWAP2 SSTORE SWAP1 MLOAD DUP5 SWAP4 PUSH32 0xDDF252AD1BE2C89B69C2B068FC378DAA952BA7F163C4A11628F55A4DF523B3EF SWAP2 LOG4 POP POP POP JUMP JUMPDEST PUSH1 0x1 PUSH1 0x1 PUSH1 0xA0 SHL SUB DUP3 AND PUSH2 0x26FF JUMPI PUSH1 0x40 MLOAD PUSH3 0x461BCD PUSH1 0xE5 SHL DUP2 MSTORE PUSH1 0x20 PUSH1 0x4 DUP3 ADD DUP2 SWAP1 MSTORE PUSH1 0x24 DUP3 ADD MSTORE PUSH32 0x4552433732313A206D696E7420746F20746865207A65726F2061646472657373 PUSH1 0x44 DUP3 ADD MSTORE PUSH1 0x64 ADD PUSH2 0xB77 JUMP JUMPDEST PUSH1 0x0 DUP2 DUP2 MSTORE PUSH1 0x2 PUSH1 0x20 MSTORE PUSH1 0x40 SWAP1 KECCAK256 SLOAD PUSH1 0x1 PUSH1 0x1 PUSH1 0xA0 SHL SUB AND ISZERO PUSH2 0x2764 JUMPI PUSH1 0x40 MLOAD PUSH3 0x461BCD PUSH1 0xE5 SHL DUP2 MSTORE PUSH1 0x20 PUSH1 0x4 DUP3 ADD MSTORE PUSH1 0x1C PUSH1 0x24 DUP3 ADD MSTORE PUSH32 0x4552433732313A20746F6B656E20616C7265616479206D696E74656400000000 PUSH1 0x44 DUP3 ADD MSTORE PUSH1 0x64 ADD PUSH2 0xB77 JUMP JUMPDEST PUSH1 0x0 DUP2 DUP2 MSTORE PUSH1 0x2 PUSH1 0x20 MSTORE PUSH1 0x40 SWAP1 KECCAK256 SLOAD PUSH1 0x1 PUSH1 0x1 PUSH1 0xA0 SHL SUB AND ISZERO PUSH2 0x27C9 JUMPI PUSH1 0x40 MLOAD PUSH3 0x461BCD PUSH1 0xE5 SHL DUP2 MSTORE PUSH1 0x20 PUSH1 0x4 DUP3 ADD MSTORE PUSH1 0x1C PUSH1 0x24 DUP3 ADD MSTORE PUSH32 0x4552433732313A20746F6B656E20616C7265616479206D696E74656400000000 PUSH1 0x44 DUP3 ADD MSTORE PUSH1 0x64 ADD PUSH2 0xB77 JUMP JUMPDEST PUSH1 0x1 PUSH1 0x1 PUSH1 0xA0 SHL SUB DUP3 AND PUSH1 0x0 DUP2 DUP2 MSTORE PUSH1 0x3 PUSH1 0x20 SWAP1 DUP2 MSTORE PUSH1 0x40 DUP1 DUP4 KECCAK256 DUP1 SLOAD PUSH1 0x1 ADD SWAP1 SSTORE DUP5 DUP4 MSTORE PUSH1 0x2 SWAP1 SWAP2 MSTORE DUP1 DUP3 KECCAK256 DUP1 SLOAD PUSH1 0x1 PUSH1 0x1 PUSH1 0xA0 SHL SUB NOT AND DUP5 OR SWAP1 SSTORE MLOAD DUP4 SWAP3 SWAP2 SWAP1 PUSH32 0xDDF252AD1BE2C89B69C2B068FC378DAA952BA7F163C4A11628F55A4DF523B3EF SWAP1 DUP3 SWAP1 LOG4 POP POP JUMP JUMPDEST PUSH2 0x283C PUSH2 0x2CA9 JUMP JUMPDEST SELFBALANCE DUP1 PUSH2 0x2896 JUMPI PUSH1 0x40 MLOAD PUSH3 0x461BCD PUSH1 0xE5 SHL DUP2 MSTORE PUSH1 0x20 PUSH1 0x4 DUP3 ADD MSTORE PUSH1 0x23 PUSH1 0x24 DUP3 ADD MSTORE PUSH32 0x4E6F2066756E647320617661696C61626C6520666F7220646973747269627574 PUSH1 0x44 DUP3 ADD MSTORE PUSH3 0x34B7B7 PUSH1 0xE9 SHL PUSH1 0x64 DUP3 ADD MSTORE PUSH1 0x84 ADD PUSH2 0xB77 JUMP JUMPDEST PUSH1 0xA SLOAD PUSH1 0x1B SLOAD PUSH1 0x1 PUSH1 0x1 PUSH1 0xA0 SHL SUB SWAP1 SWAP2 AND SWAP1 PUSH2 0x8FC SWAP1 PUSH1 0x64 SWAP1 PUSH2 0x28B9 SWAP1 DUP6 PUSH2 0x3679 JUMP JUMPDEST PUSH2 0x28C3 SWAP2 SWAP1 PUSH2 0x359B JUMP JUMPDEST PUSH1 0x40 MLOAD DUP2 ISZERO SWAP1 SWAP3 MUL SWAP2 PUSH1 0x0 DUP2 DUP2 DUP2 DUP6 DUP9 DUP9 CALL SWAP4 POP POP POP POP ISZERO DUP1 ISZERO PUSH2 0x28EB JUMPI RETURNDATASIZE PUSH1 0x0 DUP1 RETURNDATACOPY RETURNDATASIZE PUSH1 0x0 REVERT JUMPDEST POP PUSH1 0xB SLOAD PUSH1 0x1C SLOAD PUSH1 0x1 PUSH1 0x1 PUSH1 0xA0 SHL SUB SWAP1 SWAP2 AND SWAP1 PUSH2 0x8FC SWAP1 PUSH1 0x64 SWAP1 PUSH2 0x290F SWAP1 DUP6 PUSH2 0x3679 JUMP JUMPDEST PUSH2 0x2919 SWAP2 SWAP1 PUSH2 0x359B JUMP JUMPDEST PUSH1 0x40 MLOAD DUP2 ISZERO SWAP1 SWAP3 MUL SWAP2 PUSH1 0x0 DUP2 DUP2 DUP2 DUP6 DUP9 DUP9 CALL SWAP4 POP POP POP POP ISZERO DUP1 ISZERO PUSH2 0x2941 JUMPI RETURNDATASIZE PUSH1 0x0 DUP1 RETURNDATACOPY RETURNDATASIZE PUSH1 0x0 REVERT JUMPDEST POP PUSH1 0xC SLOAD PUSH1 0x1D SLOAD PUSH1 0x1 PUSH1 0x1 PUSH1 0xA0 SHL SUB SWAP1 SWAP2 AND SWAP1 PUSH2 0x8FC SWAP1 PUSH1 0x64 SWAP1 PUSH2 0x2965 SWAP1 DUP6 PUSH2 0x3679 JUMP JUMPDEST PUSH2 0x296F SWAP2 SWAP1 PUSH2 0x359B JUMP JUMPDEST PUSH1 0x40 MLOAD DUP2 ISZERO SWAP1 SWAP3 MUL SWAP2 PUSH1 0x0 DUP2 DUP2 DUP2 DUP6 DUP9 DUP9 CALL SWAP4 POP POP POP POP ISZERO DUP1 ISZERO PUSH2 0x2997 JUMPI RETURNDATASIZE PUSH1 0x0 DUP1 RETURNDATACOPY RETURNDATASIZE PUSH1 0x0 REVERT JUMPDEST POP PUSH1 0xD SLOAD PUSH1 0x1E SLOAD PUSH1 0x1 PUSH1 0x1 PUSH1 0xA0 SHL SUB SWAP1 SWAP2 AND SWAP1 PUSH2 0x8FC SWAP1 PUSH1 0x64 SWAP1 PUSH2 0x29BB SWAP1 DUP6 PUSH2 0x3679 JUMP JUMPDEST PUSH2 0x29C5 SWAP2 SWAP1 PUSH2 0x359B JUMP JUMPDEST PUSH1 0x40 MLOAD DUP2 ISZERO SWAP1 SWAP3 MUL SWAP2 PUSH1 0x0 DUP2 DUP2 DUP2 DUP6 DUP9 DUP9 CALL SWAP4 POP POP POP POP ISZERO DUP1 ISZERO PUSH2 0x29ED JUMPI RETURNDATASIZE PUSH1 0x0 DUP1 RETURNDATACOPY RETURNDATASIZE PUSH1 0x0 REVERT JUMPDEST POP PUSH1 0xE SLOAD PUSH1 0x1F SLOAD PUSH1 0x1 PUSH1 0x1 PUSH1 0xA0 SHL SUB SWAP1 SWAP2 AND SWAP1 PUSH2 0x8FC SWAP1 PUSH1 0x64 SWAP1 PUSH2 0x2A11 SWAP1 DUP6 PUSH2 0x3679 JUMP JUMPDEST PUSH2 0x2A1B SWAP2 SWAP1 PUSH2 0x359B JUMP JUMPDEST PUSH1 0x40 MLOAD DUP2 ISZERO SWAP1 SWAP3 MUL SWAP2 PUSH1 0x0 DUP2 DUP2 DUP2 DUP6 DUP9 DUP9 CALL SWAP4 POP POP POP POP ISZERO DUP1 ISZERO PUSH2 0x2A43 JUMPI RETURNDATASIZE PUSH1 0x0 DUP1 RETURNDATACOPY RETURNDATASIZE PUSH1 0x0 REVERT JUMPDEST POP POP PUSH2 0x170F PUSH1 0x1 PUSH1 0x8 SSTORE JUMP JUMPDEST PUSH1 0x0 DUP3 DUP2 MSTORE PUSH1 0x2 PUSH1 0x20 MSTORE PUSH1 0x40 SWAP1 KECCAK256 SLOAD PUSH1 0x1 PUSH1 0x1 PUSH1 0xA0 SHL SUB AND PUSH2 0x2ACA JUMPI PUSH1 0x40 MLOAD PUSH3 0x461BCD PUSH1 0xE5 SHL DUP2 MSTORE PUSH1 0x20 PUSH1 0x4 DUP3 ADD MSTORE PUSH1 0x2E PUSH1 0x24 DUP3 ADD MSTORE PUSH32 0x45524337323155524953746F726167653A2055524920736574206F66206E6F6E PUSH1 0x44 DUP3 ADD MSTORE PUSH14 0x32BC34B9BA32B73A103A37B5B2B7 PUSH1 0x91 SHL PUSH1 0x64 DUP3 ADD MSTORE PUSH1 0x84 ADD PUSH2 0xB77 JUMP JUMPDEST PUSH1 0x0 DUP3 DUP2 MSTORE PUSH1 0x6 PUSH1 0x20 MSTORE PUSH1 0x40 SWAP1 KECCAK256 PUSH2 0xC18 DUP3 DUP3 PUSH2 0x34AF JUMP JUMPDEST PUSH1 0x7 DUP1 SLOAD PUSH1 0x1 PUSH1 0x1 PUSH1 0xA0 SHL SUB DUP4 DUP2 AND PUSH1 0x1 PUSH1 0x1 PUSH1 0xA0 SHL SUB NOT DUP4 AND DUP2 OR SWAP1 SWAP4 SSTORE PUSH1 0x40 MLOAD SWAP2 AND SWAP2 SWAP1 DUP3 SWAP1 PUSH32 0x8BE0079C531659141344CD1FD0A4F28419497F9722A3DAAFE3B4186F6B6457E0 SWAP1 PUSH1 0x0 SWAP1 LOG3 POP POP JUMP JUMPDEST DUP2 PUSH1 0x1 PUSH1 0x1 PUSH1 0xA0 SHL SUB AND DUP4 PUSH1 0x1 PUSH1 0x1 PUSH1 0xA0 SHL SUB AND SUB PUSH2 0x2B95 JUMPI PUSH1 0x40 MLOAD PUSH3 0x461BCD PUSH1 0xE5 SHL DUP2 MSTORE PUSH1 0x20 PUSH1 0x4 DUP3 ADD MSTORE PUSH1 0x19 PUSH1 0x24 DUP3 ADD MSTORE PUSH32 0x4552433732313A20617070726F766520746F2063616C6C657200000000000000 PUSH1 0x44 DUP3 ADD MSTORE PUSH1 0x64 ADD PUSH2 0xB77 JUMP JUMPDEST PUSH1 0x1 PUSH1 0x1 PUSH1 0xA0 SHL SUB DUP4 DUP2 AND PUSH1 0x0 DUP2 DUP2 MSTORE PUSH1 0x5 PUSH1 0x20 SWAP1 DUP2 MSTORE PUSH1 0x40 DUP1 DUP4 KECCAK256 SWAP5 DUP8 AND DUP1 DUP5 MSTORE SWAP5 DUP3 MSTORE SWAP2 DUP3 SWAP1 KECCAK256 DUP1 SLOAD PUSH1 0xFF NOT AND DUP7 ISZERO ISZERO SWAP1 DUP2 OR SWAP1 SWAP2 SSTORE SWAP2 MLOAD SWAP2 DUP3 MSTORE PUSH32 0x17307EAB39AB6107E8899845AD3D59BD9653F200F220920489CA2B5937696C31 SWAP2 ADD PUSH1 0x40 MLOAD DUP1 SWAP2 SUB SWAP1 LOG3 POP POP POP JUMP JUMPDEST PUSH2 0x2C0D DUP5 DUP5 DUP5 PUSH2 0x2545 JUMP JUMPDEST PUSH2 0x2C19 DUP5 DUP5 DUP5 DUP5 PUSH2 0x2D02 JUMP JUMPDEST PUSH2 0x12D5 JUMPI PUSH1 0x40 MLOAD PUSH3 0x461BCD PUSH1 0xE5 SHL DUP2 MSTORE PUSH1 0x4 ADD PUSH2 0xB77 SWAP1 PUSH2 0x3690 JUMP JUMPDEST PUSH1 0x60 PUSH2 0x2C40 DUP3 PUSH2 0x23FA JUMP JUMPDEST PUSH1 0x0 PUSH2 0x2C57 PUSH1 0x40 DUP1 MLOAD PUSH1 0x20 DUP2 ADD SWAP1 SWAP2 MSTORE PUSH1 0x0 DUP2 MSTORE SWAP1 JUMP JUMPDEST SWAP1 POP PUSH1 0x0 DUP2 MLOAD GT PUSH2 0x2C77 JUMPI PUSH1 0x40 MLOAD DUP1 PUSH1 0x20 ADD PUSH1 0x40 MSTORE DUP1 PUSH1 0x0 DUP2 MSTORE POP PUSH2 0x2CA2 JUMP JUMPDEST DUP1 PUSH2 0x2C81 DUP5 PUSH2 0x2E03 JUMP JUMPDEST PUSH1 0x40 MLOAD PUSH1 0x20 ADD PUSH2 0x2C92 SWAP3 SWAP2 SWAP1 PUSH2 0x35BD JUMP JUMPDEST PUSH1 0x40 MLOAD PUSH1 0x20 DUP2 DUP4 SUB SUB DUP2 MSTORE SWAP1 PUSH1 0x40 MSTORE JUMPDEST SWAP4 SWAP3 POP POP POP JUMP JUMPDEST PUSH1 0x2 PUSH1 0x8 SLOAD SUB PUSH2 0x2CFB JUMPI PUSH1 0x40 MLOAD PUSH3 0x461BCD PUSH1 0xE5 SHL DUP2 MSTORE PUSH1 0x20 PUSH1 0x4 DUP3 ADD MSTORE PUSH1 0x1F PUSH1 0x24 DUP3 ADD MSTORE PUSH32 0x5265656E7472616E637947756172643A207265656E7472616E742063616C6C00 PUSH1 0x44 DUP3 ADD MSTORE PUSH1 0x64 ADD PUSH2 0xB77 JUMP JUMPDEST PUSH1 0x2 PUSH1 0x8 SSTORE JUMP JUMPDEST PUSH1 0x0 PUSH1 0x1 PUSH1 0x1 PUSH1 0xA0 SHL SUB DUP5 AND EXTCODESIZE ISZERO PUSH2 0x2DF8 JUMPI PUSH1 0x40 MLOAD PUSH4 0xA85BD01 PUSH1 0xE1 SHL DUP2 MSTORE PUSH1 0x1 PUSH1 0x1 PUSH1 0xA0 SHL SUB DUP6 AND SWAP1 PUSH4 0x150B7A02 SWAP1 PUSH2 0x2D46 SWAP1 CALLER SWAP1 DUP10 SWAP1 DUP9 SWAP1 DUP9 SWAP1 PUSH1 0x4 ADD PUSH2 0x36E2 JUMP JUMPDEST PUSH1 0x20 PUSH1 0x40 MLOAD DUP1 DUP4 SUB DUP2 PUSH1 0x0 DUP8 GAS CALL SWAP3 POP POP POP DUP1 ISZERO PUSH2 0x2D81 JUMPI POP PUSH1 0x40 DUP1 MLOAD PUSH1 0x1F RETURNDATASIZE SWAP1 DUP2 ADD PUSH1 0x1F NOT AND DUP3 ADD SWAP1 SWAP3 MSTORE PUSH2 0x2D7E SWAP2 DUP2 ADD SWAP1 PUSH2 0x371F JUMP JUMPDEST PUSH1 0x1 JUMPDEST PUSH2 0x2DDE JUMPI RETURNDATASIZE DUP1 DUP1 ISZERO PUSH2 0x2DAF JUMPI PUSH1 0x40 MLOAD SWAP2 POP PUSH1 0x1F NOT PUSH1 0x3F RETURNDATASIZE ADD AND DUP3 ADD PUSH1 0x40 MSTORE RETURNDATASIZE DUP3 MSTORE RETURNDATASIZE PUSH1 0x0 PUSH1 0x20 DUP5 ADD RETURNDATACOPY PUSH2 0x2DB4 JUMP JUMPDEST PUSH1 0x60 SWAP2 POP JUMPDEST POP DUP1 MLOAD PUSH1 0x0 SUB PUSH2 0x2DD6 JUMPI PUSH1 0x40 MLOAD PUSH3 0x461BCD PUSH1 0xE5 SHL DUP2 MSTORE PUSH1 0x4 ADD PUSH2 0xB77 SWAP1 PUSH2 0x3690 JUMP JUMPDEST DUP1 MLOAD DUP2 PUSH1 0x20 ADD REVERT JUMPDEST PUSH1 0x1 PUSH1 0x1 PUSH1 0xE0 SHL SUB NOT AND PUSH4 0xA85BD01 PUSH1 0xE1 SHL EQ SWAP1 POP PUSH2 0x19D0 JUMP JUMPDEST POP PUSH1 0x1 SWAP5 SWAP4 POP POP POP POP JUMP JUMPDEST PUSH1 0x60 PUSH1 0x0 PUSH2 0x2E10 DUP4 PUSH2 0x2E96 JUMP JUMPDEST PUSH1 0x1 ADD SWAP1 POP PUSH1 0x0 DUP2 PUSH8 0xFFFFFFFFFFFFFFFF DUP2 GT ISZERO PUSH2 0x2E30 JUMPI PUSH2 0x2E30 PUSH2 0x314F JUMP JUMPDEST PUSH1 0x40 MLOAD SWAP1 DUP1 DUP3 MSTORE DUP1 PUSH1 0x1F ADD PUSH1 0x1F NOT AND PUSH1 0x20 ADD DUP3 ADD PUSH1 0x40 MSTORE DUP1 ISZERO PUSH2 0x2E5A JUMPI PUSH1 0x20 DUP3 ADD DUP2 DUP1 CALLDATASIZE DUP4 CALLDATACOPY ADD SWAP1 POP JUMPDEST POP SWAP1 POP DUP2 DUP2 ADD PUSH1 0x20 ADD JUMPDEST PUSH1 0x0 NOT ADD PUSH16 0x181899199A1A9B1B9C1CB0B131B232B3 PUSH1 0x81 SHL PUSH1 0xA DUP7 MOD BYTE DUP2 MSTORE8 PUSH1 0xA DUP6 DIV SWAP5 POP DUP5 PUSH2 0x2E64 JUMPI POP SWAP4 SWAP3 POP POP POP JUMP JUMPDEST PUSH1 0x0 DUP1 PUSH19 0x184F03E93FF9F4DAA797ED6E38ED64BF6A1F01 PUSH1 0x40 SHL DUP4 LT PUSH2 0x2ED5 JUMPI PUSH19 0x184F03E93FF9F4DAA797ED6E38ED64BF6A1F01 PUSH1 0x40 SHL DUP4 DIV SWAP3 POP PUSH1 0x40 ADD JUMPDEST PUSH14 0x4EE2D6D415B85ACEF8100000000 DUP4 LT PUSH2 0x2F01 JUMPI PUSH14 0x4EE2D6D415B85ACEF8100000000 DUP4 DIV SWAP3 POP PUSH1 0x20 ADD JUMPDEST PUSH7 0x2386F26FC10000 DUP4 LT PUSH2 0x2F1F JUMPI PUSH7 0x2386F26FC10000 DUP4 DIV SWAP3 POP PUSH1 0x10 ADD JUMPDEST PUSH4 0x5F5E100 DUP4 LT PUSH2 0x2F37 JUMPI PUSH4 0x5F5E100 DUP4 DIV SWAP3 POP PUSH1 0x8 ADD JUMPDEST PUSH2 0x2710 DUP4 LT PUSH2 0x2F4B JUMPI PUSH2 0x2710 DUP4 DIV SWAP3 POP PUSH1 0x4 ADD JUMPDEST PUSH1 0x64 DUP4 LT PUSH2 0x2F5D JUMPI PUSH1 0x64 DUP4 DIV SWAP3 POP PUSH1 0x2 ADD JUMPDEST PUSH1 0xA DUP4 LT PUSH2 0xA0B JUMPI PUSH1 0x1 ADD SWAP3 SWAP2 POP POP JUMP JUMPDEST PUSH1 0x1 PUSH1 0x1 PUSH1 0xE0 SHL SUB NOT DUP2 AND DUP2 EQ PUSH2 0x1DCE JUMPI PUSH1 0x0 DUP1 REVERT JUMPDEST PUSH1 0x0 PUSH1 0x20 DUP3 DUP5 SUB SLT ISZERO PUSH2 0x2F96 JUMPI PUSH1 0x0 DUP1 REVERT JUMPDEST DUP2 CALLDATALOAD PUSH2 0x2CA2 DUP2 PUSH2 0x2F6E JUMP JUMPDEST PUSH1 0x0 PUSH1 0x20 DUP3 DUP5 SUB SLT ISZERO PUSH2 0x2FB3 JUMPI PUSH1 0x0 DUP1 REVERT JUMPDEST POP CALLDATALOAD SWAP2 SWAP1 POP JUMP JUMPDEST PUSH1 0x0 JUMPDEST DUP4 DUP2 LT ISZERO PUSH2 0x2FD5 JUMPI DUP2 DUP2 ADD MLOAD DUP4 DUP3 ADD MSTORE PUSH1 0x20 ADD PUSH2 0x2FBD JUMP JUMPDEST POP POP PUSH1 0x0 SWAP2 ADD MSTORE JUMP JUMPDEST PUSH1 0x0 DUP2 MLOAD DUP1 DUP5 MSTORE PUSH2 0x2FF6 DUP2 PUSH1 0x20 DUP7 ADD PUSH1 0x20 DUP7 ADD PUSH2 0x2FBA JUMP JUMPDEST PUSH1 0x1F ADD PUSH1 0x1F NOT AND SWAP3 SWAP1 SWAP3 ADD PUSH1 0x20 ADD SWAP3 SWAP2 POP POP JUMP JUMPDEST PUSH1 0x20 DUP2 MSTORE PUSH1 0x0 PUSH2 0x2CA2 PUSH1 0x20 DUP4 ADD DUP5 PUSH2 0x2FDE JUMP JUMPDEST PUSH1 0x1 PUSH1 0x1 PUSH1 0xA0 SHL SUB DUP2 AND DUP2 EQ PUSH2 0x1DCE JUMPI PUSH1 0x0 DUP1 REVERT JUMPDEST PUSH1 0x0 DUP1 PUSH1 0x40 DUP4 DUP6 SUB SLT ISZERO PUSH2 0x3045 JUMPI PUSH1 0x0 DUP1 REVERT JUMPDEST DUP3 CALLDATALOAD PUSH2 0x3050 DUP2 PUSH2 0x301D JUMP JUMPDEST SWAP5 PUSH1 0x20 SWAP4 SWAP1 SWAP4 ADD CALLDATALOAD SWAP4 POP POP POP JUMP JUMPDEST PUSH1 0x0 PUSH1 0x20 DUP3 DUP5 SUB SLT ISZERO PUSH2 0x3070 JUMPI PUSH1 0x0 DUP1 REVERT JUMPDEST DUP2 CALLDATALOAD PUSH2 0x2CA2 DUP2 PUSH2 0x301D JUMP JUMPDEST PUSH1 0x40 DUP2 MSTORE PUSH1 0x0 PUSH2 0x308E PUSH1 0x40 DUP4 ADD DUP6 PUSH2 0x2FDE JUMP JUMPDEST SWAP1 POP DUP3 PUSH1 0x20 DUP4 ADD MSTORE SWAP4 SWAP3 POP POP POP JUMP JUMPDEST PUSH1 0x0 DUP1 PUSH1 0x0 PUSH1 0x60 DUP5 DUP7 SUB SLT ISZERO PUSH2 0x30B2 JUMPI PUSH1 0x0 DUP1 REVERT JUMPDEST DUP4 CALLDATALOAD PUSH2 0x30BD DUP2 PUSH2 0x301D JUMP JUMPDEST SWAP3 POP PUSH1 0x20 DUP5 ADD CALLDATALOAD PUSH2 0x30CD DUP2 PUSH2 0x301D JUMP JUMPDEST SWAP3 SWAP6 SWAP3 SWAP5 POP POP POP PUSH1 0x40 SWAP2 SWAP1 SWAP2 ADD CALLDATALOAD SWAP1 JUMP JUMPDEST PUSH1 0x0 DUP1 PUSH1 0x0 DUP1 PUSH1 0x0 PUSH1 0xA0 DUP7 DUP9 SUB SLT ISZERO PUSH2 0x30F6 JUMPI PUSH1 0x0 DUP1 REVERT JUMPDEST DUP6 CALLDATALOAD PUSH2 0x3101 DUP2 PUSH2 0x301D JUMP JUMPDEST SWAP5 POP PUSH1 0x20 DUP7 ADD CALLDATALOAD PUSH2 0x3111 DUP2 PUSH2 0x301D JUMP JUMPDEST SWAP4 POP PUSH1 0x40 DUP7 ADD CALLDATALOAD PUSH2 0x3121 DUP2 PUSH2 0x301D JUMP JUMPDEST SWAP3 POP PUSH1 0x60 DUP7 ADD CALLDATALOAD PUSH2 0x3131 DUP2 PUSH2 0x301D JUMP JUMPDEST SWAP2 POP PUSH1 0x80 DUP7 ADD CALLDATALOAD PUSH2 0x3141 DUP2 PUSH2 0x301D JUMP JUMPDEST DUP1 SWAP2 POP POP SWAP3 SWAP6 POP SWAP3 SWAP6 SWAP1 SWAP4 POP JUMP JUMPDEST PUSH4 0x4E487B71 PUSH1 0xE0 SHL PUSH1 0x0 MSTORE PUSH1 0x41 PUSH1 0x4 MSTORE PUSH1 0x24 PUSH1 0x0 REVERT JUMPDEST PUSH1 0x0 PUSH8 0xFFFFFFFFFFFFFFFF DUP1 DUP5 GT ISZERO PUSH2 0x3180 JUMPI PUSH2 0x3180 PUSH2 0x314F JUMP JUMPDEST PUSH1 0x40 MLOAD PUSH1 0x1F DUP6 ADD PUSH1 0x1F NOT SWAP1 DUP2 AND PUSH1 0x3F ADD AND DUP2 ADD SWAP1 DUP3 DUP3 GT DUP2 DUP4 LT OR ISZERO PUSH2 0x31A8 JUMPI PUSH2 0x31A8 PUSH2 0x314F JUMP JUMPDEST DUP2 PUSH1 0x40 MSTORE DUP1 SWAP4 POP DUP6 DUP2 MSTORE DUP7 DUP7 DUP7 ADD GT ISZERO PUSH2 0x31C1 JUMPI PUSH1 0x0 DUP1 REVERT JUMPDEST DUP6 DUP6 PUSH1 0x20 DUP4 ADD CALLDATACOPY PUSH1 0x0 PUSH1 0x20 DUP8 DUP4 ADD ADD MSTORE POP POP POP SWAP4 SWAP3 POP POP POP JUMP JUMPDEST PUSH1 0x0 PUSH1 0x20 DUP3 DUP5 SUB SLT ISZERO PUSH2 0x31ED JUMPI PUSH1 0x0 DUP1 REVERT JUMPDEST DUP2 CALLDATALOAD PUSH8 0xFFFFFFFFFFFFFFFF DUP2 GT ISZERO PUSH2 0x3204 JUMPI PUSH1 0x0 DUP1 REVERT JUMPDEST DUP3 ADD PUSH1 0x1F DUP2 ADD DUP5 SGT PUSH2 0x3215 JUMPI PUSH1 0x0 DUP1 REVERT JUMPDEST PUSH2 0x19D0 DUP5 DUP3 CALLDATALOAD PUSH1 0x20 DUP5 ADD PUSH2 0x3165 JUMP JUMPDEST PUSH1 0x0 DUP1 PUSH1 0x0 DUP1 PUSH1 0x0 PUSH1 0xA0 DUP7 DUP9 SUB SLT ISZERO PUSH2 0x323C JUMPI PUSH1 0x0 DUP1 REVERT JUMPDEST POP POP DUP4 CALLDATALOAD SWAP6 PUSH1 0x20 DUP6 ADD CALLDATALOAD SWAP6 POP PUSH1 0x40 DUP6 ADD CALLDATALOAD SWAP5 PUSH1 0x60 DUP2 ADD CALLDATALOAD SWAP5 POP PUSH1 0x80 ADD CALLDATALOAD SWAP3 POP SWAP1 POP JUMP JUMPDEST PUSH1 0x0 DUP1 PUSH1 0x40 DUP4 DUP6 SUB SLT ISZERO PUSH2 0x3272 JUMPI PUSH1 0x0 DUP1 REVERT JUMPDEST DUP3 CALLDATALOAD PUSH2 0x327D DUP2 PUSH2 0x301D JUMP JUMPDEST SWAP2 POP PUSH1 0x20 DUP4 ADD CALLDATALOAD DUP1 ISZERO ISZERO DUP2 EQ PUSH2 0x3292 JUMPI PUSH1 0x0 DUP1 REVERT JUMPDEST DUP1 SWAP2 POP POP SWAP3 POP SWAP3 SWAP1 POP JUMP JUMPDEST PUSH1 0x0 DUP1 PUSH1 0x0 DUP1 PUSH1 0x80 DUP6 DUP8 SUB SLT ISZERO PUSH2 0x32B3 JUMPI PUSH1 0x0 DUP1 REVERT JUMPDEST DUP5 CALLDATALOAD PUSH2 0x32BE DUP2 PUSH2 0x301D JUMP JUMPDEST SWAP4 POP PUSH1 0x20 DUP6 ADD CALLDATALOAD PUSH2 0x32CE DUP2 PUSH2 0x301D JUMP JUMPDEST SWAP3 POP PUSH1 0x40 DUP6 ADD CALLDATALOAD SWAP2 POP PUSH1 0x60 DUP6 ADD CALLDATALOAD PUSH8 0xFFFFFFFFFFFFFFFF DUP2 GT ISZERO PUSH2 0x32F1 JUMPI PUSH1 0x0 DUP1 REVERT JUMPDEST DUP6 ADD PUSH1 0x1F DUP2 ADD DUP8 SGT PUSH2 0x3302 JUMPI PUSH1 0x0 DUP1 REVERT JUMPDEST PUSH2 0x3311 DUP8 DUP3 CALLDATALOAD PUSH1 0x20 DUP5 ADD PUSH2 0x3165 JUMP JUMPDEST SWAP2 POP POP SWAP3 SWAP6 SWAP2 SWAP5 POP SWAP3 POP JUMP JUMPDEST PUSH1 0x0 DUP1 PUSH1 0x40 DUP4 DUP6 SUB SLT ISZERO PUSH2 0x3330 JUMPI PUSH1 0x0 DUP1 REVERT JUMPDEST DUP3 CALLDATALOAD PUSH2 0x333B DUP2 PUSH2 0x301D JUMP JUMPDEST SWAP2 POP PUSH1 0x20 DUP4 ADD CALLDATALOAD PUSH2 0x3292 DUP2 PUSH2 0x301D JUMP JUMPDEST PUSH4 0x4E487B71 PUSH1 0xE0 SHL PUSH1 0x0 MSTORE PUSH1 0x32 PUSH1 0x4 MSTORE PUSH1 0x24 PUSH1 0x0 REVERT JUMPDEST PUSH1 0x1 DUP2 DUP2 SHR SWAP1 DUP3 AND DUP1 PUSH2 0x3375 JUMPI PUSH1 0x7F DUP3 AND SWAP2 POP JUMPDEST PUSH1 0x20 DUP3 LT DUP2 SUB PUSH2 0x3395 JUMPI PUSH4 0x4E487B71 PUSH1 0xE0 SHL PUSH1 0x0 MSTORE PUSH1 0x22 PUSH1 0x4 MSTORE PUSH1 0x24 PUSH1 0x0 REVERT JUMPDEST POP SWAP2 SWAP1 POP JUMP JUMPDEST PUSH4 0x4E487B71 PUSH1 0xE0 SHL PUSH1 0x0 MSTORE PUSH1 0x11 PUSH1 0x4 MSTORE PUSH1 0x24 PUSH1 0x0 REVERT JUMPDEST DUP1 DUP3 ADD DUP1 DUP3 GT ISZERO PUSH2 0xA0B JUMPI PUSH2 0xA0B PUSH2 0x339B JUMP JUMPDEST PUSH1 0x0 PUSH1 0x1 DUP3 ADD PUSH2 0x33D6 JUMPI PUSH2 0x33D6 PUSH2 0x339B JUMP JUMPDEST POP PUSH1 0x1 ADD SWAP1 JUMP JUMPDEST PUSH1 0x20 DUP1 DUP3 MSTORE PUSH1 0x2D SWAP1 DUP3 ADD MSTORE PUSH32 0x4552433732313A2063616C6C6572206973206E6F7420746F6B656E206F776E65 PUSH1 0x40 DUP3 ADD MSTORE PUSH13 0x1C881BDC88185C1C1C9BDD9959 PUSH1 0x9A SHL PUSH1 0x60 DUP3 ADD MSTORE PUSH1 0x80 ADD SWAP1 JUMP JUMPDEST PUSH1 0x20 DUP1 DUP3 MSTORE PUSH1 0x1F SWAP1 DUP3 ADD MSTORE PUSH32 0x4D696E7420636F6F6C646F776E20706572696F64206E6F742070617373656400 PUSH1 0x40 DUP3 ADD MSTORE PUSH1 0x60 ADD SWAP1 JUMP JUMPDEST PUSH1 0x1F DUP3 GT ISZERO PUSH2 0xC18 JUMPI PUSH1 0x0 DUP2 DUP2 MSTORE PUSH1 0x20 DUP2 KECCAK256 PUSH1 0x1F DUP6 ADD PUSH1 0x5 SHR DUP2 ADD PUSH1 0x20 DUP7 LT ISZERO PUSH2 0x3488 JUMPI POP DUP1 JUMPDEST PUSH1 0x1F DUP6 ADD PUSH1 0x5 SHR DUP3 ADD SWAP2 POP JUMPDEST DUP2 DUP2 LT ISZERO PUSH2 0x34A7 JUMPI DUP3 DUP2 SSTORE PUSH1 0x1 ADD PUSH2 0x3494 JUMP JUMPDEST POP POP POP POP POP POP JUMP JUMPDEST DUP2 MLOAD PUSH8 0xFFFFFFFFFFFFFFFF DUP2 GT ISZERO PUSH2 0x34C9 JUMPI PUSH2 0x34C9 PUSH2 0x314F JUMP JUMPDEST PUSH2 0x34DD DUP2 PUSH2 0x34D7 DUP5 SLOAD PUSH2 0x3361 JUMP JUMPDEST DUP5 PUSH2 0x3461 JUMP JUMPDEST PUSH1 0x20 DUP1 PUSH1 0x1F DUP4 GT PUSH1 0x1 DUP2 EQ PUSH2 0x3512 JUMPI PUSH1 0x0 DUP5 ISZERO PUSH2 0x34FA JUMPI POP DUP6 DUP4 ADD MLOAD JUMPDEST PUSH1 0x0 NOT PUSH1 0x3 DUP7 SWAP1 SHL SHR NOT AND PUSH1 0x1 DUP6 SWAP1 SHL OR DUP6 SSTORE PUSH2 0x34A7 JUMP JUMPDEST PUSH1 0x0 DUP6 DUP2 MSTORE PUSH1 0x20 DUP2 KECCAK256 PUSH1 0x1F NOT DUP7 AND SWAP2 JUMPDEST DUP3 DUP2 LT ISZERO PUSH2 0x3541 JUMPI DUP9 DUP7 ADD MLOAD DUP3 SSTORE SWAP5 DUP5 ADD SWAP5 PUSH1 0x1 SWAP1 SWAP2 ADD SWAP1 DUP5 ADD PUSH2 0x3522 JUMP JUMPDEST POP DUP6 DUP3 LT ISZERO PUSH2 0x355F JUMPI DUP8 DUP6 ADD MLOAD PUSH1 0x0 NOT PUSH1 0x3 DUP9 SWAP1 SHL PUSH1 0xF8 AND SHR NOT AND DUP2 SSTORE JUMPDEST POP POP POP POP POP PUSH1 0x1 SWAP1 DUP2 SHL ADD SWAP1 SSTORE POP JUMP JUMPDEST DUP3 DUP2 MSTORE PUSH1 0x40 PUSH1 0x20 DUP3 ADD MSTORE PUSH1 0x0 PUSH2 0x19D0 PUSH1 0x40 DUP4 ADD DUP5 PUSH2 0x2FDE JUMP JUMPDEST DUP2 DUP2 SUB DUP2 DUP2 GT ISZERO PUSH2 0xA0B JUMPI PUSH2 0xA0B PUSH2 0x339B JUMP JUMPDEST PUSH1 0x0 DUP3 PUSH2 0x35B8 JUMPI PUSH4 0x4E487B71 PUSH1 0xE0 SHL PUSH1 0x0 MSTORE PUSH1 0x12 PUSH1 0x4 MSTORE PUSH1 0x24 PUSH1 0x0 REVERT JUMPDEST POP DIV SWAP1 JUMP JUMPDEST PUSH1 0x0 DUP4 MLOAD PUSH2 0x35CF DUP2 DUP5 PUSH1 0x20 DUP9 ADD PUSH2 0x2FBA JUMP JUMPDEST DUP4 MLOAD SWAP1 DUP4 ADD SWAP1 PUSH2 0x35E3 DUP2 DUP4 PUSH1 0x20 DUP9 ADD PUSH2 0x2FBA JUMP JUMPDEST ADD SWAP5 SWAP4 POP POP POP POP JUMP JUMPDEST PUSH1 0x20 DUP1 DUP3 MSTORE PUSH1 0x28 SWAP1 DUP3 ADD MSTORE PUSH32 0x495046532068617368206C656E6774682073686F756C64206265203632206368 PUSH1 0x40 DUP3 ADD MSTORE PUSH8 0x6172616374657273 PUSH1 0xC0 SHL PUSH1 0x60 DUP3 ADD MSTORE PUSH1 0x80 ADD SWAP1 JUMP JUMPDEST PUSH1 0x20 DUP1 DUP3 MSTORE PUSH1 0x25 SWAP1 DUP3 ADD MSTORE PUSH32 0x4552433732313A207472616E736665722066726F6D20696E636F727265637420 PUSH1 0x40 DUP3 ADD MSTORE PUSH5 0x37BBB732B9 PUSH1 0xD9 SHL PUSH1 0x60 DUP3 ADD MSTORE PUSH1 0x80 ADD SWAP1 JUMP JUMPDEST DUP1 DUP3 MUL DUP2 ISZERO DUP3 DUP3 DIV DUP5 EQ OR PUSH2 0xA0B JUMPI PUSH2 0xA0B PUSH2 0x339B JUMP JUMPDEST PUSH1 0x20 DUP1 DUP3 MSTORE PUSH1 0x32 SWAP1 DUP3 ADD MSTORE PUSH32 0x4552433732313A207472616E7366657220746F206E6F6E204552433732315265 PUSH1 0x40 DUP3 ADD MSTORE PUSH18 0x31B2B4BB32B91034B6B83632B6B2B73A32B9 PUSH1 0x71 SHL PUSH1 0x60 DUP3 ADD MSTORE PUSH1 0x80 ADD SWAP1 JUMP JUMPDEST PUSH1 0x1 PUSH1 0x1 PUSH1 0xA0 SHL SUB DUP6 DUP2 AND DUP3 MSTORE DUP5 AND PUSH1 0x20 DUP3 ADD MSTORE PUSH1 0x40 DUP2 ADD DUP4 SWAP1 MSTORE PUSH1 0x80 PUSH1 0x60 DUP3 ADD DUP2 SWAP1 MSTORE PUSH1 0x0 SWAP1 PUSH2 0x3715 SWAP1 DUP4 ADD DUP5 PUSH2 0x2FDE JUMP JUMPDEST SWAP7 SWAP6 POP POP POP POP POP POP JUMP JUMPDEST PUSH1 0x0 PUSH1 0x20 DUP3 DUP5 SUB SLT ISZERO PUSH2 0x3731 JUMPI PUSH1 0x0 DUP1 REVERT JUMPDEST DUP2 MLOAD PUSH2 0x2CA2 DUP2 PUSH2 0x2F6E JUMP INVALID JUMPI PUSH6 0x206172652073 PUSH16 0x7272792E20546865206C617374204D65 PUSH5 0x616C73206F PUSH7 0xA2646970667358 0x22 SLT KECCAK256 PUSH21 0x398226069D043A0E8AC6605694F457A9D113ADAE2 DUP8 0xCC 0xDA SUB 0xE8 PUSH13 0xC977E99B64736F6C6343000811 STOP CALLER "},"methodIdentifiers":{"COMMON_SUPPLY()":"82cf91b1","EPIC_SUPPLY()":"35aa9fb9","LEGENDARY_SUPPLY()":"6ab65915","MINT_COOLDOWN()":"f7ee7a43","RARE_SUPPLY()":"ada0c98f","UNCOMMON_SUPPLY()":"97d0f71f","approve(address,uint256)":"095ea7b3","balanceOf(address)":"70a08231","commonPrice()":"8d32895c","cooldownTimes(uint256)":"c1e2c21c","epicPrice()":"9e9db57d","getApproved(uint256)":"081812fc","getCooldownDaysLeft(address,uint256)":"c2f16818","getNextMintTier(address)":"22976837","getTokenIPFSHash(uint256)":"3f2ad2e3","giveawaysWallet()":"3f104c7f","isApprovedForAll(address,address)":"e985e9c5","legendaryPrice()":"34d50bfc","marketingWallet()":"75f0a874","mintCommon(string)":"d3043f53","mintEpic(string)":"fc293c97","mintLegendary(string)":"46c414d6","mintRare(string)":"fed478bc","mintUncommon(string)":"651d64b7","name()":"06fdde03","owner()":"8da5cb5b","ownerOf(uint256)":"6352211e","percentages()":"6bc15b9b","rarePrice()":"a3f568c6","renounceOwnership()":"715018a6","safeTransferFrom(address,address,uint256)":"42842e0e","safeTransferFrom(address,address,uint256,bytes)":"b88d4fde","setApprovalForAll(address,bool)":"a22cb465","setCommonCooldown(uint256)":"7863e8bd","setCommonPrice(uint256)":"88be7347","setEpicCooldown(uint256)":"a6921706","setEpicPrice(uint256)":"911d99ff","setLegendaryCooldown(uint256)":"3617d992","setLegendaryPrice(uint256)":"08f6f82f","setPercentages(uint256,uint256,uint256,uint256,uint256)":"83e06ead","setRareCooldown(uint256)":"0342f54b","setRarePrice(uint256)":"660e01e8","setUncommonCooldown(uint256)":"0a11a4ad","setUncommonPrice(uint256)":"27182d69","stakingRewardsWallet()":"83a30da4","supportsInterface(bytes4)":"01ffc9a7","symbol()":"95d89b41","teamWallet()":"59927044","tokenURI(uint256)":"c87b56dd","transferFrom(address,address,uint256)":"23b872dd","transferOwnership(address)":"f2fde38b","uncommonPrice()":"2b9c36f2","updateDistributionWallets(address,address,address,address,address)":"29048248","xDripBuybacksWallet()":"71491632"}}}}}