{
  "_format": "hh-sol-artifact-1",
  "contractName": "MedalsOfHonor",
  "sourceName": "src/contracts/MedalsOfHonor.sol",
  "abi": [
    {
      "inputs": [
        {
          "internalType": "address payable",
          "name": "_xdripsbuybackWallet",
          "type": "address"
        }
      ],
      "stateMutability": "nonpayable",
      "type": "constructor"
    },
    {
      "anonymous": false,
      "inputs": [
        {
          "indexed": true,
          "internalType": "address",
          "name": "owner",
          "type": "address"
        },
        {
          "indexed": true,
          "internalType": "address",
          "name": "approved",
          "type": "address"
        },
        {
          "indexed": true,
          "internalType": "uint256",
          "name": "tokenId",
          "type": "uint256"
        }
      ],
      "name": "Approval",
      "type": "event"
    },
    {
      "anonymous": false,
      "inputs": [
        {
          "indexed": true,
          "internalType": "address",
          "name": "owner",
          "type": "address"
        },
        {
          "indexed": true,
          "internalType": "address",
          "name": "operator",
          "type": "address"
        },
        {
          "indexed": false,
          "internalType": "bool",
          "name": "approved",
          "type": "bool"
        }
      ],
      "name": "ApprovalForAll",
      "type": "event"
    },
    {
      "anonymous": false,
      "inputs": [
        {
          "indexed": true,
          "internalType": "address",
          "name": "owner",
          "type": "address"
        },
        {
          "indexed": false,
          "internalType": "uint256",
          "name": "tokenId",
          "type": "uint256"
        },
        {
          "indexed": false,
          "internalType": "string",
          "name": "ipfsHash",
          "type": "string"
        }
      ],
      "name": "CommonMinted",
      "type": "event"
    },
    {
      "anonymous": false,
      "inputs": [
        {
          "indexed": true,
          "internalType": "address",
          "name": "owner",
          "type": "address"
        },
        {
          "indexed": false,
          "internalType": "uint256",
          "name": "tokenId",
          "type": "uint256"
        },
        {
          "indexed": false,
          "internalType": "string",
          "name": "ipfsHash",
          "type": "string"
        }
      ],
      "name": "EpicMinted",
      "type": "event"
    },
    {
      "anonymous": false,
      "inputs": [
        {
          "indexed": true,
          "internalType": "address",
          "name": "owner",
          "type": "address"
        },
        {
          "indexed": false,
          "internalType": "uint256",
          "name": "tokenId",
          "type": "uint256"
        },
        {
          "indexed": false,
          "internalType": "string",
          "name": "ipfsHash",
          "type": "string"
        }
      ],
      "name": "LegendaryMinted",
      "type": "event"
    },
    {
      "anonymous": false,
      "inputs": [
        {
          "indexed": true,
          "internalType": "address",
          "name": "previousOwner",
          "type": "address"
        },
        {
          "indexed": true,
          "internalType": "address",
          "name": "newOwner",
          "type": "address"
        }
      ],
      "name": "OwnershipTransferred",
      "type": "event"
    },
    {
      "anonymous": false,
      "inputs": [
        {
          "indexed": true,
          "internalType": "address",
          "name": "owner",
          "type": "address"
        },
        {
          "indexed": false,
          "internalType": "uint256",
          "name": "tokenId",
          "type": "uint256"
        },
        {
          "indexed": false,
          "internalType": "string",
          "name": "ipfsHash",
          "type": "string"
        }
      ],
      "name": "RareMinted",
      "type": "event"
    },
    {
      "anonymous": false,
      "inputs": [
        {
          "indexed": true,
          "internalType": "address",
          "name": "from",
          "type": "address"
        },
        {
          "indexed": true,
          "internalType": "address",
          "name": "to",
          "type": "address"
        },
        {
          "indexed": true,
          "internalType": "uint256",
          "name": "tokenId",
          "type": "uint256"
        }
      ],
      "name": "Transfer",
      "type": "event"
    },
    {
      "anonymous": false,
      "inputs": [
        {
          "indexed": true,
          "internalType": "address",
          "name": "owner",
          "type": "address"
        },
        {
          "indexed": false,
          "internalType": "uint256",
          "name": "tokenId",
          "type": "uint256"
        },
        {
          "indexed": false,
          "internalType": "string",
          "name": "ipfsHash",
          "type": "string"
        }
      ],
      "name": "UncommonMinted",
      "type": "event"
    },
    {
      "inputs": [],
      "name": "COMMON_SUPPLY",
      "outputs": [
        {
          "internalType": "uint256",
          "name": "",
          "type": "uint256"
        }
      ],
      "stateMutability": "view",
      "type": "function"
    },
    {
      "inputs": [],
      "name": "EPIC_SUPPLY",
      "outputs": [
        {
          "internalType": "uint256",
          "name": "",
          "type": "uint256"
        }
      ],
      "stateMutability": "view",
      "type": "function"
    },
    {
      "inputs": [],
      "name": "LEGENDARY_SUPPLY",
      "outputs": [
        {
          "internalType": "uint256",
          "name": "",
          "type": "uint256"
        }
      ],
      "stateMutability": "view",
      "type": "function"
    },
    {
      "inputs": [],
      "name": "MINT_COOLDOWN",
      "outputs": [
        {
          "internalType": "uint256",
          "name": "",
          "type": "uint256"
        }
      ],
      "stateMutability": "view",
      "type": "function"
    },
    {
      "inputs": [],
      "name": "RARE_SUPPLY",
      "outputs": [
        {
          "internalType": "uint256",
          "name": "",
          "type": "uint256"
        }
      ],
      "stateMutability": "view",
      "type": "function"
    },
    {
      "inputs": [],
      "name": "UNCOMMON_SUPPLY",
      "outputs": [
        {
          "internalType": "uint256",
          "name": "",
          "type": "uint256"
        }
      ],
      "stateMutability": "view",
      "type": "function"
    },
    {
      "inputs": [
        {
          "internalType": "address",
          "name": "to",
          "type": "address"
        },
        {
          "internalType": "uint256",
          "name": "tokenId",
          "type": "uint256"
        }
      ],
      "name": "approve",
      "outputs": [],
      "stateMutability": "nonpayable",
      "type": "function"
    },
    {
      "inputs": [
        {
          "internalType": "address",
          "name": "owner",
          "type": "address"
        }
      ],
      "name": "balanceOf",
      "outputs": [
        {
          "internalType": "uint256",
          "name": "",
          "type": "uint256"
        }
      ],
      "stateMutability": "view",
      "type": "function"
    },
    {
      "inputs": [],
      "name": "commonPrice",
      "outputs": [
        {
          "internalType": "uint256",
          "name": "",
          "type": "uint256"
        }
      ],
      "stateMutability": "view",
      "type": "function"
    },
    {
      "inputs": [
        {
          "internalType": "uint256",
          "name": "",
          "type": "uint256"
        }
      ],
      "name": "cooldownTimes",
      "outputs": [
        {
          "internalType": "uint256",
          "name": "",
          "type": "uint256"
        }
      ],
      "stateMutability": "view",
      "type": "function"
    },
    {
      "inputs": [],
      "name": "epicPrice",
      "outputs": [
        {
          "internalType": "uint256",
          "name": "",
          "type": "uint256"
        }
      ],
      "stateMutability": "view",
      "type": "function"
    },
    {
      "inputs": [
        {
          "internalType": "uint256",
          "name": "tokenId",
          "type": "uint256"
        }
      ],
      "name": "getApproved",
      "outputs": [
        {
          "internalType": "address",
          "name": "",
          "type": "address"
        }
      ],
      "stateMutability": "view",
      "type": "function"
    },
    {
      "inputs": [
        {
          "internalType": "address",
          "name": "account",
          "type": "address"
        },
        {
          "internalType": "uint256",
          "name": "mintTier",
          "type": "uint256"
        }
      ],
      "name": "getCooldownDaysLeft",
      "outputs": [
        {
          "internalType": "uint256",
          "name": "",
          "type": "uint256"
        }
      ],
      "stateMutability": "view",
      "type": "function"
    },
    {
      "inputs": [
        {
          "internalType": "address",
          "name": "account",
          "type": "address"
        }
      ],
      "name": "getNextMintTier",
      "outputs": [
        {
          "internalType": "string",
          "name": "",
          "type": "string"
        },
        {
          "internalType": "uint256",
          "name": "",
          "type": "uint256"
        }
      ],
      "stateMutability": "view",
      "type": "function"
    },
    {
      "inputs": [
        {
          "internalType": "uint256",
          "name": "tokenId",
          "type": "uint256"
        }
      ],
      "name": "getTokenIPFSHash",
      "outputs": [
        {
          "internalType": "string",
          "name": "",
          "type": "string"
        }
      ],
      "stateMutability": "view",
      "type": "function"
    },
    {
      "inputs": [],
      "name": "giveawaysWallet",
      "outputs": [
        {
          "internalType": "address payable",
          "name": "",
          "type": "address"
        }
      ],
      "stateMutability": "view",
      "type": "function"
    },
    {
      "inputs": [
        {
          "internalType": "address",
          "name": "owner",
          "type": "address"
        },
        {
          "internalType": "address",
          "name": "operator",
          "type": "address"
        }
      ],
      "name": "isApprovedForAll",
      "outputs": [
        {
          "internalType": "bool",
          "name": "",
          "type": "bool"
        }
      ],
      "stateMutability": "view",
      "type": "function"
    },
    {
      "inputs": [],
      "name": "legendaryPrice",
      "outputs": [
        {
          "internalType": "uint256",
          "name": "",
          "type": "uint256"
        }
      ],
      "stateMutability": "view",
      "type": "function"
    },
    {
      "inputs": [],
      "name": "marketingWallet",
      "outputs": [
        {
          "internalType": "address payable",
          "name": "",
          "type": "address"
        }
      ],
      "stateMutability": "view",
      "type": "function"
    },
    {
      "inputs": [
        {
          "internalType": "string",
          "name": "ipfsHash",
          "type": "string"
        }
      ],
      "name": "mintCommon",
      "outputs": [],
      "stateMutability": "payable",
      "type": "function"
    },
    {
      "inputs": [
        {
          "internalType": "string",
          "name": "ipfsHash",
          "type": "string"
        }
      ],
      "name": "mintEpic",
      "outputs": [],
      "stateMutability": "payable",
      "type": "function"
    },
    {
      "inputs": [
        {
          "internalType": "string",
          "name": "ipfsHash",
          "type": "string"
        }
      ],
      "name": "mintLegendary",
      "outputs": [],
      "stateMutability": "payable",
      "type": "function"
    },
    {
      "inputs": [
        {
          "internalType": "string",
          "name": "ipfsHash",
          "type": "string"
        }
      ],
      "name": "mintRare",
      "outputs": [],
      "stateMutability": "payable",
      "type": "function"
    },
    {
      "inputs": [
        {
          "internalType": "string",
          "name": "ipfsHash",
          "type": "string"
        }
      ],
      "name": "mintUncommon",
      "outputs": [],
      "stateMutability": "payable",
      "type": "function"
    },
    {
      "inputs": [],
      "name": "name",
      "outputs": [
        {
          "internalType": "string",
          "name": "",
          "type": "string"
        }
      ],
      "stateMutability": "view",
      "type": "function"
    },
    {
      "inputs": [],
      "name": "owner",
      "outputs": [
        {
          "internalType": "address",
          "name": "",
          "type": "address"
        }
      ],
      "stateMutability": "view",
      "type": "function"
    },
    {
      "inputs": [
        {
          "internalType": "uint256",
          "name": "tokenId",
          "type": "uint256"
        }
      ],
      "name": "ownerOf",
      "outputs": [
        {
          "internalType": "address",
          "name": "",
          "type": "address"
        }
      ],
      "stateMutability": "view",
      "type": "function"
    },
    {
      "inputs": [],
      "name": "percentages",
      "outputs": [
        {
          "internalType": "uint256",
          "name": "xDripBuybacksPercentage",
          "type": "uint256"
        },
        {
          "internalType": "uint256",
          "name": "stakingRewardsPercentage",
          "type": "uint256"
        },
        {
          "internalType": "uint256",
          "name": "marketingPercentage",
          "type": "uint256"
        },
        {
          "internalType": "uint256",
          "name": "giveawaysPercentage",
          "type": "uint256"
        },
        {
          "internalType": "uint256",
          "name": "teamPercentage",
          "type": "uint256"
        }
      ],
      "stateMutability": "view",
      "type": "function"
    },
    {
      "inputs": [],
      "name": "rarePrice",
      "outputs": [
        {
          "internalType": "uint256",
          "name": "",
          "type": "uint256"
        }
      ],
      "stateMutability": "view",
      "type": "function"
    },
    {
      "inputs": [],
      "name": "renounceOwnership",
      "outputs": [],
      "stateMutability": "nonpayable",
      "type": "function"
    },
    {
      "inputs": [
        {
          "internalType": "address",
          "name": "from",
          "type": "address"
        },
        {
          "internalType": "address",
          "name": "to",
          "type": "address"
        },
        {
          "internalType": "uint256",
          "name": "tokenId",
          "type": "uint256"
        }
      ],
      "name": "safeTransferFrom",
      "outputs": [],
      "stateMutability": "nonpayable",
      "type": "function"
    },
    {
      "inputs": [
        {
          "internalType": "address",
          "name": "from",
          "type": "address"
        },
        {
          "internalType": "address",
          "name": "to",
          "type": "address"
        },
        {
          "internalType": "uint256",
          "name": "tokenId",
          "type": "uint256"
        },
        {
          "internalType": "bytes",
          "name": "data",
          "type": "bytes"
        }
      ],
      "name": "safeTransferFrom",
      "outputs": [],
      "stateMutability": "nonpayable",
      "type": "function"
    },
    {
      "inputs": [
        {
          "internalType": "address",
          "name": "operator",
          "type": "address"
        },
        {
          "internalType": "bool",
          "name": "approved",
          "type": "bool"
        }
      ],
      "name": "setApprovalForAll",
      "outputs": [],
      "stateMutability": "nonpayable",
      "type": "function"
    },
    {
      "inputs": [
        {
          "internalType": "uint256",
          "name": "cooldown",
          "type": "uint256"
        }
      ],
      "name": "setCommonCooldown",
      "outputs": [],
      "stateMutability": "nonpayable",
      "type": "function"
    },
    {
      "inputs": [
        {
          "internalType": "uint256",
          "name": "price",
          "type": "uint256"
        }
      ],
      "name": "setCommonPrice",
      "outputs": [],
      "stateMutability": "nonpayable",
      "type": "function"
    },
    {
      "inputs": [
        {
          "internalType": "uint256",
          "name": "cooldown",
          "type": "uint256"
        }
      ],
      "name": "setEpicCooldown",
      "outputs": [],
      "stateMutability": "nonpayable",
      "type": "function"
    },
    {
      "inputs": [
        {
          "internalType": "uint256",
          "name": "price",
          "type": "uint256"
        }
      ],
      "name": "setEpicPrice",
      "outputs": [],
      "stateMutability": "nonpayable",
      "type": "function"
    },
    {
      "inputs": [
        {
          "internalType": "uint256",
          "name": "cooldown",
          "type": "uint256"
        }
      ],
      "name": "setLegendaryCooldown",
      "outputs": [],
      "stateMutability": "nonpayable",
      "type": "function"
    },
    {
      "inputs": [
        {
          "internalType": "uint256",
          "name": "price",
          "type": "uint256"
        }
      ],
      "name": "setLegendaryPrice",
      "outputs": [],
      "stateMutability": "nonpayable",
      "type": "function"
    },
    {
      "inputs": [
        {
          "internalType": "uint256",
          "name": "xDripBuybacksPercentage",
          "type": "uint256"
        },
        {
          "internalType": "uint256",
          "name": "stakingRewardsPercentage",
          "type": "uint256"
        },
        {
          "internalType": "uint256",
          "name": "marketingPercentage",
          "type": "uint256"
        },
        {
          "internalType": "uint256",
          "name": "giveawaysPercentage",
          "type": "uint256"
        },
        {
          "internalType": "uint256",
          "name": "teamPercentage",
          "type": "uint256"
        }
      ],
      "name": "setPercentages",
      "outputs": [],
      "stateMutability": "nonpayable",
      "type": "function"
    },
    {
      "inputs": [
        {
          "internalType": "uint256",
          "name": "cooldown",
          "type": "uint256"
        }
      ],
      "name": "setRareCooldown",
      "outputs": [],
      "stateMutability": "nonpayable",
      "type": "function"
    },
    {
      "inputs": [
        {
          "internalType": "uint256",
          "name": "price",
          "type": "uint256"
        }
      ],
      "name": "setRarePrice",
      "outputs": [],
      "stateMutability": "nonpayable",
      "type": "function"
    },
    {
      "inputs": [
        {
          "internalType": "uint256",
          "name": "cooldown",
          "type": "uint256"
        }
      ],
      "name": "setUncommonCooldown",
      "outputs": [],
      "stateMutability": "nonpayable",
      "type": "function"
    },
    {
      "inputs": [
        {
          "internalType": "uint256",
          "name": "price",
          "type": "uint256"
        }
      ],
      "name": "setUncommonPrice",
      "outputs": [],
      "stateMutability": "nonpayable",
      "type": "function"
    },
    {
      "inputs": [],
      "name": "stakingRewardsWallet",
      "outputs": [
        {
          "internalType": "address payable",
          "name": "",
          "type": "address"
        }
      ],
      "stateMutability": "view",
      "type": "function"
    },
    {
      "inputs": [
        {
          "internalType": "bytes4",
          "name": "interfaceId",
          "type": "bytes4"
        }
      ],
      "name": "supportsInterface",
      "outputs": [
        {
          "internalType": "bool",
          "name": "",
          "type": "bool"
        }
      ],
      "stateMutability": "view",
      "type": "function"
    },
    {
      "inputs": [],
      "name": "symbol",
      "outputs": [
        {
          "internalType": "string",
          "name": "",
          "type": "string"
        }
      ],
      "stateMutability": "view",
      "type": "function"
    },
    {
      "inputs": [],
      "name": "teamWallet",
      "outputs": [
        {
          "internalType": "address payable",
          "name": "",
          "type": "address"
        }
      ],
      "stateMutability": "view",
      "type": "function"
    },
    {
      "inputs": [
        {
          "internalType": "uint256",
          "name": "tokenId",
          "type": "uint256"
        }
      ],
      "name": "tokenURI",
      "outputs": [
        {
          "internalType": "string",
          "name": "",
          "type": "string"
        }
      ],
      "stateMutability": "view",
      "type": "function"
    },
    {
      "inputs": [
        {
          "internalType": "address",
          "name": "from",
          "type": "address"
        },
        {
          "internalType": "address",
          "name": "to",
          "type": "address"
        },
        {
          "internalType": "uint256",
          "name": "tokenId",
          "type": "uint256"
        }
      ],
      "name": "transferFrom",
      "outputs": [],
      "stateMutability": "nonpayable",
      "type": "function"
    },
    {
      "inputs": [
        {
          "internalType": "address",
          "name": "newOwner",
          "type": "address"
        }
      ],
      "name": "transferOwnership",
      "outputs": [],
      "stateMutability": "nonpayable",
      "type": "function"
    },
    {
      "inputs": [],
      "name": "uncommonPrice",
      "outputs": [
        {
          "internalType": "uint256",
          "name": "",
          "type": "uint256"
        }
      ],
      "stateMutability": "view",
      "type": "function"
    },
    {
      "inputs": [
        {
          "internalType": "address payable",
          "name": "_xdripsbuybackWallet",
          "type": "address"
        },
        {
          "internalType": "address payable",
          "name": "_stakingRewardsWallet",
          "type": "address"
        },
        {
          "internalType": "address payable",
          "name": "_marketingWallet",
          "type": "address"
        },
        {
          "internalType": "address payable",
          "name": "_giveawaysWallet",
          "type": "address"
        },
        {
          "internalType": "address payable",
          "name": "_teamWallet",
          "type": "address"
        }
      ],
      "name": "updateDistributionWallets",
      "outputs": [],
      "stateMutability": "nonpayable",
      "type": "function"
    },
    {
      "inputs": [],
      "name": "xDripBuybacksWallet",
      "outputs": [
        {
          "internalType": "address payable",
          "name": "",
          "type": "address"
        }
      ],
      "stateMutability": "view",
      "type": "function"
    }
  ],
  "bytecode": "0x61012060405260006080908152601e60a081905260c081905260e08190526101005262000031906009906005620001e8565b506703782dace9d90000600f9081556706f05b59d3b20000601055670a688906bd8b0000601155670de0b6b3a7640000601255671158e460913d00006013556040805160a081018252601480825260286020830181905292820184905260608201849052600a6080909201829052601b55601c91909155601d829055601e91909155601f55348015620000c357600080fd5b5060405162003b9938038062003b99833981016040819052620000e69162000254565b6040518060400160405280600f81526020016e26b2b230b6399037b3102437b737b960891b8152506040518060400160405280600381526020016209a9e960eb1b81525081600090816200013b91906200032b565b5060016200014a82826200032b565b50505062000167620001616200019260201b60201c565b62000196565b6001600855600a80546001600160a01b0319166001600160a01b0392909216919091179055620003f7565b3390565b600780546001600160a01b038381166001600160a01b0319831681179093556040519116919082907f8be0079c531659141344cd1fd0a4f28419497f9722a3daafe3b4186f6b6457e090600090a35050565b8280548282559060005260206000209081019282156200022b579160200282015b828111156200022b578251829060ff1690559160200191906001019062000209565b50620002399291506200023d565b5090565b5b808211156200023957600081556001016200023e565b6000602082840312156200026757600080fd5b81516001600160a01b03811681146200027f57600080fd5b9392505050565b634e487b7160e01b600052604160045260246000fd5b600181811c90821680620002b157607f821691505b602082108103620002d257634e487b7160e01b600052602260045260246000fd5b50919050565b601f8211156200032657600081815260208120601f850160051c81016020861015620003015750805b601f850160051c820191505b8181101562000322578281556001016200030d565b5050505b505050565b81516001600160401b0381111562000347576200034762000286565b6200035f816200035884546200029c565b84620002d8565b602080601f8311600181146200039757600084156200037e5750858301515b600019600386901b1c1916600185901b17855562000322565b600085815260208120601f198616915b82811015620003c857888601518255948401946001909101908401620003a7565b5085821015620003e75787850151600019600388901b60f8161c191681555b5050505050600190811b01905550565b61379280620004076000396000f3fe6080604052600436106103355760003560e01c8063715018a6116101ab578063a22cb465116100f7578063c87b56dd11610095578063f2fde38b1161006f578063f2fde38b14610962578063f7ee7a4314610982578063fc293c9714610999578063fed478bc146109ac57600080fd5b8063c87b56dd146108e6578063d3043f5314610906578063e985e9c51461091957600080fd5b8063ada0c98f116100d1578063ada0c98f14610871578063b88d4fde14610886578063c1e2c21c146108a6578063c2f16818146108c657600080fd5b8063a22cb4651461081b578063a3f568c61461083b578063a69217061461085157600080fd5b806388be734711610164578063911d99ff1161013e578063911d99ff146107bb57806395d89b41146107db57806397d0f71f146107f05780639e9db57d1461080557600080fd5b806388be7347146107675780638d32895c146107875780638da5cb5b1461079d57600080fd5b8063715018a6146106bd57806375f0a874146106d25780637863e8bd146106f257806382cf91b11461071257806383a30da41461072757806383e06ead1461074757600080fd5b806335aa9fb9116102855780636352211e116102235780636ab65915116101fd5780636ab65915146105135780636bc15b9b1461062e57806370a082311461067d578063714916321461069d57600080fd5b80636352211e146105db578063651d64b7146105fb578063660e01e81461060e57600080fd5b80633f2ad2e31161025f5780633f2ad2e31461056857806342842e0e1461058857806346c414d6146105a857806359927044146105bb57600080fd5b806335aa9fb9146105135780633617d992146105285780633f104c7f1461054857600080fd5b80630a11a4ad116102f257806327182d69116102cc57806327182d691461049957806329048248146104b95780632b9c36f2146104d957806334d50bfc146104fd57600080fd5b80630a11a4ad1461042b578063229768371461044b57806323b872dd1461047957600080fd5b806301ffc9a71461033a5780630342f54b1461036f57806306fdde0314610391578063081812fc146103b357806308f6f82f146103eb578063095ea7b31461040b575b600080fd5b34801561034657600080fd5b5061035a610355366004612f84565b6109bf565b60405190151581526020015b60405180910390f35b34801561037b57600080fd5b5061038f61038a366004612fa1565b610a11565b005b34801561039d57600080fd5b506103a6610a3d565b604051610366919061300a565b3480156103bf57600080fd5b506103d36103ce366004612fa1565b610acf565b6040516001600160a01b039091168152602001610366565b3480156103f757600080fd5b5061038f610406366004612fa1565b610af6565b34801561041757600080fd5b5061038f610426366004613032565b610b03565b34801561043757600080fd5b5061038f610446366004612fa1565b610c1d565b34801561045757600080fd5b5061046b61046636600461305e565b610c3a565b60405161036692919061307b565b34801561048557600080fd5b5061038f61049436600461309d565b610e53565b3480156104a557600080fd5b5061038f6104b4366004612fa1565b610e84565b3480156104c557600080fd5b5061038f6104d43660046130de565b610e91565b3480156104e557600080fd5b506104ef60105481565b604051908152602001610366565b34801561050957600080fd5b506104ef60135481565b34801561051f57600080fd5b506104ef602881565b34801561053457600080fd5b5061038f610543366004612fa1565b610ef8565b34801561055457600080fd5b50600d546103d3906001600160a01b031681565b34801561057457600080fd5b506103a6610583366004612fa1565b610f15565b34801561059457600080fd5b5061038f6105a336600461309d565b611011565b61038f6105b63660046131db565b61102c565b3480156105c757600080fd5b50600e546103d3906001600160a01b031681565b3480156105e757600080fd5b506103d36105f6366004612fa1565b6112db565b61038f6106093660046131db565b61133b565b34801561061a57600080fd5b5061038f610629366004612fa1565b61166a565b34801561063a57600080fd5b50601b54601c54601d54601e54601f54610655949392919085565b604080519586526020860194909452928401919091526060830152608082015260a001610366565b34801561068957600080fd5b506104ef61069836600461305e565b611677565b3480156106a957600080fd5b50600a546103d3906001600160a01b031681565b3480156106c957600080fd5b5061038f6116fd565b3480156106de57600080fd5b50600c546103d3906001600160a01b031681565b3480156106fe57600080fd5b5061038f61070d366004612fa1565b611711565b34801561071e57600080fd5b506104ef606481565b34801561073357600080fd5b50600b546103d3906001600160a01b031681565b34801561075357600080fd5b5061038f610762366004613224565b61172e565b34801561077357600080fd5b5061038f610782366004612fa1565b6117f4565b34801561079357600080fd5b506104ef600f5481565b3480156107a957600080fd5b506007546001600160a01b03166103d3565b3480156107c757600080fd5b5061038f6107d6366004612fa1565b611801565b3480156107e757600080fd5b506103a661180e565b3480156107fc57600080fd5b506104ef605081565b34801561081157600080fd5b506104ef60125481565b34801561082757600080fd5b5061038f61083636600461325f565b61181d565b34801561084757600080fd5b506104ef60115481565b34801561085d57600080fd5b5061038f61086c366004612fa1565b611828565b34801561087d57600080fd5b506104ef603c81565b34801561089257600080fd5b5061038f6108a136600461329d565b611845565b3480156108b257600080fd5b506104ef6108c1366004612fa1565b611877565b3480156108d257600080fd5b506104ef6108e1366004613032565b611898565b3480156108f257600080fd5b506103a6610901366004612fa1565b6119d8565b61038f6109143660046131db565b611ae0565b34801561092557600080fd5b5061035a61093436600461331d565b6001600160a01b03918216600090815260056020908152604080832093909416825291909152205460ff1690565b34801561096e57600080fd5b5061038f61097d36600461305e565b611d58565b34801561098e57600080fd5b506104ef62278d0081565b61038f6109a73660046131db565b611dd1565b61038f6109ba3660046131db565b6120ca565b60006001600160e01b031982166380ac58cd60e01b14806109f057506001600160e01b03198216635b5e139f60e01b145b80610a0b57506301ffc9a760e01b6001600160e01b03198316145b92915050565b610a196123a0565b806009600381548110610a2e57610a2e61334b565b60009182526020909120015550565b606060008054610a4c90613361565b80601f0160208091040260200160405190810160405280929190818152602001828054610a7890613361565b8015610ac55780601f10610a9a57610100808354040283529160200191610ac5565b820191906000526020600020905b815481529060010190602001808311610aa857829003601f168201915b5050505050905090565b6000610ada826123fa565b506000908152600460205260409020546001600160a01b031690565b610afe6123a0565b601355565b6000610b0e826112db565b9050806001600160a01b0316836001600160a01b031603610b805760405162461bcd60e51b815260206004820152602160248201527f4552433732313a20617070726f76616c20746f2063757272656e74206f776e656044820152603960f91b60648201526084015b60405180910390fd5b336001600160a01b0382161480610b9c5750610b9c8133610934565b610c0e5760405162461bcd60e51b815260206004820152603d60248201527f4552433732313a20617070726f76652063616c6c6572206973206e6f7420746f60448201527f6b656e206f776e6572206f7220617070726f76656420666f7220616c6c0000006064820152608401610b77565b610c188383612459565b505050565b610c256123a0565b806009600281548110610a2e57610a2e61334b565b606060008060015b60058111610c9e576001600160a01b0385166000908152601a602090815260408083208484529091529020544290610c7e9062278d00906133b1565b1115610c8c57809150610c9e565b80610c96816133c4565b915050610c42565b5080600003610cd25750506040805180820190915260098152684c4547454e4441525960b81b602082015292600092509050565b80600103610d36576001600160a01b0384166000908152601a6020908152604080832060018452909152902054610d0d9062278d00906133b1565b6040805180820190915260088152672aa721a7a6a6a7a760c11b60208201529590945092505050565b80600203610d96576001600160a01b0384166000908152601a6020908152604080832060028452909152902054610d719062278d00906133b1565b6040805180820190915260048152635241524560e01b60208201529590945092505050565b80600303610df6576001600160a01b0384166000908152601a6020908152604080832060038452909152902054610dd19062278d00906133b1565b6040805180820190915260048152634550494360e01b60208201529590945092505050565b6001600160a01b0384166000908152601a6020908152604080832060048452909152902054610e299062278d00906133b1565b6040805180820190915260098152684c4547454e4441525960b81b60208201529590945092505050565b610e5d33826124c7565b610e795760405162461bcd60e51b8152600401610b77906133dd565b610c18838383612545565b610e8c6123a0565b601055565b610e996123a0565b600a80546001600160a01b03199081166001600160a01b0397881617909155600b8054821695871695909517909455600c8054851693861693909317909255600d80548416918516919091179055600e80549092169216919091179055565b610f006123a0565b806009600581548110610a2e57610a2e61334b565b6000818152600260205260409020546060906001600160a01b0316610f735760405162461bcd60e51b8152602060048201526014602482015273151bdad95b88191bd95cc81b9bdd08195e1a5cdd60621b6044820152606401610b77565b60008281526019602052604090208054610f8c90613361565b80601f0160208091040260200160405190810160405280929190818152602001828054610fb890613361565b80156110055780601f10610fda57610100808354040283529160200191611005565b820191906000526020600020905b815481529060010190602001808311610fe857829003601f168201915b50505050509050919050565b610c1883838360405180602001604052806000815250611845565b805160431461108e5760405162461bcd60e51b815260206004820152602860248201527f495046532068617368206c656e6774682073686f756c64206265203637206368604482015267617261637465727360c01b6064820152608401610b77565b6013543410156110ff5760405162461bcd60e51b815260206004820152603660248201527f4e6f7420656e6f75676820424e422073656e7420746f206d696e742061204c4560448201527523a2a72220a92c9026b2b230b61037b3102437b737b960511b6064820152608401610b77565b602861110a60185490565b106111805760405162461bcd60e51b815260206004820152604c602482015260008051602061373d83398151915260448201527f20486f6e6f72204c4547454e44415259204e46542068617320616c726561647960648201526b081899595b881b5a5b9d195960a21b608482015260a401610b77565b61118933611677565b6004146111fe5760405162461bcd60e51b815260206004820152603e60248201527f4d757374206f776e20616e2045504943204d6564616c206f6620486f6e6f722060448201527f6265666f7265206d696e74696e672061204c4547454e44415259204e465400006064820152608401610b77565b336000908152601a6020908152604080832060048452909152902054429061122a9062278d00906133b1565b11156112485760405162461bcd60e51b8152600401610b779061342a565b60006028603c6050606461125b60185490565b61126591906133b1565b61126f91906133b1565b61127991906133b1565b61128391906133b1565b905061128f33826126a9565b60008181526019602052604090206112a783826134af565b506112b6601880546001019055565b6112be612834565b6112c88183612a4f565b60006112d5336004611898565b50505050565b6000818152600260205260408120546001600160a01b031680610a0b5760405162461bcd60e51b8152602060048201526018602482015277115490cdcc8c4e881a5b9d985b1a59081d1bdad95b88125160421b6044820152606401610b77565b805160421461139d5760405162461bcd60e51b815260206004820152602860248201527f495046532068617368206c656e6774682073686f756c64206265203636206368604482015267617261637465727360c01b6064820152608401610b77565b60105434101561140e5760405162461bcd60e51b815260206004820152603660248201527f4e6f7420656e6f75676820424e422073656e7420746f206d696e7420616e20556044820152752721a7a6a6a7a71026b2b230b61037b3102437b737b960511b6064820152608401610b77565b605061141960155490565b1061148e5760405162461bcd60e51b815260206004820152604b602482015260008051602061373d83398151915260448201527f20486f6e6f7220554e434f4d4d4f4e204e46542068617320616c72656164792060648201526a1899595b881b5a5b9d195960aa1b608482015260a401610b77565b61149733611677565b60011461150c5760405162461bcd60e51b815260206004820152603f60248201527f4d757374206f776e206120434f4d4d4f4e204d6564616c206f6620486f6e6f7260448201527f206265666f7265206d696e74696e6720616e20554e434f4d4d4f4e204e4654006064820152608401610b77565b6000611519336001611898565b905080156115395760405162461bcd60e51b8152600401610b779061342a565b336000908152601a602090815260408083206001845290915290205442906115659062278d00906133b1565b11156115835760405162461bcd60e51b8152600401610b779061342a565b600061158e60155490565b90506115ae33606461159f60155490565b6115a991906133b1565b6126a9565b826019600060646115be60155490565b6115c891906133b1565b815260200190815260200160002090816115e291906134af565b506115f1601580546001019055565b6115f9612834565b336000908152601a602090815260408083206002845290915290204290556116218184612a4f565b336001600160a01b03167f6b9423af11878f5bad583984d9c04c9477193fea938f13ffa02922a5d486b150828560405161165c92919061356f565b60405180910390a2505b5050565b6116726123a0565b601155565b60006001600160a01b0382166116e15760405162461bcd60e51b815260206004820152602960248201527f4552433732313a2061646472657373207a65726f206973206e6f7420612076616044820152683634b21037bbb732b960b91b6064820152608401610b77565b506001600160a01b031660009081526003602052604090205490565b6117056123a0565b61170f6000612ae2565b565b6117196123a0565b806009600181548110610a2e57610a2e61334b565b6117366123a0565b6000818385611745888a6133b1565b61174f91906133b1565b61175991906133b1565b61176391906133b1565b9050806064146117b55760405162461bcd60e51b815260206004820152601e60248201527f50657263656e7461676573206d7573742061646420757020746f2031303000006044820152606401610b77565b506040805160a0810182528681526020810186905290810184905260608101839052608001819052601b94909455601c92909255601d55601e55601f55565b6117fc6123a0565b600f55565b6118096123a0565b601255565b606060018054610a4c90613361565b611666338383612b34565b6118306123a0565b806009600481548110610a2e57610a2e61334b565b61184f33836124c7565b61186b5760405162461bcd60e51b8152600401610b77906133dd565b6112d584848484612c02565b6009818154811061188757600080fd5b600091825260209091200154905081565b600080821180156118aa575060058211155b6118ea5760405162461bcd60e51b815260206004820152601160248201527024b73b30b634b21036b4b73a103a34b2b960791b6044820152606401610b77565b6001600160a01b0383166000908152601a6020908152604080832085845290915290205461195a5760405162461bcd60e51b815260206004820152601f60248201527f4e6f2070726576696f7573206d696e747320666f7220746869732074696572006044820152606401610b77565b60006009838154811061196f5761196f61334b565b60009182526020808320909101546001600160a01b0387168352601a825260408084208785529092529120546119a591906133b1565b90508042106119b8576000915050610a0b565b620151806119c64283613588565b6119d0919061359b565b949350505050565b60606119e3826123fa565b600082815260066020526040812080546119fc90613361565b80601f0160208091040260200160405190810160405280929190818152602001828054611a2890613361565b8015611a755780601f10611a4a57610100808354040283529160200191611a75565b820191906000526020600020905b815481529060010190602001808311611a5857829003601f168201915b505050505090506000611a9360408051602081019091526000815290565b90508051600003611aa5575092915050565b815115611ad7578082604051602001611abf9291906135bd565b60405160208183030381529060405292505050919050565b6119d084612c35565b8051604014611b425760405162461bcd60e51b815260206004820152602860248201527f495046532068617368206c656e6774682073686f756c64206265203634206368604482015267617261637465727360c01b6064820152608401610b77565b600f54341015611bb05760405162461bcd60e51b815260206004820152603360248201527f4e6f7420656e6f75676820424e422073656e7420746f206d696e74206120434f60448201527226a6a7a71026b2b230b61037b3102437b737b960691b6064820152608401610b77565b6064611bbb60145490565b10611c2e5760405162461bcd60e51b8152602060048201526049602482015260008051602061373d83398151915260448201527f20486f6e6f7220434f4d4d4f4e204e46542068617320616c7265616479206265606482015268195b881b5a5b9d195960ba1b608482015260a401610b77565b611c3733611677565b15611c845760405162461bcd60e51b815260206004820152601d60248201527f416c7265616479206d696e746564206120434f4d4d4f4e20746f6b656e0000006044820152606401610b77565b6000611c8f60145490565b9050611c9e336115a960145490565b336000908152601a60209081526040808320600184528252808320429055601454835260199091529020611cd283826134af565b50611ce1601480546001019055565b611ce9612834565b336000908152601a60209081526040808320600184529091529020429055611d118183612a4f565b336001600160a01b03167fb2c6cdad531a8cb22602e8d009e4271e3c000b912740b8dcf2e406dc742965c68284604051611d4c92919061356f565b60405180910390a25050565b611d606123a0565b6001600160a01b038116611dc55760405162461bcd60e51b815260206004820152602660248201527f4f776e61626c653a206e6577206f776e657220697320746865207a65726f206160448201526564647265737360d01b6064820152608401610b77565b611dce81612ae2565b50565b8051603e14611df25760405162461bcd60e51b8152600401610b77906135ec565b601254341015611e5f5760405162461bcd60e51b815260206004820152603260248201527f4e6f7420656e6f75676820424e422073656e7420746f206d696e7420616e20456044820152712824a19026b2b230b61037b3102437b737b960711b6064820152608401610b77565b6028611e6a60175490565b10611edb5760405162461bcd60e51b8152602060048201526047602482015260008051602061373d83398151915260448201527f20486f6e6f722045504943204e46542068617320616c7265616479206265656e606482015266081b5a5b9d195960ca1b608482015260a401610b77565b611ee433611677565b600314611f595760405162461bcd60e51b815260206004820152603960248201527f4d757374206f776e20612052415245204d6564616c206f6620486f6e6f72206260448201527f65666f7265206d696e74696e6720616e2045504943204e4654000000000000006064820152608401610b77565b6000611f66336003611898565b90508015611f865760405162461bcd60e51b8152600401610b779061342a565b336000908152601a60209081526040808320600384529091529020544290611fb29062278d00906133b1565b1115611fd05760405162461bcd60e51b8152600401610b779061342a565b6000611fdb60175490565b905061200433603c60506064611ff060175490565b611ffa91906133b1565b61159f91906133b1565b8260196000603c6050606461201860175490565b61202291906133b1565b61202c91906133b1565b61203691906133b1565b8152602001908152602001600020908161205091906134af565b5061205f601780546001019055565b612067612834565b336000908152601a6020908152604080832060048452909152902042905561208f8184612a4f565b336001600160a01b03167f1e0650ef11ef51a101e0ee0d1917b08960452d6f25ee87087922446b41689bb3828560405161165c92919061356f565b8051603e146120eb5760405162461bcd60e51b8152600401610b77906135ec565b6011543410156121575760405162461bcd60e51b815260206004820152603160248201527f4e6f7420656e6f75676820424e422073656e7420746f206d696e74206120524160448201527029229026b2b230b61037b3102437b737b960791b6064820152608401610b77565b603c61216260165490565b106121d35760405162461bcd60e51b8152602060048201526047602482015260008051602061373d83398151915260448201527f20486f6e6f722052415245204e46542068617320616c7265616479206265656e606482015266081b5a5b9d195960ca1b608482015260a401610b77565b6121dc33611677565b6002146122515760405162461bcd60e51b815260206004820152603d60248201527f4d757374206f776e20616e20554e434f4d4d4f4e204d6564616c206f6620486f60448201527f6e6f72206265666f7265206d696e74696e6720612052415245204e46540000006064820152608401610b77565b600061225e336002611898565b9050801561227e5760405162461bcd60e51b8152600401610b779061342a565b336000908152601a602090815260408083206002845290915290205442906122aa9062278d00906133b1565b11156122c85760405162461bcd60e51b8152600401610b779061342a565b60006122d360165490565b90506122e63360506064611ffa60165490565b8260196000605060646122f860165490565b61230291906133b1565b61230c91906133b1565b8152602001908152602001600020908161232691906134af565b50612335601680546001019055565b61233d612834565b336000908152601a602090815260408083206003845290915290204290556123658184612a4f565b336001600160a01b03167fa82f39585356ef29ae711edaa0d315292d97bfb415c209239f553f121d3504f7828560405161165c92919061356f565b6007546001600160a01b0316331461170f5760405162461bcd60e51b815260206004820181905260248201527f4f776e61626c653a2063616c6c6572206973206e6f7420746865206f776e65726044820152606401610b77565b6000818152600260205260409020546001600160a01b0316611dce5760405162461bcd60e51b8152602060048201526018602482015277115490cdcc8c4e881a5b9d985b1a59081d1bdad95b88125160421b6044820152606401610b77565b600081815260046020526040902080546001600160a01b0319166001600160a01b038416908117909155819061248e826112db565b6001600160a01b03167f8c5be1e5ebec7d5bd14f71427d1e84f3dd0314c0f7b2291e5b200ac8c7c3b92560405160405180910390a45050565b6000806124d3836112db565b9050806001600160a01b0316846001600160a01b0316148061251a57506001600160a01b0380821660009081526005602090815260408083209388168352929052205460ff165b806119d05750836001600160a01b031661253384610acf565b6001600160a01b031614949350505050565b826001600160a01b0316612558826112db565b6001600160a01b03161461257e5760405162461bcd60e51b8152600401610b7790613634565b6001600160a01b0382166125e05760405162461bcd60e51b8152602060048201526024808201527f4552433732313a207472616e7366657220746f20746865207a65726f206164646044820152637265737360e01b6064820152608401610b77565b826001600160a01b03166125f3826112db565b6001600160a01b0316146126195760405162461bcd60e51b8152600401610b7790613634565b600081815260046020908152604080832080546001600160a01b03199081169091556001600160a01b0387811680865260038552838620805460001901905590871680865283862080546001019055868652600290945282852080549092168417909155905184937fddf252ad1be2c89b69c2b068fc378daa952ba7f163c4a11628f55a4df523b3ef91a4505050565b6001600160a01b0382166126ff5760405162461bcd60e51b815260206004820181905260248201527f4552433732313a206d696e7420746f20746865207a65726f20616464726573736044820152606401610b77565b6000818152600260205260409020546001600160a01b0316156127645760405162461bcd60e51b815260206004820152601c60248201527f4552433732313a20746f6b656e20616c7265616479206d696e746564000000006044820152606401610b77565b6000818152600260205260409020546001600160a01b0316156127c95760405162461bcd60e51b815260206004820152601c60248201527f4552433732313a20746f6b656e20616c7265616479206d696e746564000000006044820152606401610b77565b6001600160a01b038216600081815260036020908152604080832080546001019055848352600290915280822080546001600160a01b0319168417905551839291907fddf252ad1be2c89b69c2b068fc378daa952ba7f163c4a11628f55a4df523b3ef908290a45050565b61283c612ca9565b47806128965760405162461bcd60e51b815260206004820152602360248201527f4e6f2066756e647320617661696c61626c6520666f722064697374726962757460448201526234b7b760e91b6064820152608401610b77565b600a54601b546001600160a01b03909116906108fc906064906128b99085613679565b6128c3919061359b565b6040518115909202916000818181858888f193505050501580156128eb573d6000803e3d6000fd5b50600b54601c546001600160a01b03909116906108fc9060649061290f9085613679565b612919919061359b565b6040518115909202916000818181858888f19350505050158015612941573d6000803e3d6000fd5b50600c54601d546001600160a01b03909116906108fc906064906129659085613679565b61296f919061359b565b6040518115909202916000818181858888f19350505050158015612997573d6000803e3d6000fd5b50600d54601e546001600160a01b03909116906108fc906064906129bb9085613679565b6129c5919061359b565b6040518115909202916000818181858888f193505050501580156129ed573d6000803e3d6000fd5b50600e54601f546001600160a01b03909116906108fc90606490612a119085613679565b612a1b919061359b565b6040518115909202916000818181858888f19350505050158015612a43573d6000803e3d6000fd5b505061170f6001600855565b6000828152600260205260409020546001600160a01b0316612aca5760405162461bcd60e51b815260206004820152602e60248201527f45524337323155524953746f726167653a2055524920736574206f66206e6f6e60448201526d32bc34b9ba32b73a103a37b5b2b760911b6064820152608401610b77565b6000828152600660205260409020610c1882826134af565b600780546001600160a01b038381166001600160a01b0319831681179093556040519116919082907f8be0079c531659141344cd1fd0a4f28419497f9722a3daafe3b4186f6b6457e090600090a35050565b816001600160a01b0316836001600160a01b031603612b955760405162461bcd60e51b815260206004820152601960248201527f4552433732313a20617070726f766520746f2063616c6c6572000000000000006044820152606401610b77565b6001600160a01b03838116600081815260056020908152604080832094871680845294825291829020805460ff191686151590811790915591519182527f17307eab39ab6107e8899845ad3d59bd9653f200f220920489ca2b5937696c31910160405180910390a3505050565b612c0d848484612545565b612c1984848484612d02565b6112d55760405162461bcd60e51b8152600401610b7790613690565b6060612c40826123fa565b6000612c5760408051602081019091526000815290565b90506000815111612c775760405180602001604052806000815250612ca2565b80612c8184612e03565b604051602001612c929291906135bd565b6040516020818303038152906040525b9392505050565b600260085403612cfb5760405162461bcd60e51b815260206004820152601f60248201527f5265656e7472616e637947756172643a207265656e7472616e742063616c6c006044820152606401610b77565b6002600855565b60006001600160a01b0384163b15612df857604051630a85bd0160e11b81526001600160a01b0385169063150b7a0290612d469033908990889088906004016136e2565b6020604051808303816000875af1925050508015612d81575060408051601f3d908101601f19168201909252612d7e9181019061371f565b60015b612dde573d808015612daf576040519150601f19603f3d011682016040523d82523d6000602084013e612db4565b606091505b508051600003612dd65760405162461bcd60e51b8152600401610b7790613690565b805181602001fd5b6001600160e01b031916630a85bd0160e11b1490506119d0565b506001949350505050565b60606000612e1083612e96565b600101905060008167ffffffffffffffff811115612e3057612e3061314f565b6040519080825280601f01601f191660200182016040528015612e5a576020820181803683370190505b5090508181016020015b600019016f181899199a1a9b1b9c1cb0b131b232b360811b600a86061a8153600a8504945084612e6457509392505050565b60008072184f03e93ff9f4daa797ed6e38ed64bf6a1f0160401b8310612ed55772184f03e93ff9f4daa797ed6e38ed64bf6a1f0160401b830492506040015b6d04ee2d6d415b85acef81000000008310612f01576d04ee2d6d415b85acef8100000000830492506020015b662386f26fc100008310612f1f57662386f26fc10000830492506010015b6305f5e1008310612f37576305f5e100830492506008015b6127108310612f4b57612710830492506004015b60648310612f5d576064830492506002015b600a8310610a0b5760010192915050565b6001600160e01b031981168114611dce57600080fd5b600060208284031215612f9657600080fd5b8135612ca281612f6e565b600060208284031215612fb357600080fd5b5035919050565b60005b83811015612fd5578181015183820152602001612fbd565b50506000910152565b60008151808452612ff6816020860160208601612fba565b601f01601f19169290920160200192915050565b602081526000612ca26020830184612fde565b6001600160a01b0381168114611dce57600080fd5b6000806040838503121561304557600080fd5b82356130508161301d565b946020939093013593505050565b60006020828403121561307057600080fd5b8135612ca28161301d565b60408152600061308e6040830185612fde565b90508260208301529392505050565b6000806000606084860312156130b257600080fd5b83356130bd8161301d565b925060208401356130cd8161301d565b929592945050506040919091013590565b600080600080600060a086880312156130f657600080fd5b85356131018161301d565b945060208601356131118161301d565b935060408601356131218161301d565b925060608601356131318161301d565b915060808601356131418161301d565b809150509295509295909350565b634e487b7160e01b600052604160045260246000fd5b600067ffffffffffffffff808411156131805761318061314f565b604051601f8501601f19908116603f011681019082821181831017156131a8576131a861314f565b816040528093508581528686860111156131c157600080fd5b858560208301376000602087830101525050509392505050565b6000602082840312156131ed57600080fd5b813567ffffffffffffffff81111561320457600080fd5b8201601f8101841361321557600080fd5b6119d084823560208401613165565b600080600080600060a0868803121561323c57600080fd5b505083359560208501359550604085013594606081013594506080013592509050565b6000806040838503121561327257600080fd5b823561327d8161301d565b91506020830135801515811461329257600080fd5b809150509250929050565b600080600080608085870312156132b357600080fd5b84356132be8161301d565b935060208501356132ce8161301d565b925060408501359150606085013567ffffffffffffffff8111156132f157600080fd5b8501601f8101871361330257600080fd5b61331187823560208401613165565b91505092959194509250565b6000806040838503121561333057600080fd5b823561333b8161301d565b915060208301356132928161301d565b634e487b7160e01b600052603260045260246000fd5b600181811c9082168061337557607f821691505b60208210810361339557634e487b7160e01b600052602260045260246000fd5b50919050565b634e487b7160e01b600052601160045260246000fd5b80820180821115610a0b57610a0b61339b565b6000600182016133d6576133d661339b565b5060010190565b6020808252602d908201527f4552433732313a2063616c6c6572206973206e6f7420746f6b656e206f776e6560408201526c1c881bdc88185c1c1c9bdd9959609a1b606082015260800190565b6020808252601f908201527f4d696e7420636f6f6c646f776e20706572696f64206e6f742070617373656400604082015260600190565b601f821115610c1857600081815260208120601f850160051c810160208610156134885750805b601f850160051c820191505b818110156134a757828155600101613494565b505050505050565b815167ffffffffffffffff8111156134c9576134c961314f565b6134dd816134d78454613361565b84613461565b602080601f83116001811461351257600084156134fa5750858301515b600019600386901b1c1916600185901b1785556134a7565b600085815260208120601f198616915b8281101561354157888601518255948401946001909101908401613522565b508582101561355f5787850151600019600388901b60f8161c191681555b5050505050600190811b01905550565b8281526040602082015260006119d06040830184612fde565b81810381811115610a0b57610a0b61339b565b6000826135b857634e487b7160e01b600052601260045260246000fd5b500490565b600083516135cf818460208801612fba565b8351908301906135e3818360208801612fba565b01949350505050565b60208082526028908201527f495046532068617368206c656e6774682073686f756c64206265203632206368604082015267617261637465727360c01b606082015260800190565b60208082526025908201527f4552433732313a207472616e736665722066726f6d20696e636f72726563742060408201526437bbb732b960d91b606082015260800190565b8082028115828204841417610a0b57610a0b61339b565b60208082526032908201527f4552433732313a207472616e7366657220746f206e6f6e20455243373231526560408201527131b2b4bb32b91034b6b83632b6b2b73a32b960711b606082015260800190565b6001600160a01b038581168252841660208201526040810183905260806060820181905260009061371590830184612fde565b9695505050505050565b60006020828403121561373157600080fd5b8151612ca281612f6e56fe57652061726520736f7272792e20546865206c617374204d6564616c73206f66a2646970667358221220740398226069d043a0e8ac6605694f457a9d113adae287ccda03e86cc977e99b64736f6c63430008110033",
  "linkReferences": {},
  "deployedLinkReferences": {}
}